:020000040000FA
:10000000003F0020752100004959000061210000D7
:10001000612100006121000061210000000000005A
:10002000000000000000000000000000C9210000E6
:10003000612100000000000061210000612100003A
:100040004523000045230000452300004523000010
:100050004523000045230000452300004523000000
:1000600045230000452300004523000045230000F0
:1000700045230000452300004523000045230000E0
:1000800045230000452300004523000045230000D0
:1000900045230000452300004523000045230000C0
:1000A00045230000452300004523000045230000B0
:1000B00045230000452300004523000045230000A0
:1000C0004523000045230000452300004523000090
:1000D0004523000045230000452300004523000080
:1000E0004523000045230000452300004523000070
:1000F0004523000045230000452300004523000060
:1001000053B94AB9002908BF00281CBF4FF0FF317E
:100110004FF0FF3000F00CB8ADF1080C6DE904CEE3
:1001200000F008F8DDF804E0DDE9022304B07047D0
:10013000704700BF2DE9F04786468C460846089E6A
:10014000154674461946002B40F0C2808542B2FA2B
:1001500082F245D94AB1C2F1200300FA02FC2EFA1C
:1001600003F3954043EA0C0C94404FEA154EA8B2B5
:10017000BCFBFEF8230C0EFB18CC08FB00F943EA8D
:100180000C43994528D9EB1808F1FF3704D299455B
:1001900002D9A8F102072B44A3EB0903A4B2B3FBD5
:1001A000FEFC0EFB1C330CFB00F044EA0344A042AF
:1001B00014D92C190CF1FF3304D2A04202D9ACF1AE
:1001C00002032C44241A43EA07401EB1D440002302
:1001D00034607360BDE8F0874746DDE76346F1E7CA
:1001E00092BB431B01214FEA154EAFB2B3FBFEFC9D
:1001F000200C0EFB1C330CFB07F840EA0343984528
:1002000062D9EB180CF1FF3004D2984502D9ACF159
:1002100002002B44A3EB0803A4B2B3FBFEFC0EFBCD
:100220001C330CFB07F744EA0344A7424ED92C19B0
:100230000CF1FF3304D2A74202D9ACF102032C44E3
:10024000E41B43EA0040C0E7C2F1200320FA03F1B7
:10025000954090402EFA03F303434FEA154EAFB298
:10026000B1FBFEFC0EFB1C10190C0CFB07F841EA5D
:100270000041884504FA02F422D969180CF1FF30D4
:1002800004D2884502D9ACF102002944A1EB08014F
:100290009BB2B1FBFEFC0EFB1C110CFB07F743EA03
:1002A00001439F420ED9EB180CF1FF3104D29F425B
:1002B00002D9ACF102012B44DB1B41EA004192E779
:1002C0006046E3E76146F7E76046A3E76346B7E7C2
:1002D000834206D916B9002108467BE7C6E900E04B
:1002E000F9E7B3FA83F78FB9834201D3724508D88F
:1002F000BEEB020460EB030301209C461EB9002103
:1003000068E73846FAE7C6E9004CF8E7C7F1200C81
:10031000BB4022FA0CF41C432EFA0CF120FA0CF329
:10032000B84001434FEA14490EFA07F5B3FBF9F858
:100330001FFA84FE09FB18300B0C08FB0EFA43EA87
:1003400000439A4502FA07F240D9E31808F1FF305A
:1003500004D29A4502D9A8F102002344A3EB0A0370
:1003600089B2B3FBF9F809FB183308FB0EFE41EA2A
:1003700003418E452CD9611808F1FF3304D28E4514
:1003800002D9A8F10203214443EA0040A0FB0298ED
:10039000A1EB0E014145CE46434602D306D14D4561
:1003A00004D2B9EB020E68EB04030138002EA6D08C
:1003B000B5EB0E0261EB030101FA0CFC22FA07F324
:1003C0004CEA0303F940C6E9003198E74046C5E727
:1003D0004346D9E730B5304B304AC3F800263048A1
:1003E000C3F8042687B0C3F808264921C3F80C26B1
:1003F000C3F81026C3F81426C3F81826C3F81C2621
:1004000005F0FFF903F060FF03A800F0B5FC254BF1
:100410001B68834204D02448452105F0F2F9FEE729
:10042000059A2248224D492105F0EBF9039921480C
:100430004B7D0A7DC98A0091492105F0E2F91E48E9
:10044000492105F0DEF902A99DF8100001F0ECFC4D
:1004500003990298098908232A4605F0E0F9044621
:1004600000B1FEE7029805F0D9F902F08BFE01F029
:1004700067F901F097FE2B6883F3088884F31488EA
:10048000BFF36F8FBFF36F8F6B6898470B484521A1
:1004900005F0B7F9FEE700BF000001403546526E97
:1004A000C665000058010020DF65000002660000FC
:1004B00050010020316600004F66000074660000A5
:1004C00021B1012906D06FF015007047044B53F895
:1004D00030007047024B03EBC0035868704700BF01
:1004E000B86200002DE9F04FD9B0DDE9638ADFF88A
:1004F000D89138A8D9F800600F4615461C4601F07F
:10050000F3F8B8F1000F07D0BAF1000F04DD52463E
:10051000414638A804F0FAFF3B897A89D7F80CB035
:1005200013449B444FF00008C3453DD838A90CA89C
:1005300005F012F8659B23B120220CA9184605F09E
:1005400054FA0023009339464FF6FF732A4606A853
:1005500003F0BBFE074620BB28460B9C00F07CF94D
:1005600084421ED8DFF864B1DFF864A14FF0FF3495
:100570000DF1120304AA05A906A803F0F4FE002851
:100580000FDB40F09A80059906A803F038FF10BBF6
:10059000BDF812004F4A4FF6FF7132F8023B8B4212
:1005A00017D1D9F800608BE0629BABEB080A9A4543
:1005B00028BF9A46534622464146284605F02FF961
:1005C0000028EED15246214638A804F09FFFD044BF
:1005D000AAE79842E1D1BDF81230102B17D0222B98
:1005E0004DD0012BC4D1BDF81030202BD9D805999E
:1005F00038AA284605F013F904460028D1D19DF801
:1006000010300293202B19D94FF0FF34B0E7BDF81A
:100610001070202FC5D105993B4638AA284605F011
:10062000FEF80028BDD13A4638A90CA803F021FFF6
:10063000DBF800308342B4D1012799E7DAF80030C3
:10064000DFF894800393039B9C42DDDA1CA801F041
:100650004BF8D8F8042058F8081B12681CA804F0BE
:1006600055FF1CA914A804F077FF029A38A914A812
:1006700005F0ABF900283FF47BAF0134E3E7631CDE
:100680003FF476AFDAF80030A342BDDDBDF810309C
:10069000802B86D8059938AA284605F0C0F800288E
:1006A0007FF47FAFE4B2BDF81030009438AA202167
:1006B0000CA800F013F80646A6E7002F3FF471AF30
:1006C000304659B0BDE8F08F0400002058010020EA
:1006D000C062000098650000C46200002DE9F04788
:1006E00098B016461D469DF88020394BDFF8E4800F
:1006F00053F83210039103EBC20307465B68D8F846
:100700000090186804AA0144302303A804F0B6F846
:10071000002849D1DDE903431C4405AA08AB214662
:1007200003A804F0D3F800283ED1069A072A3BD14B
:100730002949079805F049F9002835D1099A082A6E
:1007400032D126490A9805F040F968BB04AA21462F
:1007500003A804F0A7F838BBDDE903A30AEB030202
:10076000944221D1412B1FD13544302305AA29467B
:1007700004A8049604F082F8A0B9DDE90432134419
:100780009D420FD32A4604A908A803F046FE48B9A3
:100790002A4604A910A803F040FE18B99AF80030C0
:1007A000042B05D0D8F80090484618B0BDE8F08773
:1007B00000F0AEFE08AB0090202239460AF101009D
:1007C00004F041FD0128EDD1054BD3F80090EBE793
:1007D000C462000004000020A066000097660000CC
:1007E00058010020094A0B78400052F820108B4233
:1007F00009D0013052F8202040F25910934218BF1E
:100800004FF0FF30704740F259107047CC62000043
:100810001FB50F4B13F830000C4601F005FB50B923
:100820002068816810236A46103904F0F8FF28B167
:10083000206804F0F3FF4FF0FF3006E00549102276
:10084000684605F0C2F80028F2D104B010BD00BF20
:10085000CC620000B665000013B5044603F010FE3C
:100860006A460146204603F016FD30B10448452192
:1008700004F0C7FF002002B010BD0098FBE700BFE6
:10088000A86600002DE9F0434A4F87B005460020D6
:100890000E463C689046FFF713FE04A9C0B201F073
:1008A000C3FA00284ED13146FFF70AFE2C2405A9D1
:1008B000C0B204FB065401F0B7FA48B32C217143CF
:1008C00005EB010C049ADCF81030D8063ED50499EB
:1008D0009EB3284603F0C5FE98F80730042B27D1B5
:1008E00000210846FFF7ECFD05A9C0B201F09CFA13
:1008F00018BB0599284603F0B4FE0446059804F099
:100900008DFFD4B92C482246492104F07AFF14E027
:10091000059804F0CDFF8146059804F07FFF631E23
:10092000E21C13F8011F4945C8D19A42F9D1CEE71C
:10093000002003F00FFB0428D2D0204B1C68049841
:1009400004F06CFF204607B0BDE8F08368581C49EE
:1009500088422AD1DCF80C10BCF80800401824D2D8
:10096000BCF80A10091820D2906881421DD240F6C6
:100970000C610B4019D1CDE9023301934FF4807320
:10098000009321460F4B2846FFF7ACFD04460E4B63
:100990001B68A342D3D056B104980021826804F0AA
:1009A00068FF0A4A0A484521AFE73C68EFE7094A71
:1009B000F8E700BF04000020F566000000000020FA
:1009C0003DB8F396900D002058010020EB66000022
:1009D00034670000E36600007FB50D460446002141
:1009E0002846CDE9021103F0FBFD28B32368194E18
:1009F000B34203D103AA204603F06AFDE36AB3427F
:100A000004D102AA0121204603F062FDDDE9023291
:100A1000934288BF0393039BAB60039A2946204609
:100A200000F0B2FB0C4B1A68002A03DD0B4857217B
:100A300004F0E7FE04B070BD01A9FFF7E9FE0198DC
:100A400005F1080103F027FDAB680198039304F05A
:100A5000E5FEE2E73DB8F396EC0C00205C67000091
:100A60002DE9F84FDFF870B01C4C1D4D88469146BB
:100A70009A4600260B9B9E4201D300200FE00B9B61
:100A8000154A9F1BB7F5806F28BF4FF480673B4620
:100A900006EB0A01404604F0C2FE10B10120BDE899
:100AA000F88F0A993B465A467118484604F0CCFE26
:100AB0000028F3D1C4F800563E44C4F80456C4F8E4
:100AC0000856C4F80C56C4F81056C4F81456C4F8A6
:100AD0001856C4F81C56CDE75C0100200000014008
:100AE0003546526EF0B59B4B43620E4603F5667376
:100AF0000021036589B004460846FFF7E1FC04F1D4
:100B000020010546C0B201F08FF90346E8B9012182
:100B1000FFF7D6FC04F14C010546C0B201F084F9A0
:100B20000346E0B9204603F031FD0546C8B900226E
:100B30001146204603F014FD054660B386480022A6
:100B4000572104F05EFE01239EE00022CDE9002340
:100B5000824800232A46452104F053FEFEE7012285
:100B6000F4E77F487322572104F04BFE01239D4296
:100B700084F85830DBD194F858308DF81730042BB6
:100B800000F28580012B00F2898000F09C80FF2319
:100B900084F8583097E0204600F000FA0028D2D0C0
:100BA00004A803F014FD0146204603F0AFFD18B180
:100BB0006C482A465721C4E704A803F011FD80F0D1
:100BC000010104AAC9B2204603F0CAFC024600286B
:100BD000B4D104A803F004FD054660BB04A9204677
:100BE000FFF7FAFE9DF8173084F85830033B012BCD
:100BF00006D8284600F0E6F810B1FF2384F85830F4
:100C00009DF81730023B022B0BD8002000F0C4F8EF
:100C100038B1FF2384F858305348452104F0F1FDE2
:100C2000FEE794F85830FF2BF6D0002211462046FC
:100C300003F096FC87E79DF81770012F18D1104636
:100C400003F088F9831E022B05460ED804AA394604
:100C50002046FFF717FE454B1B68984205D0444BD2
:100C60001D68A84214BF0525012584F8585082E765
:100C7000012104AA2046FFF705FE3C4B1B68984261
:100C80000CBF9DF81730052384F8583073E7052B07
:100C90007FF47DAF002000F095F811E004A9204614
:100CA000FFF79AFE94F85830DA1E012A14D8002073
:100CB00000F088F800287FF46AAF002000F06CF89C
:100CC00000287FF464AF94F85830FF2B07D12648F2
:100CD000452104F096FDFEE7022BF4D1EDE700225A
:100CE000012B244D039214D01146204603F038FC0A
:100CF00078B12D68102200210DEB020004F080FE77
:100D0000E06C04F08BFD206A04F088FD284609B0F1
:100D1000F0BD002211462046FFF7B4FD134F3B689B
:100D20009842E6D12B689842E3D0114B1B68984259
:100D3000DFD0039B01330393039B012B00D0FEE71D
:100D4000206A03F0A6FA3071236A5B6834603D685C
:100D5000B360CFE75C0500201A6800008B670000D5
:100D6000D867000046680000706800005801002045
:100D7000000000200400002038B5064D0446602223
:100D80000021284604F03CFE21462846FFF7AAFE33
:100D900038BD00BF8C0C002013B5094B01A913F816
:100DA000300001F041F848B9019805F0DAF804463E
:100DB000019804F033FD204602B010BD0124FAE78B
:100DC000D46200001FB50F4B01A913F8300001F0E9
:100DD0002BF8A8B9019802A903F066F8044668B98F
:100DE0009DF80B30032B03D1019805F088F80446D9
:100DF000019804F013FD204604B010BD0124F7E76C
:100E00000124F8E7D46200002DE9F34106460C46C0
:100E100017461D460BB9002628E0184603F0E0FBF4
:100E20000028F8D16946FFF7F3FC009838B901248F
:100E3000009804F0F3FC204602B0BDE8F08101A95F
:100E400003F029FB0028F2D1009804F0E7FC3046BB
:100E5000019903F0A9FC736A5E686B79012B21D1BB
:100E6000002CD8D12B68834298BF00262146002051
:100E7000FFF726FB6946C0B200F0D6FF0028D6D1A6
:100E8000009820233A46314604F0C9FC0446002865
:100E9000CDD1002DCCD03C680D4BE41A18BF4FF0DB
:100EA000FF34C5E7022BB6D12B68012B05D983424D
:100EB000B1D8B4FA84F46409ADE7ACD1002CD5D034
:100EC000012CA8D12C79023C18BF0124A3E700BF54
:100ED0003DB8F3962DE9F04F074685B00C46014624
:100EE00000201646FFF77EFC051E50DB3846E46DF9
:100EF00003F0C6FA5FFA84F96B1E09FB03084FF092
:100F0000000A4FF0010B4FF0FF349DB9BAF1010F09
:100F100003DD2148452104F074FC631C06D0722CCB
:100F20002ADC013440F201133460B380284605B056
:100F3000BDE8F08F6B1E00930DF10F0201234146B7
:100F4000384604F06CFC031E019322DB01220DF1F4
:100F50000F01384604F06EFF019B40B15B4501D0A4
:100F60000AF1010A009DA8EB09089B46CDE7B4F100
:100F7000FF3F08BF2C46F5E70223733C73716310F3
:100F800004F001040133013433603471CEE70725E6
:100F9000CCE70125CAE700BF7C680000F8B5866A87
:100FA000456D044603F0EFFBAE420AD06B1CB34222
:100FB00007D0834205D01748572104F022FC0020B7
:100FC000F8BD732E19D914485721F6E7626A02EB6F
:100FD000C3025768226D02EBC3025268974202D0E7
:100FE0000E485721E9E701339D42EFD1204604F036
:100FF00013FB28B90A485721DFE700231F46F3E710
:10100000AE4205D9636A03EBC5035B68BB42E7D117
:101010000120D5E79F680000D7680000066900003E
:101020003269000000B589B004A9012004F074FF02
:101030009DF81020012A41D0254B2649032A08BFDC
:101040000B469DF8132002929DF8122001929DF804
:101050001120214800924921204A04F0D2FB06A920
:10106000022004F059FF9DF81820012A28D0184BBF
:101070001849032A08BF0B469DF81B2002929DF8D1
:101080001A2001929DF8192000921348144A492110
:1010900004F0B7FB9DF81030012B13D19DF81230EE
:1010A000032B0FD19DF81830012B0BD00D4849218F
:1010B00004F0A7FB022009B05DF804FB0A4BC0E76F
:1010C000094BD9E70948492104F09BFB0020F2E7CE
:1010D0006B69000074690000886900007A6900008B
:1010E000C9690000D96900006F690000F869000053
:1010F00070B54B6814461E4A03F0FF23934286B036
:1011000006460D462FD10B68012B2CD104A9204691
:1011100002F0CAFE9DF81020012A26D0154B164970
:10112000032A08BF0B469DF8132002929DF8122057
:1011300001929DF8112000921048114A492104F0B3
:1011400060FB9DF81030032B0DD12146304603F093
:1011500088FA204604F0D3FEA968204603F0A9F9D6
:10116000204602F081FE06B070BD064BDBE700BFF3
:10117000000100046B6900007469000088690000C8
:10118000C96900006F6900002DE9F04F164689B06B
:1011900005460C467448492104F033FB3146284685
:1011A00003F002FB6B6A824620465E6803F018FA81
:1011B000E8B1E86D03F05FF9AF6A0023013F334403
:1011C000984201D9013FFAE7BA4510D36748572141
:1011D00004F017FB07FB06F365480AFB066257217C
:1011E00004F00FFB0123E37109B0BDE8F08F06A9FD
:1011F000012000F019FE07A9022000F015FE079A51
:1012000021462846FFF774FF6379012B4BD1DFF8A5
:1012100064B1574641E02268C2F1010353449F4242
:101220003AD86B6A196853F8370003EBC703012AF1
:1012300053F8083CA3EB0103A0EB0109049311D17F
:10124000079B0393E368022B08D04146284603F02E
:1012500008FA22464146284603F039FA03992846FF
:1012600003F0FFF932464946404603F0F8F9049B83
:1012700042464146CDE900962846FFF7F1FB21465C
:10128000284603F0BAF923680133236020B1DBF864
:1012900000300133CBF80030013FDDF81880002F1B
:1012A000B9D101232360022363710127BA45DDF818
:1012B000189006D2484604F0B1FA079804F0AEFA46
:1012C00092E723689F424DD36A6ADDF81CB052F85A
:1012D00037100491FB00083B11680391D1582A6D27
:1012E000D0581368A0EB03082379012B38D1039B56
:1012F0003246C91A4846059103F0B1F905990091A3
:1013000043464A46594601962846FFF7A9FB21461F
:10131000284603F072F90223237118B1154A1368A5
:101320000133136032464146584603F098F9DDE92F
:10133000032349469B1ACDE900865A462846FFF703
:101340008FFB2146284603F058F9236801332360B8
:101350000123237130B1074A13680133136001E0A0
:10136000022BDFD00137A1E70F6A0000386A0000C6
:10137000676A0000EC0C00200A4619B1024B0021FC
:101380001B681847704700BF08000020F0B508220E
:1013900089B003F0D7FBCB6A03930B6B04934B6BC1
:1013A00005938B6B0693CB6B079313466A460C46EB
:1013B0000646002711461046CDE90177009703F055
:1013C000CFFA31460546304603F0CAFA216B039145
:1013D000616B0491A16B0591E16B0544CDE90617A2
:1013E0001046114603F0BCFA31460544304603F07E
:1013F000B7FA0544206A0090606A0190A06A0290E2
:10140000A06B0690E06B07903046CDE90477039718
:1014100003F0A6FA0544606A0090A06AD4F838C0C8
:101420000190E06A0290CDF810C0606BD4F83CC027
:101430000390CDE905C0206A0790304603F090FA8A
:101440000544E06A0090206B0190606B0290206A76
:101450000690A06A07903046CDE90477039703F021
:10146000A4FB236B0093636B0193A36B0293E36B69
:101470000393636A0693E36A07932D1A08233046A1
:1014800003F093FB636B0093A36B0193E36B0293F5
:10149000236A0393636A0493A36ACDE90537236B38
:1014A00007932D1A0823304603F07FFBA36B0093AC
:1014B000E36BCDE90137636A0393A36A0493E36A9C
:1014C0000593636B07932D1A0823304603F06DFBD9
:1014D0002D1A10D40D4C35B908223146204603F0A0
:1014E0003DFB01280FD0082322463146304603F049
:1014F0005CFB2D1AEFE7054A08233146304603F01E
:101500002FFA2D18F8D409B0F0BD00BFE06200003A
:1015100000487047DC6200002DE9F04F9DB0036881
:1015200002934368039383680493C3680593036934
:1015300006934369079383690893C3690993DDE9B7
:10154000062CDDE904BEDDE902469846DFF890A1ED
:10155000089B00930027CD595AF8049B0CAB2DBA79
:10156000DD514FEAF223A94483EAB213009D83EAD6
:1015700072634B4425EA020502EA0C0985EA090573
:101580002B44434486EA0B054FEA743888EAB408D2
:10159000254006EA0B0985EA090588EAB4580437AC
:1015A000A844402F03EB0E054344DE46DDF80080DF
:1015B00040F087804B490A914FF0100A51460AF1DA
:1015C000010A0DF1700E0AF00F070EEB870701F00C
:1015D0000F0957F8407C01974FEAB74888EAF71897
:1015E00001F10E0707F00F070EEB8707093157F8D7
:1015F000407C4FEAF74E8EEA774ECDF82CE001F0B2
:101600000F010DF1700E0EEB81010EEB890951F8FF
:10161000401C59F840EC7144DDF804E088EADE082B
:10162000DDF82CE041448EEA972E714405EA020869
:101630004FEAF52E2CEA050787EA08078EEAB51E61
:10164000DDF8288049F8401C8EEA756E774458F81A
:1016500004EFCDF8288077440F440099CDF800C0FE
:1016600039444FEA733E84EA06078EEAB30E1F4000
:1016700004EA06088EEAB35E87EA08077744BAF1FF
:10168000400F01EB0B0E0F44B34622D102993944AF
:10169000016003991944049B416023448360059BC6
:1016A0003344C360069B73440361079B2B4443612F
:1016B000089B13448361099B6344C3611DB0BDE86B
:1016C000F08FCDF800C0B346944626462A461C4605
:1016D00041E7944626462A461C4675463B466DE73A
:1016E0008C630000C863000010B50446C8B17022C6
:1016F000002103F08FFF0B4B0B4A0C490C48C4E947
:1017000000230C4BC4E902130B4BC4E904030B4B3D
:10171000A36103F17453A3F52303A3F69243E3619A
:10172000012010BD85AE67BB67E6096A72F36E3CA7
:101730007F520E513AF54FA58C68059BABD9831F9C
:10174000BFF36F8F72B6124B4FF0FF32C3F8802099
:10175000C3F88420C3F88820C3F88C20C3F89020F5
:10176000C3F89420C3F89820C3F89C20C3F88021C4
:10177000C3F88421C3F88821C3F88C21C3F89021D1
:10178000C3F89421C3F89821C3F89C21704700BF87
:1017900000E100E0014B1B68184700BF0C0000206F
:1017A00007B50B46002102460091034800F006F8F9
:1017B00003B05DF804FB00BF951700002DE9F04F62
:1017C0008DB01D46531E8246019103934FF00009D0
:1017D000039B5878252803F1010419D11E460020E7
:1017E0004FF0FF38023603460290444631780396A4
:1017F000392954D81F2914D8002900F0EE81019905
:101800002520D04701993078D04709F10209DFE758
:10181000002800F0E2810199D04709F10109039401
:10182000D6E7A1F12002192AE9D801A757F822F03A
:1018300099180000FF170000FF170000991800001A
:10184000FF17000019190000FF170000FF17000024
:10185000FF170000FF17000065190000991800002D
:10186000FF1700007919000025190000FF1700007C
:1018700033190000531900005319000053190000D8
:1018800053190000531900005319000053190000A8
:10189000531900005319000008460136A6E75829DD
:1018A00000F0EB80A1F16302D7B2172FA7D8172A57
:1018B000A5D801A757F822F0211B00009F190000AE
:1018C000FF170000FF170000FF1700007F1900003E
:1018D0009F190000FF170000FF1700007F1900008C
:1018E000FF170000FF170000FF170000551A000047
:1018F000FF170000FF170000F51A0000FF17000097
:101900009F190000FF170000FF170000551A000084
:10191000FF1700007F19000001992520D04709F129
:10192000010955E7029A02F0FE0202924FF0000808
:10193000B3E7002C0DDAB8F1000F0DDA029A002A95
:1019400000F0438124EAE4740A2202FB0414303CD0
:10195000A3E7B8F1000FF5DB0A2202FB0812A2F19F
:1019600030089AE7B8F1000F55F8042B80F22F8168
:10197000002A80F22E815442022202928DE76829C9
:1019800003D1682B06D1482387E76C2902D16C2B41
:1019900000F02181002B7FF432AF0B467DE77A2BDC
:1019A00006D1752955F8046B14D14FF0000B0CE0EB
:1019B0006C2BF6D04C2BF4D1073525F00703752995
:1019C000D3E9006B03F1080506D120283BD1854FF0
:1019D000013C09E04FEAE67BBBF1000FF5DA764205
:1019E000814F6BEB4B0B013C0DF12D030593002355
:1019F0000493304659460A220023FEF781FB059BDB
:101A0000303203F8012DB4460593049B5A46BCF1CD
:101A10000A0F8B4672F1000203F1FF310646049172
:101A2000E7D2C3F1010B30330DEB0306B8F1000F21
:101A3000A6F104066DDA029BD9077DD4A8EB0B034F
:101A4000A4EB0B0413E02B280ABF684F684F04F186
:101A5000FF34C9E770290FD155F8042B0023FAB9D8
:101A6000634F644E053C6FF004034FF0050B029A80
:101A7000920770D4A04666E078216C2B03D155F80C
:101A8000042B002308E04C2BF9D1073525F0070380
:101A90001D465B6855F8082B232825D1880621D5DB
:101AA000554F023C01F06001A1F1390B0DF12D0EF3
:101AB000002602F00F01092988BF594430310EF881
:101AC000011D102A4FEA121141EA03714FEA131C5B
:101AD00073F1000306F1FF3008D2C6F1010B06F1E5
:101AE0003003A1E7454FDCE7414FDBE706460A46F6
:101AF0006346DEE755F8046B304603F05FFFB8F14C
:101B0000000F834602DB4045A8BFC346384F4FF065
:101B10000008A8EB0B03002B92DDA4EB0804A6E75A
:101B200055F8043B8DF81830314F013C4FF0FF332E
:101B30004FF0010B06AE9AE7A046EAE7029301993F
:101B40002020D047029BB8F10108F7D524EAE472BF
:101B5000013C9144A41AB84606E00493029201990C
:101B6000D047029A049B9046424612F8010B002887
:101B7000F3D11A46013A15D5002BACBFC7EB0307CA
:101B80007F425B46013B15D5BBF1000FA8BF5F4408
:101B90004F442646013E14D5002CA8BF3F1907EB41
:101BA000080915E60493029201993020D047049B5E
:101BB000029ADFE70293019916F8010BD047029BC6
:101BC000E0E701992020D047E4E70122D5E69046DE
:101BD00063E6144661E64C235FE648460DB0BDE877
:101BE000F08F00BFF56A0000F36A0000F76A00009A
:101BF0007B680000FF6A0000F96A0000FC6A0000D0
:101C00002DE9F047058B04462807904611D4022998
:101C100005F0070540F0CC80204603F01AFD78B1AE
:101C20000138218B042811D8DFE800F0C2106D853F
:101C3000950001290CBF45F0100545F020052583CE
:101C400088F31188BFF36F8FBDE8F08701F0070AB2
:101C5000AA4500F0A5800027B9463E46A368002BA0
:101C600000F0BC8041F00801218388F31188BFF3A4
:101C70006F8FA168002900F0BA800D68002900F07C
:101C8000B680D1F80480334652462046C047002D26
:101C900076D02B6829461D46F0E701F007035A1F4E
:101CA000012A1BD8002221F00701062B276889B2E0
:101CB000C4E9002209D13B4603E0628B0132628312
:101CC0001B68002BF9D141F002012183204603F06B
:101CD000C0FC00287AD041F0200176E0042B0AD124
:101CE00021F0070189B22183204603F0B2FC10B134
:101CF00041F020012183218B01F0070AAA454FD032
:101D00000027B946AAE7236921F0070141F006013F
:101D1000062DD3F8009021832DD1B9F1000F3FD0CB
:101D200041F00801218388F31188BFF36F8F3A498E
:101D30002046C84729E021F00701236941F004014A
:101D400089B2042DD3F804902183E6D000273E46C3
:101D50004FF0040A82E721F00701236941F00501F1
:101D600089B2052DD3F808902183D6D000273E46AE
:101D70004FF0050A72E700273E464FF0060A6DE76E
:101D80002B4687E7B9F1000FD1D1EFF3118820235B
:101D900083F31288BFF36F8F238B23F00803238311
:101DA000258BEA062ED525F01003238305F00705C1
:101DB0006669218B002EBFF670AF00232768C4E947
:101DC000003321F0070141F001012183218B01F053
:101DD000070AAA454FF000097FF440AF002F9CD0BE
:101DE00041F00801218388F31188BFF36F8F002F22
:101DF000C8D03D68394633465246204603F055FC6C
:101E00002F46F4E7AB067FF51BAF25F020032383B5
:101E100005F0070500E700BFD7560000014B03603F
:101E2000002070479064000070B5104B1C680D4690
:101E3000B4B10F4B196800238B4202DB6FF0010035
:101E400070BD224612F8106B864202D00133144650
:101E5000F2E7E06804F092F828B12C600020EFE788
:101E60006FF00C00ECE76FF01200E9E710000020C3
:101E70009064000010B588B0436802938368C0681E
:101E8000CDE903320A680023CDE906230C4601AAF6
:101E90000449059303F06CFE079808B9059B23607D
:101EA00008B010BDBF58000008B5044803F0C4FBDB
:101EB000BDE80840024803F0BFBB00BF056B00004F
:101EC0002B6B000030BFFFF7FDBF00BF70B5264B86
:101ED00015469A6A12F0100F9A6A14BF1124102442
:101EE00012F0080F9A6A18BF1224920706460AD504
:101EF000586B9A6A140634D519B19A6A22F0800296
:101F00009A62132401E06FF01500174B9A6A12F0E1
:101F1000010F9A6A18BF142412F0200F9A6A18BF92
:101F20001524D20602D49B6A9B070AD50E4B5B6828
:101F3000190506D5314600F0C5F910B180F30988BE
:101F40000224094B9A6A920642BF5A6A22F400524E
:101F50005A629A6A42F0FF029A6200232B7020466E
:101F600070BD6FF01500CCE700ED00E0134B9A6AEE
:101F700012F0007F9A6A14BF1E201D2012F0807F8D
:101F80009A6A18BF1F2012F4002F9A6A18BF2120E6
:101F900012F4802F9A6A18BF222012F4003F9A6A26
:101FA00018BF232012F4803F9A6A6FEA02426FEA58
:101FB00012429A6218BF2420704700BF00ED00E073
:101FC00010B5194B0246986A9C6A10F4805F14BFE2
:101FD0001720162014F4006F9C6A18BF1820A4055F
:101FE00009D5986B986A000404D51AB19A6A22F44C
:101FF00000429A6219200C4B9A6A12F4806F9A6A16
:1020000018BF1A20D2050CD49B6A13F4005F18BFC6
:102010001C20054A936A43F47F43936200230B70AC
:1020200010BD1B20F5E700BF00ED00E070B5454B8B
:102030005B688AB00546C3F30803002686F311885F
:10204000BFF36F8F02F07F40B0F17F4F11D102F0EC
:102050000C0008280DD010074CBF0D4601260022A9
:10206000033B8DF80720032B05D8DFE803F01E5D46
:10207000615A3546F3E700249DF807309BB92022CA
:10208000294602A803F0B1FC099B002E54D0C3F3EB
:10209000080222B96FEA53236FEA4323099302A986
:1020A000204603F047FC0AB070BD264BDA6A910760
:1020B000E1D4DA6A002ADEDBDA6A5200DBD55A693B
:1020C000A96942F480725A61BFF34F8FBFF36F8FDB
:1020D0005A6931F8021C22F480725A61BFF34F8FA3
:1020E000BFF36F8F4DF6027291420AD09A6AD2B254
:1020F0004AB10DF1070201212846FFF7E7FE044629
:10210000BAE72C68B8E79A6A12F47F4F05D00DF150
:1021100007010120FFF754FFF1E79B6AB3F5803F09
:10212000A9D3FFF723FFEAE70DF107020021E3E758
:102130000DF107010020EDE723F4FF7323F0010305
:10214000ACE700BF00ED00E0044B5A6942F010021A
:102150005A615A6922F008025A61704700ED00E0A6
:10216000EFF30880EFF3098101B57246FFF75EFFD8
:1021700001BD00BF01F030F8202080F3118808482D
:102180004FF40461401880F30988EFF314800221B2
:10219000084380F31488BFF36F8F00F06FF80000DE
:1021A000C00E00200749D1F890200023C2F3072277
:1021B0001846934200DB7047C1F89830C1F8A00080
:1021C0000133F6E700ED00E01EF0040F0CBFEFF363
:1021D0000880EFF30980816911F8021C0229FFD001
:1021E00001B5724603F0ACFB01BD00BF40B2002850
:1021F00007DB044A4109012300F01F00834042F835
:102200002130704700E100E040B200280CDB4309B8
:10221000064900F01F0020330122824041F82320AC
:10222000BFF34F8FBFF36F8F704700BF00E100E037
:10223000054B420900F01F0053F82220012303FA46
:1022400000F01040704700BF00E100E040B20028FD
:10225000A8BF00F1604001F10101B8BF064B4FEA91
:102260004111ACBF00F5614000F00F00C9B2B4BF2E
:10227000195480F80013704714ED00E00F4A08B5B8
:102280000F4B22F07F029A60BFF34F8FBFF36F8F27
:10229000D3F8882022F47002C3F88820EFF3148367
:1022A00023F0040383F31488BFF36F8F01F002FF60
:1022B00001F048FF00F03AF801F008FF00000000CC
:1022C00000ED00E010F1160F074B08D0984208D33C
:1022D0004033834205D98B4203D9044870474033C9
:1022E000F9E70020704700BF0017002040170020CA
:1022F00080B50C4607461546064E86F30988002031
:1023000005498847204629461A46B847034880476A
:10231000FEE700BF403F0020615900006F590000F8
:10232000014B10221A61704700ED00E004480023C1
:102330002021C2180133302B82F80013F9D17047E5
:1023400000E100E008B5EFF30583064A103B02EB1D
:10235000C30152F8330049688847BDE8084003F0DC
:10236000FABA00BFC8600000024B034A03480221CA
:1023700000F066B80000042000000020E4640000C3
:10238000084AC2F898000B6823F01F03034343F088
:102390001003C2F89C308B6843F00103C2F8A030F0
:1023A000704700BF00ED00E02DE9F043DFF86080EA
:1023B00085B00E461F4604464FF00009B14523DAAA
:1023C0006068D8B13FB1411E08421BD11F2819D9FE
:1023D0002368194216D12368019303F0DFFAA3683A
:1023E00003430393D8F89050C5F30725D0B2013DBD
:1023F000A84207D801A9FFF7C3FF421C09F1010950
:102400000C34DBE76FF01502104605B0BDE8F08331
:1024100000ED00E0044B0522C3F89420BFF34F8F7A
:10242000BFF36F8F704700BF00ED00E0BFF35F8F19
:10243000024B0022C3F89420704700BF00ED00E07B
:1024400010B5034C01232278FFF7AEFF207010BDBA
:10245000900E00202DE9F043534B544CD3F89030AC
:102460002568C3F307239D4285B000F29A80FFF7E9
:10247000DDFF00200C2685421AD14D4C4D4F2570B2
:102480006846FFF7CBFCDFF82081DFF82C91064689
:102490000025AE4213D1237843490020D1F8902083
:1024A000C2F30722934276DBFFF7B4FF002042E03D
:1024B000616806FB0011FFF763FF0130DBE700985E
:1024C00000EB05114FEA051CCB683B40B3F5000F4C
:1024D00048D00AD8B3F5001F30D0B3F5800F36D0FE
:1024E000B3F5801F10D00135D3E7B3F1807F42D020
:1024F000B3F1007FF7D150F80C3088684A6803F0D8
:102500004DFA40F4802009E050F80C3088684A68A1
:1025100003F044FA40F0885040F43020CDE9012324
:102520000390D8F890302078C3F30723013B9842FA
:102530002AD96FF0150005B0BDE8F08350F80C30D3
:1025400088684A6803F02AFA40EA0900E6E750F88A
:102550000C3088684A6803F021FA40F0007040F4BB
:102560000030DBE750F80C3088684A6803F016FA50
:1025700040F08270D2E750F80C3088684A6803F067
:102580000DFA40F08870C9E701A9FFF7F9FE23783A
:1025900001332370A7E7C1F89830C1F8A0000133D8
:1025A0007CE74FF0FF30C6E700ED00E0FC64000080
:1025B000900E00200000F0FF000008110D4A0123DA
:1025C000C2F840354FF08052D2F8301108290AD1B4
:1025D000D2F83421052A06D807498A5C1AB14FF08F
:1025E0008042C2F838364FF080430122C3F880257C
:1025F0000020704700E00140606B000020B1034BF9
:10260000800143F001031847704700BFB06200002B
:10261000084B70B5C31A0D4607499B100446594331
:102620000648402203F0FEF92B4601462046BDE84D
:1026300070401847040D0020B76DDBB678600000CD
:1026400073B50C4C0C4A4023041B00930D460B46FB
:102650000A49A41061430646094803F00EFA011E18
:1026600005DA30462B4602B0BDE87040184702B08C
:1026700070BD00BF040D0020E95A0000B76DDBB645
:102680007860000010B5EFF31184202383F31288E3
:10269000BFF36F8F074A136823F00201DB07116055
:1026A00002D4012003F022FB84F31188BFF36F8F63
:1026B00010BD00BF540D0020002270B5012104465A
:1026C0001046FFF7C3FD0F4800F0D6FE0E4B9842B0
:1026D00015D100F0E3FE26690C49304603F008F8F6
:1026E00000280BDB012535642469084904F11C002E
:1026F00002F0FEFF002801DBE564002070BD6FF0F2
:102700000400FBE7D52700000000AD0B1C650000AE
:1027100030B4104B0C2202FB003301460020D3E9F9
:102720000E529863EFF31180202484F31288BFF3D4
:102730006F8F1C6C04F0C00444F002041C6480F32E
:102740001188BFF36F8F1DB12B46034830BC18476B
:1027500030BC7047040D00207860000010B4EFF327
:102760001182202383F31288BFF36F8F174801680B
:1027700041F002040460C80707D482F31188BFF354
:102780006F8F012010BC00F09BBE4FF08041D1F84C
:102790000C04D1F80C14C907EFD5EFF3118083F3C3
:1027A0001288BFF36F8F0A490B6C03F0C00343F02C
:1027B00002030B6480F31188BFF36F8F82F31188DB
:1027C000BFF36F8F002010BCFFF7A2BF540D002095
:1027D000040D002010B1012804D07047034B1B6C7E
:1027E0005B0701D1FFF794BF704700BF040D0020C5
:1027F000F8B52549BFF35B8F0646012251E8003F3B
:1028000041E800200028F9D1BFF35B8F33B91F499D
:102810001F484B60CB608A6002F07DFF731E012B66
:102820001DD803F0EDFB0446D0B91A4B1B78BBB1A1
:102830004FF080430222C3F8082305464FF080473B
:10284000D7F81824D7F81834D20312D59B0701D033
:10285000012E0ED18CB185F31188BFF36F8FF8BDB7
:10286000EFF31185202383F31288BFF36F8F0124C8
:10287000E4E7284603F083F8E2E74FF080430222C2
:10288000C3F80423EBE700BF000D0020F00C00208C
:10289000200D0020920E0020024B0B6001231360DC
:1028A000704700BF580D0020004870474065000089
:1028B00010B503F0A7FA034C206003F09FFA6060A4
:1028C000002010BD580D00204FF08042D2F81015A6
:1028D000D2F8103501F01E0123F01F030B4343F023
:1028E0000103C2F81035024B00221A70704700BF76
:1028F000910E00204FF08053D3F83031082B20D1B7
:102900004FF08042D2F81015CB071AD5D2F8103507
:1029100001F01E0123F01F030B43C2F81035D2F85B
:1029200008315BB1D2F8103523F01F030B4343F09D
:102930000103C2F810356FF08B007047024B012283
:102940001A700020704700BF910E00202DE9F04161
:102950000D46164603F052FA31460746284603F064
:102960003CF928B3B5FBF7F307FB135303BBB6FBE6
:10297000F7F407FB1464DCB9B74213D803F03EFA4E
:10298000DFF834800746FFF7B5FF044668B92846EC
:1029900001F03CFA98F800300BB1FFF795FFF61BF9
:1029A0003D44F0D12046BDE8F0816FF08B04F9E79B
:1029B0006FF01504F6E700BF910E00202DE9F843F3
:1029C0000E463046194617461C4603F006F930B34A
:1029D00044EA060515F0030521D11CB3DFF8489041
:1029E0006319032BA6EB050807D8104AD2F8003468
:1029F000DB07FBD50020BDE8F883FFF77BFF58B964
:102A00007B1B4046196801F021FA99F800300BB1A0
:102A1000FFF75AFF043DE3E76FF08B00EBE76FF041
:102A20001500E8E72046E6E7910E002000E00140AF
:102A3000F0B54068057B01F01F0444EA45140569C0
:102A400087B0002D64D0B2F5001F00F1100506D14B
:102A50002146284603F0CAF9002007B0F0BD01AEB8
:102A60000027B2F5800F0197776039D1B3F1007F6D
:102A700014BF052304238DF804300023CDE904633B
:102A80000393836823FA01F111F001011AD1B2F125
:102A9000A07F17D104F01F03620903F5E0732AD069
:102AA000012A3BD11F4A52F82330DB070AD40DF12B
:102AB000030632462146284601F002F81A4B984296
:102AC0001CD0029603AA2146284600F0BBFE174BF5
:102AD000984220D101222146284601F055F8BBE753
:102AE000B3F1C06F05D0B3F1007F14BF01230223FF
:102AF000C1E70323BFE74FF0A042D4E731462846A1
:102B000001F03CF8094B9842DBD06FF00B00A4E7D2
:102B10006FF08500A1E76FF015009EE751F82330B4
:102B2000FFDE00BF000300500400AD0B0000AD0B42
:102B300038B545682B69B3B11035284601F00EF859
:102B4000044680B90146284600F0D4FF084B98425D
:102B50000BD108492246284600F0ACFF2246052149
:102B60000620FFF773FB002038BD6FF00400FBE781
:102B70000000AD0B792B0000420970B5034602D06E
:102B8000012A17D070BD0D4E326951680029F9D065
:102B900003F01F0301250C689D400029F2D08A68CC
:102BA0002A4002D04B68304698472CB12368214612
:102BB0001C46F2E7024EE7E72346F8E7A060000074
:102BC0008C6000002DE9F043466840F20635D006DF
:102BD000337B87B002EA050554BFC2F340100320DF
:102BE00001F01F07B5F5837F144647EA43178DF8B8
:102BF000030045D00FD8062D18D007D8B5B1022D47
:102C000040D06FF0150007B0BDE8F083B5F5807FC8
:102C1000F7D101250AE040F20222954234D0B5F501
:102C2000407F33D0B5F5007FEBD10225012322038D
:102C300003FA01F12CD57368C3F80815326982BB19
:102C400007F01F037F0929D0012F77D13E4A02EBFD
:102C5000830284F48033D2F80017C3F30043C4F333
:102C6000404444EA430421F4E16144EA800421F051
:102C7000070144EA05230B43C2F800370020C2E7EE
:102C80000725D3E70425D1E70525CFE70325CDE7C1
:102C9000630344BF7368C3F80C15CFE74FF0A0423D
:102CA000D5E710360DF102023946304600F008FF34
:102CB00014F4403F80460CD13946304603F094F876
:102CC000224B9845DAD19DF80210304600F050FFB3
:102CD000D4E701AB4FF0000903AA39463046CDE9ED
:102CE0000439CDE90199CDF80C9000F0ABFD174BFC
:102CF000984286D114F4003315D09DF803308DF836
:102D00000E3084F48034C4F300444B4603AA3946A1
:102D100030468DF80C508DF80D4000F04DFE0B4BF9
:102D20009842CDD06DE7CDE9043303AA0DF103033A
:102D300039463046039300F085FDF0E703F5E07374
:102D400052F82330FFDE00BF000300500000AD0B3F
:102D500070B5012383400E4ABFF35B8FDC4352E81A
:102D6000001F01EA040542E80056002EF7D1BFF328
:102D70005B8F4FF4803282400648C0F80823BFF3CF
:102D80005F8FBFF36F8F0B4214BF0120002070BD17
:102D90007C0D00200010014070B40E49D1E90034D0
:102DA000D01AC31844F1000422F07F46C1E9003470
:102DB000A6F50013B3F5400F09D2074B1B681A0A9A
:102DC0001B069C19054B42F10005C3E9004570BC88
:102DD00001F002BAB8000020800D0020C0000020E1
:102DE00011B3BFF35B8F0123104A834052E800CF39
:102DF0004CEA030C42E800C10029F7D1BFF35B8F16
:102E00000B4A4FF480338340C2F80433094BBFF3BD
:102E10005B8F1B68BFF35B8FC340DB0742BF064B72
:102E20004FF40032C3F80021704700BF7C0D002032
:102E300000100140780D002000E100E00D4B186803
:102E4000010A0006BFF35F8F0B4BD3F80435181847
:102E500041F10001B3F5801F0AD2084BD3E90023EA
:102E6000904271EB030303D210F1807041F1000135
:102E7000704700BF800D002000100140C0000020FE
:102E80002DE9F04F85B016461F469DF840A0044638
:102E9000FFF75EFF0190FFF7D1FFB04271EB070330
:102EA00054D23E4B301A67EB0101984271F1000198
:102EB0004FD23B4B03EB0413D3E902239F4208BFDD
:102EC00096425ED037494FF4803804F1500508FA35
:102ED00004F8AD00C1F848832046ADB202F0F7FE19
:102EE00026F07F4B05F1804504F5A87305F588357C
:102EF000DC464FF003090293029A2CF07F4341F81D
:102F00002230C1F84483D1F80435274A6FF002001B
:102F1000C01A604420F07F40904232D9286868B1DE
:102F2000D1F804350393A3EB0B0020F07F40B0F5FC
:102F3000000F26D9204602F0CAFE039BBAF1000F0B
:102F400007D109EB030C09F10109D5E7BAF1000F2C
:102F500009D06FF0150520460199FFF741FF28467B
:102F600005B0BDE8F08F0123104ABFF35B8FA3408B
:102F700052E8000F184342E800010029F8D1BFF3DE
:102F80005B8F07490E98230101EB0412C8500F9B79
:102F90005360C2E902670025DDE700BF0100800041
:102FA000A800002000100140FDFF7F00780D0020E8
:102FB0007FB51C4C1C4BC4F80833C4F848331B4B7A
:102FC00000254FF0FF304FF0FF31C4F80855C3E93A
:102FD00002014FF48033C4F80433154B02264FF43A
:102FE00000320121C4F804631120C3F880212A466D
:102FF000FFF72CF91120FFF7F9F80E4A0123A3601F
:10300000236013600C4B0D4A0093CDE9015500235A
:103010002846FFF735FF3046FFF7EAFB284604B0A5
:1030200070BD00BF0010014003000F00A800002089
:1030300000E100E07C0D0020992D0000FFFF7F00E3
:103040002DE9F7432F4CD4F8043399070BD5D4F866
:10305000043143B12C4A0023C4F80431D4F80431BC
:10306000136801331360D4F80433DA0329D5BFF3AE
:103070005B8F264B53E8002F22F0010143E800103C
:103080000028F7D1BFF35B8FD30702D4D4F84031C7
:10309000BBB10025C4F84051D4F84031FFF7CEFE53
:1030A000EFF31182202383F31288BFF36F8F184B45
:1030B000D3E90267B042B94106D282F31188BFF367
:1030C0006F8F03B0BDE8F0834FF0FF384FF0FF394A
:1030D000C3E90289D3E900101D604FF48033C4F8BE
:1030E0004833C4F84051D4F8403182F31188BFF31B
:1030F0006F8F0029E5D0009032463B46284688472E
:10310000DFE700BF00100140800D0020780D002097
:10311000A800002030B5431C124C85B005D0844275
:10312000A8BF0446012CB8BF0124FFF787FE0E4B51
:103130000C4DD3E90013401AB0F5000F10D222183D
:10314000AA4228BF2A4652184FF0000007490091B2
:10315000CDE9010043F10003FFF792FE05B030BD59
:103160002A46F0E7FFFF7F00B8000020992D0000FD
:1031700008B5FFF763FE024B1B68C01A08BD00BF0D
:10318000B800002010B5084C012363601120FFF740
:103190003BF8064BC4F80833C4F84833044B4FF4EB
:1031A0000032C3F8802110BD0010014003000F0061
:1031B00000E100E04FF08053D3F83021082A06D117
:1031C000D3F83431052B02D8024AD05C7047002076
:1031D000704700BFBD6B000008B54FF08053D3F8B7
:1031E0003021082A4ED14FF080420021C2F80C1144
:1031F000C2F81011C2F8381502F54042D3F8041491
:10320000C2F82015D3F80814C2F82415D3F80C140A
:10321000C2F82815D3F81014C2F82C15D3F81414DA
:10322000C2F83015D3F81814C2F83415D3F81C14AA
:10323000C2F84015D3F82014C2F84415D3F824146A
:10324000C2F84815D3F82814C2F84C15D3F82C143A
:10325000C2F85015D3F83014C2F85415D3F834140A
:10326000C2F86015D3F83814C2F86415D3F83C14CA
:10327000C2F86815D3F84014C2F86C15D3F844347A
:10328000C2F87035FFF796FF18B1234B234AC3F8F5
:103290008C26FFF78FFF18B1214BFB22C3F81825AE
:1032A000FFF788FF70B14FF080414FF08053D1F8A5
:1032B000E42ED3F8583222F00F0203F00F03134329
:1032C000C1F8E43EFFF776FF20B1164B4FF40072D1
:1032D000C3F840264FF08053D3F83031082B1AD171
:1032E0004FF08043D3F80024D20744BF6FF00102AF
:1032F000C3F800244FF08053D3F83431052B02D8A3
:10330000094AD35C3BB14FF01023D3F808224FF0A9
:103310008043C3F8582508BD005000404881030091
:1033200000F0004000900240B76B000030B5046828
:10333000CCB1BFF35B8FB4FA84F3C3F11F03DBB2EC
:1033400001229A4024EA020250E8005FA54204D11B
:1033500040E8002CBCF1000FF6D1BFF35B8FE6D143
:1033600002480B7030BD0248FCE700BF0000AD0B07
:103370000200AD0B10B50368CB40DB0714D401236A
:103380008B400268BFF35B8F43EA020150E8004FB5
:10339000944204D140E8001CBCF1000FF6D1BFF309
:1033A0005B8FEED1014810BD0148FCE70000AD0B7A
:1033B0000400AD0BF7B50546F8B101281BD1042276
:1033C0004FF4807301464FF0804003440244C0F83C
:1033D00008130026012111601E608D421B688DF8C4
:1033E000071008BF0DF1070642F210744FF0804736
:1033F00045B1012D28D003B0F0BD0C224FF48273EB
:103400000221E0E7D7F8183403F480333EB9002BEB
:10341000F1D0012002F068FC013CF3D1EBE7D7F8D2
:10342000182402F003023260002BE4D09DF807005C
:10343000012803D102F058FC013CD9D1012DDAD189
:103440000C4B00225A71D6E7D7F80C3403F48033C2
:103450003EB9002BF4D0012002F046FC013CF3D130
:10346000EEE7D7F80C2402F001023270002BDDD118
:10347000E6E700BF840D0020054B1A792AB99A713E
:10348000012218609A80034870470348704700BFC4
:10349000840D00200000AD0B0C00AD0B08B5074BF0
:1034A0001B682BB10020FEF7C3FE08B9FEF79EFE95
:1034B0004FF080430022C3F8182508BD840D00207A
:1034C00010B510B1012840D010BD4FF08043D3F8A3
:1034D0001814D3F81824CC031ED5900702D000206E
:1034E000FFF768FF4FF080430022C3F81825022041
:1034F00008224FF4827303F180430021196002F126
:1035000080421C6801241460154A12680AB34FF007
:103510008043C3F80403D7E7D3F81424D107E1D5D7
:10352000D3F81C249207DAD10D4A12681AB102228C
:10353000C3F80423C8E7D3F80421002AFBD00022F3
:10354000C3F80421D3F80431BEE700224FF480739E
:10355000D1E71A68002AFCD019601B68B4E700BFE5
:10356000840D002010B54FF08043D3F800216AB1DC
:103570000022C3F80021D3F800210122C3F8082358
:10358000234B587910B95A711B6898474FF0804304
:10359000D3F804215AB10022C3F80421D3F804213E
:1035A0000222C3F808231A4B01201B6898474FF0EA
:1035B0008043D3F810217AB1D3F80423D1060BD578
:1035C0000022C3F81021D3F810211022C3F80823D9
:1035D0000F4B03201B6898474FF08043D3F80C2112
:1035E000A2B1D3F80423120710D50022C3F8342C5B
:1035F000C3F80C21D3F80C110821C3F80813044BAD
:103600009A71BDE810401B680420184710BD00BF28
:10361000840D0020036803F01F025B09026004D0E0
:10362000012B034818BF002070474FF0A04070479F
:1036300000030050034A430900F01F00D35C184404
:10364000C0B27047C36B000070B50546FFF7F2FFCC
:103650000C4C08300E4634F81030DA0508D5C3F3A8
:10366000432304EBC302284654F83330526898478A
:10367000A3682BB1E26831462846BDE87040184780
:1036800070BD00BF1400002008B5FFF7D3FF034B47
:10369000083033F81000400B08BD00BF14000020B4
:1036A00008B5FFF7C7FF034B083033F81000C0F32D
:1036B000400008BD1400002008B5FFF7BBFF034B16
:1036C000083033F81000C0F3401008BD140000208B
:1036D000034611F0010010B5CCB20DD1A207C4F31E
:1036E000400012D5094AD2F820055860C2F82005DA
:1036F000003818BF012008E04FF0A041D1F8202584
:103700001A60C1F82025002AE8D010BD000300503F
:1037100010B5FFF78FFF124A083032F81030D90584
:103720001CD5C3F3432123F4F85322F8103002F1DF
:103730000E04002034F8023F13F4807F03D0C3F35B
:10374000432399420AD001303028F3D1002342F8B4
:1037500031300448BDE81040FFF70CBE10BD00BF7B
:10376000140000208C000020F0B50546002004461F
:10377000012607468C420BD1114BD3F87C2132B184
:103780000022C3F87C21D3F87C3140F00040F0BD2A
:10379000E3B29B0003F580729B0806FA03F31D4217
:1037A0000BD002F1804202F5C042D2F800C0BCF159
:1037B000000F02D01760126818430134DAE700BF27
:1037C00000600040F7B506460846FFF733FF194F83
:1037D00000F108050C4637F81530DB0727D53046D1
:1037E00002F0DEFA2046FFF767FF40B12046FFF700
:1037F0004BFF316800F5A270002341F820302046CD
:10380000FFF786FF002301A827F815300194FFF782
:1038100001FF019B00EB8300074BD0F8002713400A
:1038200043F00203C0F80037044803B0F0BD044879
:10383000FBE700BF14000020F0F8FCFF0000AD0B18
:103840000400AD0B2DE9FF41164680460846FFF700
:10385000F1FE0D463168044609B32846FFF720FF04
:1038600018B12846FFF728FF10BB0023CDE900332D
:103870008DF80E308DF80F300DF10F020B462846F3
:103880000DF10E0102F034FA474A04F1080132F852
:10389000113023F0020343F0010322F81130736862
:1038A00063B328461F785968FFF7FAFE10B1D1B10B
:1038B0003E4826E03C4A04F1080032F8103023F07C
:1038C0002003DB04DB0C22F8103061B1032FEFD8AA
:1038D0007168496891F800C0D8F80010A7B90CF5D4
:1038E000A27C41F82C70304A04F1080132F8113002
:1038F00023F01C0343EA870322F81130B3684BBB63
:103900002B4804B0BDE8F08101EB8C0143EA4C3355
:10391000D1F810E52EF0030EC1F810E5D8F800102C
:1039200001EB8C0E43F02003DEF8101522F8103066
:1039300021F44F3121F44071CEF810152902DEF840
:10394000108501F47C5141EA074141EA0801CEF8B3
:103950001015C8E7D3E900672846FFF7D9FE002E07
:10396000CED0114DD5E90023964203D19F4201D11B
:10397000002209E00F480DF10F01FFF7D7FC0C4BB7
:103980009842BED19DF80F2045F8326005EBC20386
:1039900008345F6035F8143043EA422343F48073FF
:1039A00025F81430ACE700BF140000200400AD0B74
:1039B0000000AD0B8C0000202DE9F0430C4685B0D3
:1039C0008046204611461E46FFF734FE054629B3C1
:1039D0002046FFF765FE18B92046FFF76DFE18BBBD
:1039E000314F05F1080937F8193013F01C0F02D0D8
:1039F0004B78012B18D001238DF80F300023CDE92F
:103A000000134A1C8B1C20460DF10F0102F070F9C7
:103A100037F8193043F0030327F81930002E41D04E
:103A20002046FFF73DFE18B9204805B0BDE8F083F9
:103A300096F800C0D8F800301B4F0CF5A272002198
:103A400043F8221005F1080237F8121021F0200186
:103A5000C904C90C27F8121075781DB3D8F80000F6
:103A6000B67800EB8C002D04D0F8103523F49913B0
:103A700023F4F853C0F81035230203F47C5305F403
:103A800040353605D0F810E52B4306F4801641EAA0
:103A90004C31334341F0200143EA0E0327F8121062
:103AA000C0F810350248C0E7140000200400AD0B38
:103AB0000000AD0B014BC3E9021270471400002057
:103AC00010B508461446FFF7F7FD50B10846FFF75A
:103AD000B1FD054B083033F8103004485B0B237000
:103AE00010BD0348FCE700BF140000200000AD0B30
:103AF0000400AD0B70B5164D95F8804006462CBB02
:103B00002146602205F1100001F07AFF30682E6F27
:103B100021468E420ED10023C0F87C31D0F87C3192
:103B200040F30730FEF762FB01230A4885F8803036
:103B3000AB6770BDCBB29B0003F580727C2B08BFD6
:103B4000845001F1010108BF8358E2E70248F0E721
:103B5000140000200000AD0B0C00AD0B034B93F8DC
:103B60008000003818BF0120704700BF14000020FB
:103B70000148FFF7FFBB00BF880000200148FFF7A6
:103B8000D5BB00BF8800002073B503681646D3F884
:103B90000423002AA8BF4FF000420546A8BFC3F87F
:103BA000042308460C46FFF787FD00B30846FFF7DD
:103BB00077FD0146D8B92046FFF766FD04B2A400A0
:103BC00004F5807203462868815029688258214490
:103BD000D1F8102542F00102C1F810252EB1296854
:103BE000012202FA03F3C1F8043302B070BD20468B
:103BF000FFF720FD0F4B083033F81030C3F382037A
:103C0000042B12D0052B12D001A80194FFF702FD5E
:103C1000019AD0F81035D34003F00103991C2046D7
:103C200002B0BDE8704002F0ACB80321F7E7022112
:103C3000F5E700BF140000202DE9F04F694BDFF8D5
:103C4000A881D3F80403D8F87010C0B289B040F04E
:103C50000040FFF789FD051E2FDAC24600235AF8FF
:103C60007C1F06A8CDE90633FFF732FD5F4B0193B9
:103C70000DF118094FF0000B019A12F8013B019267
:103C8000DA0803F007031AF8022022FA03F3DA072E
:103C90001CD409F10409BBF1000F14D0D8F870103E
:103CA0004FF00040FFF760FDD8F87C1006A8FFF742
:103CB0000FFD0028DAD125F000450124002D79D12F
:103CC00009B0BDE8F08F4FF0010BD5E7484B5B44DE
:103CD0000293D9F800100029DBD0029B91FAA1F1E0
:103CE0001C78B1FA81F141EA44142046FFF7A2FCA6
:103CF0000830059438F81070C808BB0819F800207F
:103D0000039301F00701012303FA01F122EA010202
:103D100009F8002005A8FFF77DFC059A039B02F532
:103D2000E072C7F3820650F822205B073746C2F3E1
:103D3000014224D520463946D6B2FFF785FC05A8B6
:103D40000594FFF767FC059B03F5E07350F82330FB
:103D5000C3F301439E4207D10021204602F011F82F
:103D60003146204602F00DF805A80594FFF752FCF5
:103D7000059B012202FA03F3C0F82035A9E7022AC5
:103D80000CD10321204601F0FCFF06F00503012BB6
:103D9000EAD139462046FFF757FCE5E702212046E5
:103DA000039201F0EEFF032EF3D0039A032ADBD136
:103DB000022EEDE795FAA5F3B3FA83F304FA03F2C2
:103DC0009B0003F1804303F5C04325EA0205D3F8C5
:103DD0001005D3F81015C0F30520C1F30141FFF71A
:103DE00033FC6BE70060004014000020D36B000040
:103DF000D36B0000044AD2F80034DB07FBD5016026
:103E0000BFF35F8F704700BF00E001404FF0805369
:103E10001A69B0FBF2F302FB130373B9084B0222D9
:103E2000C3F80425C3F80805D3F80024D207FBD54E
:103E300000220448C3F8042570470348704700BFB8
:103E400000E001400000AD0B0A00AD0B10B5054CC1
:103E50000123C4F80435FFF7CDFF0023C4F804356F
:103E600010BD00BF00E0014030B5816885B0103959
:103E700021F00704054601F01BFD102201466846AB
:103E800001F0BEFD07491022684601F0AEFD102387
:103E90006A462146284601F0D7FC003818BF0120A9
:103EA00005B030BDB665000030B50D46816887B0FD
:103EB000102302AA1039044601F0B1FC002802DAEE
:103EC000012007B030BD102202A9204601F0B2FF48
:103ED00000283AD11E49102202A801F076FD0028E0
:103EE0000CBF012302232B70204601F08FFF01231A
:103EF00001460DF10702204601F091FC0028DFDBAE
:103F00009DF8073003F00F021B096A702B71012224
:103F10000DF10701204601F08DFF10B96B78042BDD
:103F200003D901236B7000232B71A268183A22F089
:103F30000702083AA91C204601F08FFF0028BFD1D4
:103F4000E91C204601F0E2FFBBE70323CBE700BFFB
:103F5000B6650000F0B5354F460085B005466946A8
:103F600057F8260001F0D8FF044610B1FF2005B035
:103F7000F0BD013602A957F8260001F0CDFF012857
:103F800037D12B482A46492101F03BFC294B0293AB
:103F90008DF80C409DF800609DF80870264C0022BA
:103FA0002078314601F038FF50B36078394601F08F
:103FB00033FF28B3A378042B03D09DF80310994254
:103FC0001ED1E378042B03D09DF80B10994217D132
:103FD0002379042B10D16279022A1DD1174B18487E
:103FE0002A46492101F00DFC6079831E022BBED9BF
:103FF000BCE70028CED0B9E79DF802109942EAD07C
:104000000132032A04F10604CAD10E482A46492186
:1040100001F0F7FB0120AAE7032A05D00A4B0B4960
:10402000042A08BF0B46DAE7094BD8E77865000099
:10403000F86B0000030103038D6C0000DA6B0000D5
:10404000436C0000676C0000DF6B0000F16B000048
:10405000D56B000038B5094B53F82040013053F8B8
:104060002050A54200D838BD636823B1204601F036
:10407000AAFF0834F5E723689847FAE7806500004F
:1040800008B50A4B012203201A70FFF7E3FFFDF782
:104090000BFF01F0B4FF0420FFF7DCFFFCF79AF9F7
:1040A000034A137B23F00103137308BD920E002013
:1040B000C800002008B50348034A0021121A01F085
:1040C0009AFF08BDA8000020940E002008B500202B
:1040D000FFF7C0FF184B83F30888184C636943F45B
:1040E000007363610025E02384F82230E5772576AC
:1040F0006576A57684F82050636A43F4E023636212
:1041000084F82350FEF720F8FEF70AF94FF0FF334A
:10411000A362E362FEF79EF9FEF726F901F02DFF98
:104120000120FFF797FF0220FFF794FF04482B467A
:104130002A462946FEF7DCF80017002000ED00E0D3
:10414000814000000748084A084908B5121A01F0E2
:1041500054FF0748074A0849BDE80840121A01F011
:104160004CBF00BF00000020A8000020A06C000091
:104170000000002000000020A06C0000024B186826
:10418000984208BF0020704798000020034B1B682E
:104190000BB9FEF7EDBF0020704700BF8C0D00206B
:1041A00030B570B10B4B5B6898420AD0036843B1DD
:1041B000D3E90421D0E90445121941EB0501C3E913
:1041C0000421D0E9003213605A600023C0E90033B3
:1041D00030BD00BF980000202DE9F047EFF31185B6
:1041E000202383F31288BFF36F8FDFF89C90DFF8F2
:1041F0009C80C9F80000FFF7C1FF00260027D9F80E
:104200000030D8E900ECD91750B1D0E90442A342FC
:1042100071EB020A18DAE41A62EB0102C0E9044207
:1042200013EB0E034CEB01010024C8E90031C9F87F
:10423000004001F0EBFE2146FEF76CFF85F311888C
:10424000BFF36F8FBDE8F08714EB0E024CEBE47305
:10425000C0E90467C8E90023FFF7A2FF85F31188CE
:10426000BFF36F8F83689847EFF31185202383F3A3
:104270001288BFF36F8FD9F800301B1BC9F80030CC
:10428000FFF77CFFBBE700BF8C0D0020480100203A
:1042900070470078704730B583688B4285B004461C
:1042A00015460ED96368C068194401AA01F05CFC88
:1042B00028B96268019B9B1A2B60029B6B6005B05A
:1042C00030BD6FF02100FAE770472DE9F7430E4645
:1042D00017469946044628B94FF0FF38404603B0C8
:1042E000BDE8F0830029F7D0002AF5D0CB680D890E
:1042F0001D4404230DEB03022946384601F08FFAD2
:1043000080460028E8D1BDF80410738946F60812EB
:10431000914225D1BDF806109942DDD104230DEB61
:1043200003022944384601F07AFA0028D4D1BDF8B6
:10433000042046F607139A42CED1C4E900679DF8DF
:104340002830A4F80890A3727389BDF806202B4486
:10435000E360738913442B44043563612561BDE731
:10436000002BE4D0B8E72DE9F3410E4617461D4671
:10437000044620B94FF0FF3002B0BDE8F081036879
:10438000002BF7D04368002BF4D04FF6FF78D4E928
:1043900004239A4216D223685B8923B1E3689342CF
:1043A00004BF043323610423216960680DEB030219
:1043B00001F035FA0028DDD1A37A2BB1D4E903321C
:1043C0009A4201D30120D7E72389BDF8061043455F
:1043D00001F1040203D0BDF804C09C450BD115B116
:1043E000BDF804302B80236904333360398023699E
:1043F00013442361C0E7236913442361C7E748B12D
:1044000003683BB143682BB1C068884294BF002069
:10441000012070474FF0FF30704773B50C460646D9
:104420001146022301AA204600F028FA0546E8B901
:10443000019A1F2A0ED92368A2F1200119442022D3
:10444000304601F0D2FA2368019A134423602846CB
:1044500002B070BD0146C2F12002304601F0D0FA30
:10446000019A2168C2F120003044EAE76FF00205AA
:10447000EDE701F0AABA40F25913584330307047C3
:1044800010B5044601F00DFAA36840F25912303B12
:1044900002FB103010BD70B50D46044601F0B6FCAD
:1044A0002A46A0F1080104232046BDE8704001F02F
:1044B000B6B913B50446019101F0A8FC0423A0F19C
:1044C00008010DEB0302204601F0E3FC02B010BD31
:1044D000F7B5044600200D461746FBF7F1FF694685
:1044E000C0B2FDF7A1FC30B10125009801F096F9AA
:1044F000284603B0F0BD2C2303FB05440098E36875
:1045000026891E4404230DEB0302314601F087F98E
:1045100005460028E8D1BDF804206489009846F6D5
:1045200008139A4219D1BDF806309C4201D00325E8
:10453000DBE704230DEB0302A11901F070F9002859
:10454000D2D1BDF8042046F607139A42EFD1BDF848
:104550000610214431443960C7E7002CF1D0E6E76A
:1045600070B513460E461546002102460446FCF778
:104570004BFC50B92B4604F12C0201212046FCF7DC
:1045800043FC10B1002E08BF002070BD37B50446B3
:10459000426A732501A90120019501F0B2F958B9C9
:1045A000019B226DA36201A90220019501F0A9F9E6
:1045B000054628B1092500E00125284603B030BD95
:1045C000019B206A636501F06CF9E065F5E7012362
:1045D000036003F1012343600023C0E90233704705
:1045E0004379012B07D10368012B04D10079431EC5
:1045F000584258417047002070477FB506460D4627
:10460000012001A9FDF710FC38BB0198FFF738FF26
:10461000F16D0446284600F0D1F80444019801F0F9
:1046200040F90646019801F043F9082201460DEBD6
:10463000020001F0E5F92B798DF808302146019848
:10464000334602AA01F000F9041E019818BF0124A4
:1046500001F0E4F8204604B070BD0124FAE701F04F
:1046600008B92DE9F8430E46002107460846FBF736
:1046700027FF012104460020FBF722FF33789C42EC
:1046800021D0984221D101252C2303FB0575F86D1B
:10469000AC6AFFF7F0FE013C07464FF000086B6A7A
:1046A00003EBC40253F83410D2F804901B684A4656
:1046B000C91A3046C844FFF7D2FFB84504F1FF34A9
:1046C000EDD3BDE8F8830025DEE70120F9E737B533
:1046D00015460C460220694601F01EFCE9790129C5
:1046E00003D00022204601F02BFC9DF80330012B63
:1046F00002D1204601F003FCA9682046FFF7D9FE4D
:104700002046FFF7B1FB002003B030BD73B50D4666
:104710000646FCF787FC0446E86058B302282ED111
:1047200001A90120FDF780FB58BB01982A463146BC
:10473000FCF7D0FB0446D0B9019801F067FB0123D8
:1047400001460DF10302019801F069F80446A0B991
:10475000019801220DF1030101F06CFB10B101235E
:104760008DF803309DF8033003F00F03EB710198CF
:1047700001F054F8204602B070BD0124F7E7072489
:10478000F8E70124F6E738B5436A0446C06D5D6872
:10479000FFF771FE0246A06A002301382B449A42BB
:1047A00001D90138FAE738BD436A00205A68034648
:1047B00013448B4200F10100FAD3704710B54379DE
:1047C0000279012B1ABF73234B43002302F1FF32FE
:1047D00001FB0233026814BF4C000C46013A04FB93
:1047E000023010BD70B50368CD1A002D02DC6FF0E9
:1047F0005F0070BD93F900601C78002E0ADB5C1C22
:1048000004601B7813600368C91A13688B42EED8E2
:104810000020EEE704F07F04013C032C2BD8DFE8F6
:1048200004F0020A1421012DE1D05B7813600368C3
:1048300002330360E7E7022DD9DDB3F801305BBA3C
:104840009BB2136003680333F3E7032DCFDD9C783D
:104850005D78DB78240244EA05442343136003684F
:104860000433E6E7042DC2DDD3F801301BBA136030
:1048700003680533DDE76FF06300BAE770B40468DE
:104880000E1B002E07DD26789E4208D101340460FD
:1048900070BCFFF7A7BF6FF05F0070BC70476FF090
:1048A0006100FAE738B503230446FFF7E7FF18B9BC
:1048B000136813B96FF0670038BD013B13602368BC
:1048C0001A78002AF6D101332360F5E72DE9F34188
:1048D00090461F4601AA302305460E46FFF7CEFF3D
:1048E0000446F0B92B68F61A002E34DD42461B78D8
:1048F00042F8043B019B2E681E443146062328469D
:10490000FFF7BCFF044660B92B68D8F80420C8F84C
:1049100008309918B142296007D10C213846FCF7BC
:104920002BFD204602B0BDE8F0819B5C3A46314643
:1049300042F8043B2B6801332B602846FFF752FFF7
:1049400060B92B687A68BB601344B3422B6018BF10
:104950006FF06504E5E76FF05F04E2E70446E0E727
:10496000F0B500240646204665B2AB4200DCF0BD3F
:1049700051F8247052F824503D440544AF4200F0F1
:10498000010018BF002046F8245088BF40F0010005
:104990000134E9E700EB81010023884200D370472E
:1049A00051F8042D43EA52030B60D307F5E770B5C5
:1049B0000368DB070546144604D4BDE87040114681
:1049C000FFF7E8BF13460A460146FFF7C9FF214635
:1049D00006462846FFF7DEFF46B104F18044013C5D
:1049E00055F8243043F0004345F8243070BD4FF0B3
:1049F000000C2DE9F74F654664464FFA8CF94B459C
:104A000016DC4FF0FF3606EB430601964FF0000828
:104A1000019F53FA88FE4FFA8EFEBE455FFA88F674
:104A200028DB00EBC30040F8044C03B0BDE8F08F76
:104A30004FF0000E02EB8C0AF04651F82E705AF837
:104A40000469A6FB076736190EF1010E6F41344663
:104A50004FFA8EF64FF0000B28BF4FF0010B4E457A
:104A6000D8443D46E9DD40F82C4045460CF1010CA8
:104A70003C46C2E70136A94676B202EB8E0A002513
:104A800077B2BB4205DC40F82E4008F101084C46E5
:104A9000BEE76FF00307774351F826C05AF8077056
:104AA000A7FB0C7C3F195CEB090C4FF0000B28BFF7
:104AB0004FF0010B5D44E1463C460136E0E7002340
:104AC00010B51C465AB2914200DC10BD40F823409C
:104AD0000133F7E710B500231A465CB2A14203DCAC
:104AE000B2FA82F0400910BD50F82340013322434E
:104AF000F3E74A11012350F8220001F01F018B4017
:104B0000184070474B1E10B55BB2041D1A0603D443
:104B10005A1E54F8221071B101335BB283B103F114
:104B20008042013A50F82210002231B9013B02EBD9
:104B3000431210B210BD1346E8E749080132F4E70A
:104B40001846F7E710B500235CB2A24200DC10BDA6
:104B500051F8234040F823400133F5E710B5013AFE
:104B600052B2130601D5002010BD50F8224051F872
:104B700022309C4205D802F1FF32F2D24FF0FF30D2
:104B8000F2E70120F0E730B5013A52B200231406F3
:104B900003D5181E18BF012030BD50F8224051F82F
:104BA00022506C402343013AF1E7F0B50024064659
:104BB0009C46204665B2654500DBF0BD51F8247087
:104BC00052F824303D1AED1AAF4200F0010018BF30
:104BD000002046F8245038BF40F001000134E9E7D6
:104BE00070B59DF910601D4633460446FFF7B8FEC8
:104BF00030B9324621462846FFF7B0FF012807D0DA
:104C000033462A4621462046BDE87040FFF7CDBF17
:104C100070BD70B59DF910601D4633460446FFF720
:104C2000C4FF38B133462A4621462046BDE87040CD
:104C3000FFF796BE70BD2DE9F04FA5B01D4614AB31
:104C4000CDE902310190294610461746FFF75AFF79
:104C5000C0EB851424B2002C2146B8BF04F11F011B
:104C6000634203F01F0341F3471104F01F0604A839
:104C700058BF5E42FFF723FF002E4FEA81002DDD73
:104C800004AB00221844C6F1200E13469D421AD8E8
:104C900004AB03EB850300936F1E24AB4FEA45087A
:104CA0004FEA8509012603EB8707002C53DA24AB72
:104CB00003EB8606019856F8881C2A46FFF742FF48
:104CC00025B0BDE8F08F57F823C00CFA06F10A436F
:104CD00040F8042B01332CFA0EF2D7E704AB2A4636
:104CE00039461844FFF72EFFD2E75AF8883C53F8AC
:104CF000202024AB03EB80030CF1010C53F8803C23
:104D00000B44D31A34BF4FF0010B4FF0000B9A4203
:104D10005EF8882C42F8203018BF59464FFA8CF0C4
:104D20004045E2DB731A5E42294604A85E41FFF764
:104D300031FE09F190036B44009853F8802C57F82A
:104D4000803C294643EAC273013C47F8803C24B2C8
:104D5000FFF720FEA9E724AB4FF0000CC6F1010ECF
:104D6000614603EB860A03EB8E0ED7E730B591B0B0
:104D700004461D4668469DF95030FFF738FE2A4626
:104D800069462046FFF757FF11B030BD30B51C46CD
:104D900091B0054693F900306846FFF728FED4F835
:104DA000AC3069462846984711B030BD13460A46D4
:104DB000FFF7ECBF2DE9F04793F9006092B004468D
:104DC00089461046314615461F46FFF783FE0028E8
:104DD00040F091803A46494602A8FFF7E7FF3B467C
:104DE00002AA21460AA8FFF7D1FF02A908463A46BF
:104DF000FFF7DCFF3B462A4649464846FFF7C6FF19
:104E000007F104083A4629462846FFF7CFFF4346F4
:104E10002A46214620460096FFF7E2FE43462A46F0
:104E2000294628460096FFF7DBFE43462A462146E0
:104E300028460096FFF7EDFE3B462A4621462046CF
:104E4000FFF7A4FF43462246214628460096FFF777
:104E5000C7FE434600962A4621462046FFF7C0FE7D
:104E60002368DB074AD53346424621462046FFF7F2
:104E700077FD314682462046FFF78CFD06F18043E0
:104E8000013B54F8232042EACA7244F823203A46F0
:104E900021462846FFF78AFF43460AAA29462846A4
:104EA0000096FFF7B6FE43460AAA29462846009612
:104EB000FFF7AFFE0AA9084643462A460096FFF7C9
:104EC000A8FE3B460AAA21462046FFF75FFF02AA3A
:104ED0004346104621460096FFF79BFE3246294680
:104EE0002046FFF72FFE49462846FFF72BFE02A972
:104EF0004846FFF727FE12B0BDE8F087314620464E
:104F0000FFF748FDC3E72DE9F04115468AB0044696
:104F10000E461C22002103A800F072FD2F1D95F9FA
:104F2000008003232A46314620460293FFF73EFFC6
:104F30003B4602AA21462046CDF80080FFF769FED5
:104F40002B46324621462046FFF720FFCDF8008051
:104F50003B4605F1840221462046FFF741FE0AB098
:104F6000BDE8F081F0B50F46A1B0064619463846B7
:104F700015461C46FFF7AEFD28B1304621B0BDE80E
:104F8000F040FFF79CBD224639466846FFF7DAFD40
:104F9000294608A8FFF7D6FD10A82146FFF78FFD88
:104FA000012318A81093FFF78AFD224608A9684636
:104FB000FFF7D4FD30B9224610A93046FFF7C2FDF5
:104FC00021B0F0BD009BDA0709D421466846FFF7FF
:104FD000E1FC2246294610A8FFF7E9FCE5E7089B1B
:104FE000DB0707D4214608A8FFF7D4FC2246294650
:104FF00018A8F1E7002823461CDD08AA6946684680
:10500000FFF7D3FD21466846FFF7C4FC224618A9E6
:1050100010A8FFF7A3FD002805DA10A923462A46A9
:105020000846FFF79DFC10A9234618AA0846FFF77B
:10503000BCFDCEE76A4608A8FFF7B7FD214608A8E1
:10504000FFF7A8FC224610A918A8FFF787FD002843
:1050500005DA18A923462A460846FFF781FC18A955
:10506000234610AA0846FFF7A0FDBFE7F0B5154696
:1050700089B01C4607460E461A4629466846FFF781
:1050800095FE23466A4639463846FFF77FFE23469B
:105090002A4669466846FFF779FE23466A46314646
:1050A0003046FFF773FE09B0F0BD2DE9F0478AB036
:1050B0001446DDF848A055461F4615F9046B0096C6
:1050C000804689462B460246214602A8FFF7A1FDED
:1050D00002A952460846FFF769FE534602AA414616
:1050E0004046FFF753FE534602AA21462046FFF7EB
:1050F0004DFE2B464A46394638460096FFF789FD55
:105100005246394602A8FFF751FE02A92B464246F5
:1051100008460096FFF77DFD02A92B462246084669
:105120000096FFF776FD2B46424621462046009624
:10513000FFF76FFD5346224649464846FFF726FED5
:105140002B4602AA414620460096FFF762FD5346D1
:10515000224639463846FFF719FE2B464A4639465D
:1051600038460096FFF755FD324602A92046FFF764
:10517000E9FC0AB0BDE8F087F8B50E46D11C48BF7F
:10518000911D41F387011446FFF799FC0025671E26
:105190006AB2A24205F1010500DBF8BDBB1A23F09B
:1051A0000301B25C03F00303DB009A40435813434E
:1051B0004350EDE72DE9F0471F46B3F9023013F1F4
:1051C0001F0448BF03F13E046511DC1D48BF03F115
:1051D0000E04E41094424FFA85F928BF144606469F
:1051E00088464946FFF76BFC224641463046FFF7AA
:1051F000C3FFB7F90220B2EBC40F4FEAC40320D2B9
:105200009B1A06EB85040021C3F12005A6420FD3AB
:1052100024374A4631463846FFF7A0FC012810D013
:105220004B463A4631463046BDE8F047FFF7BDBC35
:1052300054F8040D20FA03F20A43226000FA05F143
:10524000E4E7BDE8F0872DE9F04FFDB01F46869DED
:105250000792B5F9023095F90040049113F11F0649
:1052600048BF03F13E0646F3471606F1FF3B7CAA12
:1052700002EB8B0200230DF1900842F8C03C42F88B
:10528000A03C014695F9012048F82B3081466CA8D6
:10529000FFF772FFA30095F9012006936CAB03EBB7
:1052A0008403184609EB02010393FFF765FF95F9A4
:1052B000012039464CA8FFF75FFF95F9012054A85B
:1052C000B918FFF759FF21464CA8FFF703FC18B1A6
:1052D00000207DB0BDE8F08F214654A8FFF7FAFB0F
:1052E00002900028F4D105F1240A32464CA9504618
:1052F000FFF734FC0128EBD1324654A95046FFF7A2
:105300002DFC01280590E3D10CAF3346524654A939
:105310001CA8FFF727FE029B47F82B303846079A58
:1053200004992B46FFF746FF3946384653461CAAD8
:105330000096FFF71BFD0DF5B87953461CAA4CA942
:1053400014A80096FFF712FD484622466CA9FFF705
:10535000F9FBA30009EB030B584603992246FFF71C
:10536000F1FB05F144031946224634A80393FFF7E5
:10537000E9FB039BA100591822463CA8FFF7E2FB7A
:105380002B1D494634AA1CA800940493FFF741FC46
:105390005B464A463CA934A80095FFF786FE1CA947
:1053A000084623462A1DFFF7DDFD1CAA594648463C
:1053B0002B46FFF75BFE029B0893039B0993314644
:1053C0006CAB3846CDE90A39FFF79CFB3146814684
:1053D00014A8FFF797FB8145B8BF81461FFA89F9EA
:1053E00009F1FF3109B238460291FFF782FB0299B9
:1053F000074614A8FFF77DFB003818BF0120003FC7
:1054000018BF012747EA40070DF1200B22465BF841
:10541000277040463946FFF795FBA300F91822464E
:105420002CA8FFF78FFB21461CA8FFF748FB059B24
:105430001C93A9F102090FFA89F9B9F1000F21DAD9
:105440001CA90846049A2346FFF78CFD2B461CAA8C
:105450002CA94046FFF70AFE324641465046FFF768
:105460007DFB012805D03346524641464046FFF7B2
:105470009CFB22464CA94046FFF785FBB0FA80F022
:10548000400926E72B461CAAD5F8A4702CA9404653
:10549000B84749460CA8FFF72CFB4946074614A815
:1054A000FFF727FB003818BF0120003F18BF012776
:1054B00047EA400708AB53F8277027B3224639461E
:1054C00034A8FFF73FFB069B2246F9183CA8FFF7DC
:1054D00039FB2B461CAA3CA934A8FFF7C7FD049B47
:1054E000009434AA414644A8FFF793FB2CAB4246F4
:1054F0003CA934A80095FFF7D8FD1CA92B4644AA67
:105500000846FFF743FC09F1FF3994E7F8B50C466C
:1055100010B1F9B10AB90120F8BD8D1800F12806C3
:105520000027836E5A1C8266034414F8011B83F81B
:1055300028103F2A0BD93146FBF7EEFFD0E908329D
:1055400013F5007342F10002C0E908328766A542F4
:10555000E7D1E0E70846DFE7F8B50C460546002846
:1055600055D0002954D08B6ED1E90821D8001218EB
:1055700041F10001581C2344C4E9082138284FF0A8
:105580008002A0664FF0000783F8282004F1280667
:105590000AD9C0F140023946304400F03BF83146A8
:1055A0002046FBF7B9FFA766A06E0021C0F13802C4
:1055B000304400F02FF8236A1ABA636A62661A0A46
:1055C00084F8633084F862201A0C1B0E84F8603073
:1055D000314684F861202046FBF79EFF2B1D211FDA
:1055E000243551F8042F03F8012C100E03F8040C95
:1055F000100C03F8030C100A03F8020C0433AB423E
:10560000EFD120467022002100F004F80120F8BDFF
:105610000846FCE700F0F4B910B5036A0446D86800
:105620008368DB689847E36CD8688368DB689847D1
:10563000012010BD002070470FB407B504A951F830
:10564000040B0191FCF7ACF803B05DF804EB04B077
:105650007047038B13F0070305D10368002B0CBFC1
:10566000002003207047022B05D1408BB0FA80F058
:10567000400980007047012B05D10368002B0CBF47
:105680000020052070470020704710B50C4600B17F
:1056900011B96FF0150010BD081D00F093F8002837
:1056A000F9D1A368032BF6D9F3E72DE9F0410D46B4
:1056B00007461946281D90461E4600F094F80446F9
:1056C00038B13346424629463846A446BDE8F04143
:1056D0006047BDE8F08110B4EFF31182202484F319
:1056E0001288BFF36F8F416110BC0121FCF788BAAB
:1056F00038B50C46054658B151B10B6843B14B68FB
:1057000033B11C22002100F07BF92C61002038BD50
:105710006FF01500FBE770B505460E46FFF7B5FFC5
:10572000041E14DBEFF31182202383F31288BFF3EE
:105730006F8F6B8B2C8B4FF6FF718B4204F007043D
:1057400007D182F31188BFF36F8F6FF00A042046F0
:1057500070BD022C0CD101336B8382F31188BFF32F
:105760006F8F0023224631462846FFF79EFFEEE763
:10577000062C14D8DFE804F004131313041A0400F1
:10578000002333606B683BB9C5E90066ACB9022100
:105790002846FCF735FADAE71E606E60F6E782F31A
:1057A0001188BFF36F8F6FF00404D0E782F3118884
:1057B000BFF36F8F6FF08504C9E782F31188BFF3E1
:1057C0006F8FC4E7034658B1426802F00302012A12
:1057D00003D0032A04D1026812B1002098607047F8
:1057E0006FF0150070474268816002F00302032ADF
:1057F0004FF0000203460CBF006810465A60704725
:1058000070470FB407B504A951F8040B0191FBF7D9
:10581000C7FF03B05DF804EB04B070477047002980
:1058200030B4044618460BDBA5680844A84207D8E4
:10583000E0686468214484682468A44630BC6047FA
:105840006FF0150030BC7047002930B4044618468C
:105850000BDBA5680844A84207D8E06864682144C7
:1058600084686468A44630BC60476FF0150030BCA3
:1058700070470029034610B410460BDB9C680844AF
:10588000A04207D8D8685B68194483689B682BB12D
:1058900010BC18476FF0150010BC70476FF0570030
:1058A000FAE708B5C0688368DB689847006808BDF8
:1058B00008B5C0688368DB689847407908BD70B553
:1058C0004C680368A34201D2012070BD8A6822445B
:1058D000934201D30020F8E7D1E903254E69B54290
:1058E00003D36FF00B038B61F4E71B1B42F83530D9
:1058F0004368086902EBC00253600B6901330B6116
:10590000E2E737B50C46C0B201A91546FCF78CFAA0
:1059100000280CDB019850B121462A46FCF7AAFA70
:1059200004460198FFF77AFF204603B030BD6FF0C0
:105930001504F9E7012801D1EFF3058300F034BB2A
:1059400001460068FFF7F6BF08B5FCF7BBFABDE8F3
:10595000084000F000B8704700210120FFF7EABFBF
:1059600061B662B680F31188BFF36F8F7047EFF3B3
:105970001180202383F31288BFF36F8F704772B6B4
:10598000002383F31188BFF36F8FBFF34F8F20BFC6
:1059900080F31188BFF36F8F62B67047202809D952
:1059A000B0F1004F08D80138B0FA80F0C0F11F0004
:1059B00040007047082070473E2070470346002093
:1059C0001A5C02B970470130FAE710B55AB10139D3
:1059D000841810F8012B11F8013FA04201D09A421F
:1059E000F7D0D01A10BD1046FCE710B5431E0A448C
:1059F000914200D110BD11F8014B03F8014FF7E7B8
:105A0000C9B202440346934200D1704703F8011B18
:105A1000F9E70369C9B20C2201FB0233186C00F0EC
:105A20000700704770B5C9B20369EFF311852024F0
:105A300084F31288BFF36F8F0C2606FB0134246CAD
:105A400014F0C00408D0A24206D085F31188BFF339
:105A50006F8F4FF0FF3070BD71430B4401221A6409
:105A600085F31188BFF36F8F43680B445B689847D9
:105A70000020F0E78022FFF7D5BFF8B5069F046944
:105A8000C9B2EFF31186202585F31288BFF36F8F1B
:105A90000C2569430C44256C05F0070CBCF1010F83
:105AA0000BD1276486F31188BFF36F8FC4E90E23EF
:105AB00043685B5898470020F8BD05F0C005AF4229
:105AC00086F31188BFF36F8F0CBF6FF077004FF034
:105AD000FF30F1E713B580240094FFF7CEFF02B04A
