:10000000805B00207D3D0000CDC60100693D000001
:10001000693D0000693D0000693D000000000000EE
:10002000000000000000000000000000753E00001D
:10003000693D000000000000D93D0000693D00005E
:10004000094100005D2F0100094100000941000045
:100050000941000009410000094100000941000078
:100060000941000009410000094100000941000068
:100070000941000009410000094100000941000058
:100080000941000009410000094100000941000048
:100090000941000009410000094100000941000038
:1000A0000941000009410000094100000941000028
:1000B0000941000009410000094100000941000018
:1000C0000941000009410000094100000941000008
:1000D00009410000094100000941000009410000F8
:1000E00009410000094100000941000009410000E8
:1000F00009410000094100000941000009410000D8
:1001000053B94AB9002908BF00281CBF4FF0FF317E
:100110004FF0FF3000F00CB8ADF1080C6DE904CEE3
:1001200000F022F8DDF804E0DDE9022304B07047B6
:10013000704700BF10F8012B11F8013B012A28BFBE
:100140009A42F7D0D01A7047034611F8012B03F8F2
:10015000012B002AF9D17047034613F8012B002A1E
:10016000FBD1181A013870472DE9F04786468C46B6
:100170000846089E154674461946002B40F0C2807A
:100180008542B2FA82F245D94AB1C2F1200300FA9F
:1001900002FC2EFA03F3954043EA0C0C94404FEA1C
:1001A000154EA8B2BCFBFEF8230C0EFB18CC08FBC6
:1001B00000F943EA0C43994528D9EB1808F1FF37B9
:1001C00004D2994502D9A8F102072B44A3EB0903F5
:1001D000A4B2B3FBFEFC0EFB1C330CFB00F044EAA4
:1001E0000344A04214D92C190CF1FF3304D2A042CD
:1001F00002D9ACF102032C44241A43EA07401EB191
:10020000D440002334607360BDE8F0874746DDE7E3
:100210006346F1E792BB431B01214FEA154EAFB293
:10022000B3FBFEFC200C0EFB1C330CFB07F840EA72
:100230000343984562D9EB180CF1FF3004D298457E
:1002400002D9ACF102002B44A3EB0803A4B2B3FB28
:10025000FEFC0EFB1C330CFB07F744EA0344A742E9
:100260004ED92C190CF1FF3304D2A74202D9ACF1BC
:1002700002032C44E41B43EA0040C0E7C2F1200320
:1002800020FA03F1954090402EFA03F303434FEA1E
:10029000154EAFB2B1FBFEFC0EFB1C10190C0CFB93
:1002A00007F841EA0041884504FA02F422D96918A6
:1002B0000CF1FF3004D2884502D9ACF10200294488
:1002C000A1EB08019BB2B1FBFEFC0EFB1C110CFB69
:1002D00007F743EA01439F420ED9EB180CF1FF31B7
:1002E00004D29F4202D9ACF102012B44DB1B41EA4C
:1002F000004192E76046E3E76146F7E76046A3E71F
:100300006346B7E7834206D916B9002108467BE762
:10031000C6E900E0F9E7B3FA83F78FB9834201D366
:10032000724508D8BEEB020460EB030301209C4633
:100330001EB9002168E73846FAE7C6E9004CF8E73D
:10034000C7F1200CBB4022FA0CF41C432EFA0CF12E
:1003500020FA0CF3B84001434FEA14490EFA07F5AE
:10036000B3FBF9F81FFA84FE09FB18300B0C08FBED
:100370000EFA43EA00439A4502FA07F240D9E3181D
:1003800008F1FF3004D29A4502D9A8F102002344B3
:10039000A3EB0A0389B2B3FBF9F809FB183308FB96
:1003A0000EFE41EA03418E452CD9611808F1FF3356
:1003B00004D28E4502D9A8F10203214443EA004049
:1003C000A0FB0298A1EB0E014145CE46434602D365
:1003D00006D14D4504D2B9EB020E68EB0403013897
:1003E000002EA6D0B5EB0E0261EB030101FA0CFC66
:1003F00022FA07F34CEA0303F940C6E9003198E713
:100400004046C5E74346D9E72DE9F843D0E9073828
:10041000856903EB08042F34A5420F46164619D808
:10042000DFF87080A3FB080117A3D3E90023FFF7CF
:1004300067FE0346601BA0FB080123F07F4412A364
:10044000D3E90023FFF75CFE20F07F403C60306082
:10045000BDE8F883DFF83C900BA3D3E90023A5FBAC
:100460000901FFF74DFE20F07F4409480A2106A349
:10047000D3E90023E8FB0901FFF742FE20F07F40AB
:100480003C603060BDE8F8838D49FD1A070000002C
:1004900000166BF100CA9A3B9FED097B0E4B0F4A89
:1004A0000F4983ED007B9FED087B82ED007B9FED84
:1004B000087B0C4B002281ED007B1A600BF066B9C3
:1004C000FFFFFFFFFF1F0000000000000000000012
:1004D0001F0000000000000078010020080C002030
:1004E00070010020D41F0020002800F03C812DE97D
:1004F000F04FC94C94F86A30DA078DB000F16D8185
:1005000094F8292094F8353004EB820204EB83033D
:10051000D66A9F6B0EB3354615F8020BC0F38010F8
:1005200009F08EFD0368C6F802308388AB8033780B
:100530005B0606D50621284608F0DCF8002800F006
:100540004E813D4615F8020BC0F3801009F078FD8E
:100550000368C7F802308388AB80337813F00E0F3E
:1005600040F09380236A1BB10C200DB0BDE8F08FE2
:100570000AF0E4FB8146002800F03F810AF0EAFB24
:100580008246002800F036810DF06EF805460028FE
:1005900000F03581D0F894004FF6FF732B8605F1FB
:1005A0001C0B002800F0218105F1880205F184016F
:1005B00008F0ACF8B5F8823023F4EF6323F00703BA
:1005C00043F48C7343F00103A5F8823095F843306F
:1005D00003F03F0363F07F0385F8433095F89A30CA
:1005E00023F0070385F89A3095F8483023F00F037D
:1005F0004FF0000885F848304FF4C023C5F8983113
:100600002846C5E91588C5F89480A5F8988085F82E
:100610004580A5F83680C5F83A80C5F85C80A5F815
:100620009E81A5F894810FF09BF985F86081C5F84B
:1006300064910DF0CDFA95F8A43160F3020385F8CA
:10064000A4310DF0CBFA95F8A43160F3C50385F819
:10065000A43195F8903168F3410385F89031012178
:1006600028460DF0DBFE05F1E0000EF051FFC4E975
:10067000189AC4F820B0C5E9058885F80080ED61B6
:1006800013F09CFA002840F0AC8094F8243001214B
:10069000C3F342030DF12B008DF82B3008F0D4F991
:1006A0000246002861D0797830460CF0EDFA31230B
:1006B0005A49A3605A4BB4F86870A0FB01010025A9
:1006C000C01841F1070152A3D3E90023C4E905553D
:1006D00025706560E560FFF713FD206109F074FC8B
:1006E00000F109083FB9357805F00F05A5F10105BE
:1006F000B5FA85F56D0994F82400236965F30000C7
:1007000010F0010584F8240036D0464A09920020F2
:1007100010600225444A454F04930BAE01930592A5
:100720000321CDE9020006944346009008960797FE
:100730002A460B9509F04AFB31460AF0BBFBA0B9EB
:100740003B4905914AF2D8330093CDE90300CDE946
:1007500001000797089606944346012203210B9552
:1007600009F018FB2EE00CF0E1B9236A002B3FF4EE
:10077000FBAE0CF097F9F7E62A4A2E48049303F2F1
:1007800047130694029591211360A7FB000301FB18
:100790000731264B0793244B05934FF6FF730992BD
:1007A000022703930BAE1AA3D3E900230B970896F5
:1007B000FFF7A6FC4346CDE900503A462846032100
:1007C00009F004FB31460AF075FB0028CDD194F8FE
:1007D0006A3043F0010384F86A300020C5E6122035
:1007E000C3E60CF05FF90320BFE605F18C00C5F805
:1007F0009400D9E648460AF0A7FA0720B5E6504625
:100800000AF0AEFA48460AF09FFAF6E7AFF3008026
:100810008D49FD1A070000000C20002000CA9A3BF9
:100820008C49FD1A0020002005CD000029A1000000
:1008300009C80000002AE78470B590F824308AB017
:10084000C3F342030D46044601210DF12300164671
:100850008DF8233008F0F8F87178024628460CF03D
:1008600013FA1F491F4AA0FB0131981841F10701F3
:1008700019A3D3E90023FFF743FC236998420546F7
:1008800022D21B1A00220192174A02930221174B0F
:100890000991A21ACA40A3FB0232D20800230A44DB
:1008A00009AE13490591CDE903330321D2B206966F
:1008B0000093184609F0EAFA31460AF0FBFA38B913
:1008C000256100200AB070BDFBD9C21A0023DAE707
:1008D0000C200AB070BD00BF8D49FD1A0700000052
:1008E00000CA9A3B8C49FD1A0C200020F712DA4B03
:1008F00029A10000000000002DE9F04F06468DB050
:100900008A46012002219946154614F0B5FF0022BF
:100910000B900221012007F049FF3B494FF4D872A8
:10092000304607F0D3FEC71C384B0093FFB2019648
:100930004B463A460121002009F002FB10F0FD0F62
:100940000ED0334A3349344840F68F031BF094F8F5
:10095000002383F31188BFF36F8F0323184602DF50
:100960002E4CA5FB044526A3D3E9002320462946A7
:10097000FFF7C6FB0896069633690493284B20F0D0
:100980007F48A8FB0331E01A264B07934FF007027C
:10099000254B059302FB08114FF6FE7365EB010131
:1009A00003934FF47A720023FFF7AAFB4FF0000B7A
:1009B000CDE90180CDF800A04B463A4601215846CA
:1009C00009F0E8F910F0FD0F0DD0114A1149124855
:1009D00040F6A4031BF050F88BF31188BFF36F8F20
:1009E0000323184602DF0B9B13B90DB0BDE8F08F4F
:1009F0000122022110460DB0BDE8F04F07F0D6BE2F
:100A00008D49FD1A07000000100C002009D60000D7
:100A100000140200C4140200E00E020000CA9A3B57
:100A20008D49FD1AA9D50000E52A0100000000004B
:100A30002DE9F0418468228E4FF6FF739A428CB004
:100A400045D0054620460FF029FA2B7D012B00F0FA
:100A50002281022B00F01581002B00F0F48094F825
:100A60006061002E40F010812B8A678F94F943203B
:100A7000CDE90A6673B3002AC0F25A810023A4F8B4
:100A80009A31AA7C238FFD1802F003030135012B54
:100A9000ADB23BD0B4F89E31002B00F005819D42F1
:100AA00080F059815B1B9BB20022062BA4F89E317B
:100AB000628740F2F68094F943309342C0F250814D
:100AC000002326E09DF8271020460DF065F90CB0B4
:100AD000BDE8F081002AB8BF84F88561238FAA7C25
:100AE000FD1802F003030135012BADB20ED0B4F8AE
:100AF0009A31002BCED0AB4240F23C815B1BA4F874
:100B00009A31B4F89E31002BC9D102E00023A4F839
:100B10009E3194F8482063F3820284F848202946E5
:100B20000DF1270220460EF057FF7430CAD0B4F8FA
:100B300098312BB1AB4240F2EC805B1BA4F89831AA
:100B4000B4F894312BB1AB4240F2DA805B1BA4F8CD
:100B50009431658F16B9AF4200F0C9800135ADB24E
:100B600094F8DD3013F0010731D1DDE90A130A46AC
:100B7000002B40F0CC80002900F0BB801F461846B7
:100B8000228EE4690694CDE9035603329A4D029011
:100B9000CDE90017D2B201210020059509F076F9C0
:100BA00010F0FD0F93D00AF0AFF984428FD0934A32
:100BB000934994484FF4AE631AF05EFF002383F329
:100BC0001188BFF36F8F0323184602DF7FE794F984
:100BD00043206FF30003002A84F8DD307FDB94F8B4
:100BE0008200C0F3C00100F0070012F003FEB4F869
:100BF0007A20B4F878301344628D03F23F13134423
:100C00000344814A81480721E3FB0021104678A371
:100C1000D3E90023FFF774FADDE90A1320F07F42DD
:100C200020692261904235BF171A801A00200027E0
:100C30000A46002BA4D157EA010CA1D1002858D0B4
:100C400019461F469CE794F89A3003F01803182BB6
:100C50007FF405AFA18EB4F896218B1D9A42C4BFD4
:100C6000931F5B1AB4F89211CCBF9BB21346994202
:100C700000F09C80A4F89231A4F89431A4F8982153
:100C8000EDE63D2684F86061314620460CB0BDE8B3
:100C9000F0410DF081B80023A4F89831A4F8943104
:100CA000DDE60126334634E7628E052A97BF01321E
:100CB00040F2E2434FF4FA7392B203FB02F2B4F84B
:100CC0009C3142F2107101FB0323013BB3FBF2F3B1
:100CD0009BB2A4F89E31002B7FF4E1AE19E794F8A3
:100CE0008300012100F0070012F086FD7FE7354602
:100CF00036E7002D43D00027114638463B463FE7F4
:100D00000023A4F8943120460EF008FF21E738466E
:100D100036E70AF065F80146A0B30023A4F898313D
:100D2000238EC3801B23037100680AF02BF807E7AA
:100D300094F885316BB3013B84F8853104F1E00808
:100D400040460EF027FCB8B340460EF023FCB8B383
:100D50000023638792E6082120460DF01DF8B6E6D1
:100D6000A7B9D4F888315A0813F0010336D1C4F872
:100D70008821A5E63E2120460DF00EF8A7E6002EBC
:100D8000B9D1A4E60123A4F89831D9E61346012687
:100D9000BFE60AAA0BA92846FFF736FBDDE90A23BE
:100DA0001343CBD0237884F88531C7E7B4F8981182
:100DB00000297FF454AE5FE7FF200CF0AFFFC3E7DC
:100DC0000246D4E9210107F0B9FC0028C0D194F80B
:100DD00048301B0744BFA38E63874FE642F00042B2
:100DE0001E46C4F888213B4693E600BFAFF300805F
:100DF0008D49FD1A0700000065D5000000140200AF
:100E000040150200E00E02008C49FD1A00CA9A3B10
:100E10002DE9F04F87B0CDE90423BDF844200378D5
:100E20000292BDF84820BDF840A0BDF84C90878FD5
:100E3000019104460392002B00F0D980013FBFB21C
:100E4000A368D4F81CB1A7EB090292B2002B009260
:100E50000ADAE168626823F0004391422CBF8B44B8
:100E60009344A360ABEB030B94F88200C0F3C00182
:100E700000F0070012F0BEFCB4F83280B8F1050FA4
:100E800040F2AB80009B18FB03F81FFA88F840F291
:100E9000E246BAF1050F40F29480B4F87A20B4F833
:100EA0007830134403F2D51318447D4A7D4B072153
:100EB000E0FB023118464FF09613A3629623A385F8
:100EC00075A3D3E90023FFF71BF9554620F07F40B7
:100ED00040F2E24303FB05F516FB08F6B3B22061CE
:100EE000B3FBF5F815FB08F080B283421FFA88F6D1
:100EF00059D26B49C01A80FB010167A3D3E90023D3
:100F0000FFF7FEF820F07F408344E38EB4F82421FD
:100F10001344994494F84330A9EB07094E44DB0984
:100F2000E6866BD1604A6149614840F667131AF062
:100F3000A3FD002787F31188BFF36F8F03231846A3
:100F400002DF2E46029BA386039BA4F89C31294610
:100F50002046A4F832A00EF07BFD564BA18E2B4408
:100F6000881DB3FBF5F39AB29042A4F8962104D2FF
:100F7000C1F57F41FA310A4492B2019BA4F8922153
:100F800013B10023A4F89E315B4632463946204611
:100F9000FFF7B2FC94F8903143F0010384F89031EC
:100FA00007B0BDE8F08F1B1A3D4883FB00013AA350
:100FB000D3E90023FFF7A4F820F07F40ABEB000B50
:100FC000A3E74FF096130AF10105A3629623A385C8
:100FD000ADB20A204FF4FA737CE7009B08F10108D8
:100FE00018FB03F81FFA88F84FF4FA7651E7C38E1E
:100FF0001F44B0F824311F44BFB221E7E26C0099CE
:10100000636D274F02FB1133636512F027FE06461E
:1010100094F88401C0F3420012F024FE064405FB5C
:1010200006F6254B06F5742606F23F26A3FB063688
:10103000B60C636DE66406FB08F06A080344963A52
:10104000934228BF1346C4E91423049B40F2E249AB
:1010500009FB03F3E3650023A0FB0701C4F88C310F
:101060000DA3D3E90023FFF74BF8144B059AABEB24
:10107000000BA3FB0230800A09FB00F0A0FB070174
:1010800005A3D3E90023FFF73BF8AE1B20F07F4711
:1010900058E700BFAFF300808D49FD1A070000003C
:1010A00000CA9A3B8C49FD1A00140200B80F0200D6
:1010B000E00E02007FC3C90183DE1B435917B7D17D
:1010C0002DE9F04F134615460A6853F8087BD2F80D
:1010D0000090B0F82EC00246044652F82EABD0F86D
:1010E0001E0094F81C800E469178628CA5F808C00A
:1010F0009970D4F82A306B6091B0D4F83A30C5F8C2
:101100002230ADF83C2094F83E2085F826200E9041
:1011100010AA12E9030005F122030C90ADF8341077
:101120001846052107F090FC95F8273000F03F00A5
:1011300060F3050385F8273094F83F30C3F30402C9
:1011400085F82820A28EEA820128C8F3801808D9E1
:1011500003F01F031B3303F01F030B2B01D892B2C4
:10116000BAB90022C9F8142095F82C3062F30003B4
:1011700085F82C300126E56826715046214609F095
:10118000F5FD28682E71294611B0BDE8F04F09F031
:10119000F9BD336800215960E38EB5F816B02B8392
:1011A00040F2E24303FB0BFB3846638E0B930EF0D9
:1011B00063FC94F83F2097F88411520962F34301CD
:1011C00087F8841112F04AFD0A9097F88401C0F361
:1011D000420012F047FD0A9A10440BFB00F0AC4AA3
:1011E00000F5742000F23F20A2FB00204FEA5B02D2
:1011F000800C963A28636A6394F8312040F2E24307
:1012000002FB03F36B64238FA7F89C3159463846E1
:101210000EF01EFC9F4BA04AC7F8A0215B44B3FB15
:10122000FBF39AB2A7F89621298B881D824204DD30
:10123000C1F57F41FA310A4492B2A7F892216B6856
:10124000C7F88831234613F81C2FC2F340120A92C4
:10125000DA0700F1F680BDF83430A4F823300C989A
:1012600084F81E804FF48073C4F81F00A383EB8AB8
:10127000E3842B8B2385B7F89C31638597F8843101
:10128000C3F3420384F82C3038460CF0F9F9A882F5
:10129000E08021465046746809F068FDAB8AE3801F
:1012A0001C2323710A9BD4F80080002B40F0BD80E2
:1012B0000A9B23772146404609F064FD95F86700B4
:1012C000B5F85C80B5F85E40012100F0070012F02F
:1012D00093FA444404F2D514DFF8C88104448246EA
:1012E0006E484FF096130721C5E90333E4FB08016C
:1012F00031230024BB607C6063A3D3E90023FC603E
:10130000FEF7FEFE20F07F4038610B99F3682D6BED
:1013100040F2E24202FB013303F2B341A1EB0A0ABD
:1013200022460221012007F041FA48460BF0A8FEB0
:101330000246AAFB0801924653A3D3E90023FEF715
:10134000DFFECDF80490B3685549009120F07F4846
:101350000AF102023A3BD2B243440121204608F08E
:10136000EFFD0128ABEB05057AD099F82430DB07B7
:1013700053D438460CF084F94A4BA5FB03A9044624
:1013800041A3D3E9002350464946FEF7B9FE464B38
:10139000B668464A079220F07F45A5FB0331BAEBB9
:1013A0000300434B05934FF4F573069708933B698D
:1013B0004FF0000BCDE903B34FF0070303FB05111A
:1013C00069EB01014FF47A720023FEF799FE0334B2
:1013D0003A3EE4B2CDE90150CDF8008033462246D2
:1013E0000121584608F0D6FC10F0FD0F0DD0314A0F
:1013F0003149324840F2EB131AF03EFB8BF311886F
:10140000BFF36F8F0323184602DF0122022110462B
:1014100011B0BDE8F04F07F0C9B9002301220093D5
:101420001846114608F04AFDA3E795F8273043F027
:10143000400385F82730281D11F06CFC0123288516
:1014400037E71C4A1E491D48FD231AF015FB0023EF
:1014500083F31188BFF36F8F0323184602DFFAE688
:1014600009F052FD814580D0124A1649134840F2D6
:1014700092231AF001FB84F31188BFF36F8F0323CB
:10148000184602DF71E700BF8D49FD1A0700000012
:1014900083DE1B437FC3C901404B4C008C49FD1ABE
:1014A000A52A010000CA9A3B8D49FD1A712A010044
:1014B000E52A0100201A0200C4140200E00E020016
:1014C000D41102007C1A02002DE9F04F8FB00DF10B
:1014D00037010446DFF8E0A0DFF8E0800DF13600C8
:1014E00009F0C0FC9DF836309DF837B00B9308F03A
:1014F0006BFDDAF80060A6FB085629A3D3E90023A8
:101500000027814631462846FEF7FAFDCDE90777E8
:10151000069420F07F44DAF80400234B0593A0FBE7
:1015200008011FA3D3E90023FEF7EAFD1F4B20F0BB
:101530007F40A4FB0331072202FB0411CDE90370B5
:10154000E81A66EB01014FF47A720023FEF7D8FD2A
:101550000097CDE901404B460B985A46032108F00D
:1015600019FC10F0FD0404D06FF08B000FB0BDE843
:10157000F08F0F480F4A002317F0DEFC20B9DAF88D
:101580000C000FB0BDE8F08F9DF837209DF83600B5
:1015900000942346032108F091FC6FF07300E5E707
:1015A0008D49FD1A07000000E52E01008D49FD1A46
:1015B0002C250020447B0B004425002000CA9A3BC8
:1015C00038B50F4D044608F0FFFCA96808F0FEFC92
:1015D000696803460B48B3FBF4F4A1FB00011C440B
:1015E00005A3D3E90023FEF78BFD20F07F40844262
:1015F00094BF0020012038BD8D49FD1A070000006E
:101600004425002000CA9A3BF0B5C468636883B0E3
:101610000546002B4FD113F04BFD002013F06EFD5B
:101620000021084613F05CFD00222521082013F05C
:1016300099FD3D4B019301A813F080FD3B4940F219
:101640005B6013F03DFE237AC3F3420262F306139C
:101650002372204612F00AFD27682E68384612F0E1
:1016600065F806446A6806F10901012013F050FF8D
:1016700014F00EF820460BF011FD811C3246C9B261
:10168000384612F061F8054600BB204611F0F6FF1F
:1016900010B9002003B0F0BD254A2649264840F283
:1016A00029431AF0E9F985F31188BFF36F8F0323FB
:1016B000184602DFEDE793F82C309B07ABD01F48AC
:1016C000214613F0B3FC13F099FDE2E7184A1C49D8
:1016D000194840F211431AF0CFF91A4B0721A5FB24
:1016E000030301FB05310EA3D3E90023FEF708FD38
:1016F0001549024615481AF0BFF9002585F31188EF
:10170000BFF36F8F0323184602DF1148214613F001
:101710008DFC13F073FD6FF08B00BBE7AFF300801F
:1017200000CA9A3B00000000D6BE898E5555550070
:101730005C1C0200B4100200E00E0200D13801006F
:10174000B80F02008D49FD1A0C1D0200E01C0200BA
:10175000713C0100000000002DE9F041C468A28A3C
:101760004FF6FF739A4282B000F0DF80054612F018
:1017700033FF2B89628B208CA3831A4492B21044CE
:1017800094F82730E28380B2411C21845E064FF03A
:101790000001618304F1220100F1A18003F03F0008
:1017A0000B4694F82810009004F1290011F06AFA11
:1017B0000646D4E90C31A28B02FB0333A26B13441F
:1017C000E26B8B4294BFD21852188A4228BF0A4655
:1017D000E263616C226C94F867301144616494F8A0
:1017E0007E2094F82C10C3F3020363F3061112F069
:1017F00004024FF0000384F82C10A363236478D014
:1018000013F056FC002013F079FC201D13F096FC19
:101810002389A17A40F25B6043EA014113F050FD55
:10182000304611F0A3FF2146594813F0FFFBA08971
:1018300013F062FE94F8662094F86700C2F3C003C8
:10184000002102F0070200F0070013F09FFD204680
:1018500012F06CFF27682E68384611F067FF0644C7
:101860006A6806F10901002013F052FE804613F069
:10187000E3FE002013F0FAFEE36B94F8670003F137
:101880002F02636C00F00700012103EB420513F007
:10189000A7FC4544054494F8670000F007000228BF
:1018A00025D004280CBF4FF4BC73282301211D440C
:1018B00013F098FC284413F0B1FEA18A033132469C
:1018C000C9B2384611F040FF0546002834D1204601
:1018D00011F0D4FED0B9002002B0BDE8F0810A4674
:1018E00003F03F03218D11F019FA064661E7182332
:1018F000DCE7D4E91A0106F021FF002880D194F832
:101900007E3043F0040384F87E3079E7214A22498F
:1019100022484FF4B0731AF0AFF885F31188BFF383
:101920006F8F0323184602DFD5E71D48214613F0C9
:101930007DFB13F063FCCEE7164A1A4917484FF4B3
:10194000AB731AF099F8184B0721A5FB030301FBB1
:1019500005310DA3D3E90023FEF7D2FB134902465C
:1019600013481AF089F8002585F31188BFF36F8FAB
:101970000323184602DF0F48214613F057FB13F0EC
:101980003DFC6FF08B00A7E700CA9A3B0000000007
:10199000A5490100981D0200B4100200E00E0200EB
:1019A000D1380100B80F02008D49FD1AEC1D02006C
:1019B000E01C0200B138010007B5054B68461A6803
:1019C0005B680092019301F075FA03B05DF804FBC7
:1019D000EC11002007B501F095F883788DF8003000
:1019E0000388ADF8013090F903308DF80330104BC7
:1019F00093F88420531E5A425A410E4B1B781B0108
:101A000043EAC20302791343427943EA42038279EB
:101A100043EA82038DF8043000238DF805306846D0
:101A200001238DF8063001F05DFA03B05DF804FB88
:101A300054110020822C002030B587B00C4605469A
:101A4000102200210DF105001EF01EFA102C224676
:101A5000294628BF10220DF105008DF804201EF044
:101A6000EBF906480022002301A917F071F810B91C
:101A7000034817F027FA07B030BD00BFB0060020BA
:101A8000F806002008B500F0D3FE19F048FD064B1B
:101A90001860064B0146002205481A6019F04CFDFB
:101AA000BDE8084001F0CAB94811002044110020E7
:101AB0005411002038B5084D044601220D21284656
:101AC00019F00DFD204619F01AFD28460022BDE848
:101AD00038400D2119F003BD18030200074BBFF376
:101AE0005B8F012253E8001F43E800200028F9D152
:101AF000BFF35B8F024817F0E5B900BF1C1200204E
:101B0000F8060020074BBFF35B8F012253E8001F4C
:101B100043E800200028F9D1BFF35B8F024817F09B
:101B2000D1B900BF18120020F806002008B5B0F89F
:101B30000130A3F57A739BB247F24812934251D811
:101B4000B0F80330323B9BB240F29E72934249D8C8
:101B5000B0F8052042F210739A4243D8B0F8093029
:101B6000B0F807209A423DD240F2DC52934239D875
:101B7000B0F80B2041F288339A4233D8B0F80D30D8
:101B8000C83B9BB242F2486293422BD8B0F80F3068
:101B9000103BB3F5F86F25D8B0F81130053B9BB278
:101BA00040F60B6293421DD8104B00F1100250F822
:101BB000041B43F8041B9042F9D102881A808278F2
:101BC0009A700B4BBFF35B8F012253E8001F43E871
:101BD00000200028F9D1BFF35B8F064817F072F997
:101BE000002008BD6FF01500FBE700BF8338002020
:101BF00050110020F80600202DE9F04F97B000F0BA
:101C00006BFEA64802698168136823F400531360D1
:101C10000B684FF4C0220D21984700F09DFE30B9AB
:101C200000F0C8FE00F072FF08B100F081FF9C4C8C
:101C30009C4800F007FB204600F0F0FF21469A4B3D
:101C400041F8083F994800F01FFBD4ED037AFCEE01
:101C5000E77A01238DF82C3017EE903AD4ED047A10
:101C6000ADF82D30FCEEE77A0BA817EE903AD4EDE4
:101C7000077AADF82F30A38AADF83130FCEEE77A61
:101C8000E38AADF83330238BADF8353017EE903A58
:101C9000D4ED097AADF83730FCEEE77A238CADF855
:101CA000393017EE903A4FF47A72ADF83B30A36AB0
:101CB000B3FBF2F3ADF83D3001F03EF97C4A7D49CB
:101CC0007D4801F0ABF8FFF777FEFFF783FE7B4816
:101CD00000F004FD48B101F0B1F83220FFF7EAFE50
:101CE0004FF47A7019F00BFCF7E7C820FFF7E2FE1B
:101CF000FFF7C8FE19F013FCDFF8E4A100906B4B6E
:101D000093F88430012B0BBF42F210734EF6602320
:101D1000019301930CBF4FF400424FF4A022002323
:101D2000674817F009F9BFF35B8F664B002253E851
:101D3000001F012903D143E800200028F7D1BFF399
:101D40005B8F0BD100F0C2FD012840F0CB8019F071
:101D50001AFC002840F39E80FFF794FE514F5A482A
:101D60000022002306A916F051FF002800F071811F
:101D7000BFF35B8F554B002253E8001F012903D1AD
:101D800043E800200028F7D1BFF35B8F46D1504BCA
:101D9000444EB3F80120454D07EE902AF8EE677ADD
:101DA000C4ED037AB3F8032007EE902AF8EE677AC1
:101DB000C4ED047A99795A7942EA0122A282197A09
:101DC000DA7942EA0122E282997A5A7A42EA0122D7
:101DD0002283B3F80B2007EE902AF8EE677AC4ED61
:101DE000077A997B5A7B42EA01222284B3F80F20BA
:101DF00007EE902AF8EE677A4FF47A72C4ED097A0A
:101E0000B3F811305343A3620FCE0FC50FCE0FC5E9
:101E1000304650F828392B6000F01AFF19F07FFB8C
:101E2000224B93F88430012B05462A4B06D02A4AD0
:101E30002A491268821A8A4200F2E881BFF35B8F56
:101E4000002253E8001F012903D143E800200028A5
:101E5000F7D1BFF35B8F00F0BC8101F025F80028BB
:101E600000F0B781009B019AEB1A9342FFF447AF51
:101E700000F0A0FD00F04AFE40B1094800F0BAFEB3
:101E800000F010FD00F0FCFF00F052FEFFF7A2FD95
:101E9000009534E719F073FB60E700BF18030200F8
:101EA000EC110020F41100200000C8435411002060
:101EB000051B00002D1B0000391A0000DD1A000070
:101EC000F80600201C120020B0060020501100204F
:101ED000833800201812002040110020BFD40100D8
:101EE0004C11002000F0F2FC02287FF437AF4FF0D5
:101EF000040BBC48002705AA2021059719F054FBC4
:101F0000051E40F3818019F00AFB059BDFF8F09273
:101F1000DFF8E88206463BB1C9F800000146B24846
:101F2000C8F8007019F008FBD8F80030D9F8002084
:101F3000DFF8CC922B4403EB8303053B02EB530306
:101F400003930027D8F80030D9F8002003EB830171
:101F500002EB5102A34901330620C8F8003000FB10
:101F6000071106ABA04800F0C1F9002843D0039B3D
:101F7000069AD21A63680133636010939B4B1B78F7
:101F80003244002B63D09A49D1E90031D31841F192
:101F90000001CDE911319DF822300293079BDAF858
:101FA00000C01493089B1593924B139218210CF0C8
:101FB0007F020DF1400E01FB0233724603CA5960E5
:101FC00016A98A421860964603F10803F5D10CF170
:101FD0000103CAF80030029B53B1236886480133DD
:101FE000236000F007FEFFF7E7FC1420FFF762FD17
:101FF00010A800F0B1FF0137BD42A3D1182D03DDB9
:10200000BBF1010B7FF475AF7C4B774819687C4BB3
:102010001B6801EB810103EB510119F098FA0028CC
:102020003FF438AFD4ED097AFCEEE77A17EE903A38
:1020300098B200F0A7FB6C4A002382F8843019F0B4
:102040006EFA704B18606C4800F0D4FD86E61946B5
:102050009FE79DF81930013B042B3FF680AEDFE887
:1020600003F0032A3265AE009DF81830082B7FF686
:1020700076AE0DF11E0019F030FA06460DF11A0089
:1020800019F02BFA05461DF00BFE4FF47A72034649
:10209000A3FB023C02FB01CCDB0B43EA4C43ED1AF1
:1020A0005348524B66EBDC360122C0E900561A70E9
:1020B000FFF790FC53E600234F48236000F09AFDA1
:1020C000FFF77AFC4BE69DF81830042B7FF647AEFD
:1020D0000DF11A0019F001FADAF80030DFF8148176
:1020E000802B38BF80230546A3F180094FF0180BE1
:1020F000DAF800209145BFF432AE09F07F020BFB05
:1021000002F208EB0203029358F8022095420AD823
:102110003226029800F020FF0C3004D1142019F070
:10212000EEF9013EF5D109F10109E1E7364E2E4DF8
:10213000384600F087F80FCE0FC50FCE0FC53046DA
:1021400050F828392B6000F083FDD4ED037AFCEEC3
:10215000E77A01238DF8403017EE903AD4ED047AF7
:10216000ADF84130FCEEE77A10A817EE903AD4EDC6
:10217000077AADF84330A38AADF84530FCEEE77A34
:10218000E38AADF84730238BADF8493017EE903A2B
:10219000D4ED097AADF84B30FCEEE77A238CADF83C
:1021A0004D3017EE903A4FF47A72ADF84F30A36A83
:1021B000B3FBF2F3ADF8513000F0BEFECFE50525DC
:1021C0005020FFF777FC782019F099F9013DF7D1FD
:1021D000C5E500F061FE00287FF444AE00F02EFE5D
:1021E00040E600BF982B002054110020822C0020D4
:1021F00060080020832C0020EC11002044110020F6
:102200004811002040110020F41100200022BFF3EB
:102210005B8F53E8001F012903D143E80020002809
:10222000F7D1BFF35B8F02D000F03EFE08B900F09B
:1022300033FE00F039FE00283FF414AE00F020FE1B
:1022400010E600BF0A4B03600A4B43600A4B8360F1
:102250000A4BC3604FF416730382094B436140F28B
:10226000DC530383074BC36147F23053036270476B
:102270000000C8430080BB4500009643F4016400A1
:1022800000007A4300001643F8B50F462DED028B8F
:10229000982200213D4606461DF0F6FD0FCD34463E
:1022A0000FC40FCD0FC42B68236097ED007AB7EEF3
:1022B000008AC8EE077AB1EE000A27EEC00AF1EEF6
:1022C000678A19F01BF838EE400A86ED090A9FED7F
:1022D000060A88EE800A19F011F838EE408A86ED79
:1022E0000A8ABDEC028BF8BD8FC2F53CF0B50446FE
:1022F000B1F9000006EE100AB1F90200B1F90410BC
:1023000007EE100A06EE901AB8EEC66AB8EEC77A63
:10231000F8EEE66A94F8501085B08DED016A8DED07
:10232000027ACDED036A04F1380604F14405B1B92F
:1023300001AB03CBE06221631868606301AA03CAA2
:10234000A06371601868B06001AA03CA6064696024
:102350001868A860012384F850300020EFE0D4ED25
:10236000127A94ED115AD4ED135A77EE677A36EE5D
:10237000455A67EEA77A45EE057A76EEE55A45EEC0
:10238000A57AF1EEE77A01AF03CFD4ED0A4A606493
:1023900069603868A86001A930460F46D0ED005A40
:1023A000B7EC015A35EE655A45EE245AE0EC015A75
:1023B0008542F3D194ED0C5AD4ED0B4AD4ED0D5A6D
:1023C00037EE457A36EE646A27EE077A06EE067A2D
:1023D00076EEE56A06EEA67AB1EEC77A606D05067E
:1023E0000BD594ED006A9FED874AC4EE066AFCEEB9
:1023F000E66A16EE905A551BA565D4ED026AF4EE16
:10240000C76AF1EE10FA4FEA400048BF40F0010001
:10241000606594F86100002800F09E80616E521A99
:10242000142A1DD8F5EEC07AF1EE10FA18D49FEDFB
:10243000767AB4F86800F4EEC77AF1EE10FADBBFF2
:10244000B6EE007A77EE877A4FF6FF71FCEEE77A08
:10245000DCBF17EE901A89B2884238BFA4F8681022
:10246000E089218A904227D88A4228D8D4ED1C7A64
:10247000D4ED0E6A94ED1D7A94ED1E6AD4F8803086
:1024800076EEE76AD4ED0F7A77EEC77A94ED107A9C
:1024900067EEA77A46EEA67A37EE467A47EE077AD7
:1024A000F1EEE77A013394ED1F7A77EE277AC4EDE7
:1024B0001F7AC4F8803050E78A427FF64EAFD4F8D6
:1024C0008020002A3DD007EE902AD4ED1F6AF8EE56
:1024D000677A86EEA77AB5EEC07AF1EE10FA33D4B9
:1024E000DFED497AB4EEE77AF1EE10FA2EDCF6EE83
:1024F000007A77EE277AFCEEE77A17EE902A92B20E
:10250000B4F86A10A4F86C20A289914221D3D4EDCA
:10251000057AF4EEC77AF1EE10FACBBF0021012163
:102520000222002284F86F2084F86E1004F1640205
:1025300007CA83E80700002384F86130012005B052
:10254000F0BD9FED327AD2E70022D9E74FF6FF7255
:10255000D6E700210122E5E794ED017AB4EEE77AAF
:10256000F1EE10FA3DD894F8603023B1E36D208B82
:10257000D31A834235D3A36DE265D11AF5EEC07A42
:1025800040F20113A4F86030F1EE10FA4FF00003AE
:10259000E366626612D49FED1C7AF4EEC77AF1EE20
:1025A00010FADBBFB6EE007A77EE877A4FF6FF734C
:1025B000FCEEE77ADCBF17EE903A9BB2A4F86830E5
:1025C0004FF6FF738B4228BF0B46A4F86A300023F6
:1025D000E367C4ED1C4A84ED1D5AC4ED1E5A002366
:1025E00067E7D4ED096A2C34D4ED007AB1EC017AB6
:1025F00037EE677A47EE267AE4EC017AA642F3D109
:10260000ABE600BF0000FA4500FF7F470000000076
:1026100010B586B00123019300238DF808300723FD
:10262000CDE9031200908DF8143007489DF814305E
:10263000826843F002038DF8143094681823022254
:102640006946A04706B010BD9003020010B40C4BC1
:102650001A699B689C6984B1010204D51368DB0583
:1026600048BF80F0C060074B00F0B0720340A44642
:1026700003485DF8044B082160475DF8044B704740
:10268000180302004000000610B54FF40010FFF7D9
:10269000DDFF034B1B6813B1BDE81040184710BDA8
:1026A000201200201FB502238DF800008DF80110C4
:1026B000CDF804D002938DF80C3007489DF80C300B
:1026C000826843F002038DF80C30946818230122CD
:1026D00001A9A04704B010BD9003020073B5002308
:1026E00006468DF8073022481CF0C9FE20B96FF06D
:1026F0001204204602B070BD1E4D28461CF0BFFEDD
:102700000028F4D00DF107010F2018F02DFF04462A
:102710000028ECD19DF80730332BE8D1802124200C
:10272000FFF7C0FF0021A4201DF041FA082120205E
:10273000FFF7B8FF104B1E602A69AE68136823F4D8
:1027400080731360336808214FF48032284698471D
:102750000A490B4B4B604FF480738B60F36913B1E4
:102760000122284698474FF09860FFF76FFFC0E7B7
:1027700090030200180302002012002024120020FF
:102780008926000013B500F10F0424114FF4001046
:10279000FFF75CFF002C45D07F2C45DCA4B208215C
:1027A0002020FFF77FFF00212E20FFF77BFF002175
:1027B0002220FFF777FF01212120FFF773FF00217F
:1027C0002320FFF76FFF08212420FFF76BFFE1B202
:1027D0003220FFF767FF00213320FFF763FF2A2134
:1027E0003020FFF75FFF2F212020FFF75BFF002144
:1027F00040F615601DF0DBF90DF10701262018F0F9
:10280000B3FE0DF10701312018F0AEFE4021222069
:10281000FFF748FF054B01221A7018F0B0FE0020A8
:1028200002B010BD0124BAE77F24B8E79638002033
:1028300007B54FF40010FFF709FF00212220FFF732
:1028400031FF00213020FFF72DFF0DF1070131206E
:1028500018F08AFE00212120FFF724FF30212320D9
:10286000FFF720FF40212420FFF71CFF00212E202E
:10287000FFF718FF99212E20FFF714FF7F2120205A
:10288000FFF710FF04212220FFF70CFF044B022268
:102890001A7018F074FE002003B05DF804FB00BF4E
:1028A0009638002008B54FF40010FFF7CFFE002146
:1028B0002220FFF7F7FE08212020FFF7F3FE024B4E
:1028C0000020187008BD00BF96380020014B187812
:1028D000704700BF963800204FF08043D3F8403651
:1028E000DB0732D54FF01023D3F8043303F007038E
:1028F000042B2AD0154B0122C3F80425D3F8002459
:10290000002AFBD04FF01022D2F8043323F0070343
:1029100043F00403C2F804330C4BD3F80024002A1C
:10292000FBD00022C3F80425D3F80024002AFBD0F2
:10293000BFF34F8F0649074BCA6802F4E0621343A6
:10294000CB60BFF34F8F00BFFDE7704700E0014051
:1029500000ED00E00400FA0510B5104C20461CF014
:102960008EFDC0B10E481CF08AFDA0B10D481CF0D0
:1029700086FD80B10C484FF4803118F06EFE0B4894
:102980004FF4B01118F069FEA36809491B6820468E
:10299000BDE8104018476FF0120010BD6803020038
:1029A0000403020018030200400902003809020073
:1029B00000210200F0B587B01422002101A81DF00B
:1029C00063FA0223454E0493012440F20C4302941F
:1029D0000396ADF814304248424D836801A95B6804
:1029E000984738BBB6F9003041F2707223EAE373BE
:1029F00013FB02F340F6E442C3F30F36B2EB233F7E
:102A00004FEA23312E8014DA37482346074630F840
:102A1000022F964251D85C1E344E305DF35C37F87D
:102A200014401B1A091B4B43121B93FBF2F318446F
:102A3000C0B2A8702E4C20461CF021FD70B1A668D3
:102A40004021F3682046984740B90C21336901AA18
:102A50002046984710B99DF90430EB704FF0804341
:102A6000D3F8384404F001042C715CB321492248A6
:102A700018F0F3FD32201CF0FDFC20480469836847
:102A800001A95B68984720B92368019C5C40C4F3A6
:102A90004020431E5C425C41AA79EB786C71BAB964
:102AA000013B2B2B01D90123AB71AA7914481B21BF
:102AB00018F0C3FD0B4807B0F0BD01330C2BA6D1B5
:102AC0006420B6E70C484FF4803118F0C6FDE3E708
:102AD000043B252BE9D80023E6E700BF582C002053
:102AE000680302005A2C0020E82002009421020012
:102AF000A4030200100001004009020004030200C8
:102B000018030200004870475A2C0020074B1A791E
:102B10004AB91888013880B240F6E24398428CBF27
:102B20000020012070470020704700BF5A2C002071
:102B300008B506484FF4803118F08FFD0448002294
:102B40001B2118F07AFD18F0A4FF00BF4009020015
:102B500018030200F0B50C468BB021490646154615
:102B60001F46FDF7E7FA78B9042C19D11D4B1968F7
:102B700022463846A847002802DA6FF0040600E033
:102B8000002630460BB0F0BD17493046FDF7D2FAAB
:102B900030B9042C04D1134B196822460431E8E7FC
:102BA00030461249FDF7C6FA0646B0B9282C14D1B2
:102BB000224669463846A8470028DEDB0C4B009ABF
:102BC0009A42DED1074B01AD1C680FCD08340FC40B
:102BD0000FCD0FC42B682360D3E76FF00106D0E759
:102BE000A321020030120020AC210200B621020015
:102BF0003143505310B5014604460422054800F005
:102C00005BFD30B90422A1180348BDE8104000F074
:102C100053BD10BDA0210200A921020038B50A4B06
:102C20000546186000F064FE044650B9074800F0FD
:102C30007DFD6B6803F5806304466B602846FFF7F3
:102C4000D9FF204638BD00BF30120020B02102005D
:102C500030B58BB0084B009300F108040FCC01ADE8
:102C60000FC50FCC0FC5236804482B602822694686
:102C700000F022FD0BB030BD31435053B3210200B0
:102C800010B51C46BDF8083010464BB9631E0F2B1B
:102C900006D8054B1B680BB121469847204610BD4E
:102CA0006FF00C00FBE700BF4412002070B586B047
:102CB000BDF82810002933D1132B31D101AB02F11B
:102CC00010061C46106851681D4603C50832B24202
:102CD0002B46F7D111889278AA7029809DF804308C
:102CE000012B03D06FF0120006B070BD0E4B1B68B5
:102CF000002BF7D0204698470028F3D10B4A2346F3
:102D000005AD1C4603CCAC4210605160234602F175
:102D10000802F6D12188A378937011801320E3E78D
:102D20006FF00C00E0E700BF401200209B3800204D
:102D30004B1E59425941014B197070479938002078
:102D40004B1E59425941014B197070479838002069
:102D50004B1E59425941014B19707047973800205A
:102D600030B5CD68094CA54285B00DD0084CA542C0
:102D70000CBF07241324CDE90154BDF82040009472
:102D80001BF02DFD05B030BD0824F4E7B538002058
:102D9000AE38002010B50B4C2368834203D103F0FA
:102DA0003FFA00232360084B00201870074B18706F
:102DB000074B1870074B1B6813B1BDE8104018474C
:102DC00010BD00BF3812002097380020983800202E
:102DD000993800203C12002010B5044691B90A4BE6
:102DE00019701AF039FB094B09491860094B0B603F
:102DF000204605F0A1FA084B1B681BB1BDE8104046
:102E00000120184710BD00BF9A380020381200205A
:102E10003412002099B601003C120020044B1860C7
:102E2000044B1960044B00201A6002F0CDB900BFBA
:102E300044120020401200203C12002037B50B4CF9
:102E400023787BB90A4B1B6863B90125094B0A49F2
:102E50000A480095022202F0FDFE10B110F1780F31
:102E600001D12570002003B030BD00BF9A3800208A
:102E7000381200205C0902006409020048090200BF
:102E800010B5044C23781BB102F016FF0023237009
:102E900010BD00BF9A380020024B1868003818BFD8
:102EA0000120704738120020014B1878704700BF8E
:102EB0009A380020074A0368136043685360064B42
:102EC000186830B1054B1B781BB10549082318F071
:102ED000E4BB7047B5380020381200209938002034
:102EE0008809020070B5104D0446014607222846A5
:102EF0001CF0D2FF23682B60A388AB80A379AB7151
:102F00000646207800F0B0FB66B1084B186848B15F
:102F1000074B1B7833B12A460649BDE870400723AA
:102F200018F0BBBB70BD00BFAE38002038120020C7
:102F300097380020500A0200064B00F1100250F8AA
:102F4000041B43F8041B9042F9D102881A8082784E
:102F50009A7070479B380020064B0246186830B1C3
:102F6000054B1B781BB10549182318F096BB6FF071
:102F70007F0070473812002098380020C4090200F2
:102F800010B5094C0A44914200D110BD11F8013B23
:102F9000584003090001E35CC0B2434018091B011B
:102FA000205CDBB25840EEE7C3210200014B1B68F6
:102FB000184700BFA002002030B585B004460D467A
:102FC0001022002168461CF05FFF02238DF80230BA
:102FD0002A46044B01932146684617F029F905B0AB
:102FE00030BD00BFAD2F000080B505460E46174628
:102FF000984616F0EFFC03461DF028F9DFF818900C
:10300000044649F80030424630463946A84754F84D
:10301000090000F0CBFE00BF080000002DE9F047DA
:10302000058B04462807904611D4022905F00705B0
:1030300040F0CC80204618F051FD78B10138218B4A
:10304000042811D8DFE800F0C2106D859500012931
:103050000CBF45F0100545F02005258388F3118845
:10306000BFF36F8FBDE8F08701F0070AAA4500F0B3
:10307000A5800027B9463E46A368002B00F0BC801F
:1030800041F00801218388F31188BFF36F8FA16895
:10309000002900F0BA800D68002900F0B680D1F850
:1030A0000480334652462046C047002D76D02B6818
:1030B00029461D46F0E701F007035A1F012A1BD8D5
:1030C000002221F00701062B276889B2C4E90022FB
:1030D00009D13B4603E0628B013262831B68002BFF
:1030E000F9D141F002012183204618F0F7FC0028B5
:1030F0007AD041F0200176E0042B0AD121F00701BB
:1031000089B22183204618F0E9FC10B141F020017A
:103110002183218B01F0070AAA454FD00027B94629
:10312000AAE7236921F0070141F00601062DD3F833
:10313000009021832DD1B9F1000F3FD041F008015B
:10314000218388F31188BFF36F8F3A492046C8471F
:1031500029E021F00701236941F0040189B2042D1F
:10316000D3F804902183E6D000273E464FF0040AAE
:1031700082E721F00701236941F0050189B2052D9D
:10318000D3F808902183D6D000273E464FF0050A99
:1031900072E700273E464FF0060A6DE72B4687E7A9
:1031A000B9F1000FD1D1EFF31188202383F31288F6
:1031B000BFF36F8F238B23F008032383258BEA064D
:1031C0002ED525F01003238305F007056669218BB2
:1031D000002EBFF670AF00232768C4E9003321F04A
:1031E000070141F001012183218B01F0070AAA4563
:1031F0004FF000097FF440AF002F9CD041F0080150
:10320000218388F31188BFF36F8F002FC8D03D68EA
:10321000394633465246204618F08CFC2F46F4E7D8
:10322000AB067FF51BAF25F02003238305F00705D0
:1032300000E700BF61BB01002DE9F7430F460646DA
:103240000821C06ADFF8509018F0D7FD3C68241AB6
:1032500080463C6004EA0905AC4203D8002003B074
:10326000BDE8F08308236A462146304618F05DFD2C
:103270000028F4D16946304618F0C9FD40B1BDF8C8
:103280000230BDF804203C6005EA090513441D44E2
:10329000A4EB0804E0E700BF0000FFFF73B504469D
:1032A0000821C06A124E18F0A8FD4FF6FF7263683D
:1032B000ADF800208DF80620A28919183340134478
:1032C000181A002560606846ADF80210ADF8045089
:1032D00018F08AFD6946204618F059FE2046211D47
:1032E00018F05CFD636828463340A36002B070BDEF
:1032F0000000FFFF2DE9F047044688B000F11407F5
:1033000038461CF0C6F9A06A8368DB689847E0621B
:1033100028B96FF01505284608B0BDE8F087A06A07
:103320008368DB6898470368013B1F2BF1D8A06ACC
:10333000216805AA1BF0D0FD0028EAD1A589002D3F
:10334000E7D0069BB5FBF3F203FB1255002DE0D14D
:10335000E389012BDDD9E36A009593F805904FF0DE
:10336000FF334FF0FF32384615F0B2FCE06A082117
:1033700018F043FDA8460646E3891FFA85FA53452F
:1033800008D8E389434523D1384615F019FD6FF07D
:103390002C05C0E7A1892B04891B13FA81F14A4649
:1033A00008232046009118F0CEFC78B169462046EB
:1033B00018F0F4FC08F10108009908234A46204659
:1033C0001FFA88F818F0BFFC0028DAD00135D3E7DF
:1033D00053450BD1009908234A46891B204618F013
:1033E000B2FC18B96946204618F0D8FC6946204658
:1033F000FFF722FF054618B1384615F0E1FC8AE7D1
:10340000009B63604FEA13484FEA0848C4F80880FD
:10341000D4E9011399420FD3082301AA204618F0DA
:1034200084FC05460028E7D101AB13F8012B914538
:1034300033D10135082DF8D163681B0C1B04694694
:103440002046009318F0AAFCA38900994A4620461A
:1034500018F079FC051ECFDB636876D006EB030815
:103460004FF6FF79A389CDF800801FFA88F29B1BE5
:103470009A422ED300236168002B43D0090C090423
:1034800000912046694618F089FC0099204618F002
:1034900092FC0546002D74D0AEE701A9204618F035
:1034A000B6FC626810B9921B6260B1E7BDF80850C3
:1034B000BDF80610E06AC4F80880294418F09DFCA5
:1034C00040449042A060EED1002DECD06FF01C057E
:1034D00068E0082303AA4146204618F026FC05466A
:1034E000002889D103A9204618F091FC30B1BDF81D
:1034F0000C304B4502D1BDF810300BB1B044B1E7F0
:103500000123B8E7204618F056FC054600287FF452
:1035100073AF6368264AA18913400B44A3EB4603AB
:1035200063601340A360204618F059FDB1E75B1AB1
:103530004A46204618F007FC051EFFF65DAF08D08E
:10354000E26AA36812681344A360D4E901318B4294
:10355000EDD86168A38901EB46029A429AD1DFF85F
:103560005080A26801EA08039A4293D0204618F0DE
:1035700022FC054600287FF43FAF636803EA080396
:10358000A360A389A288A3EB46039A4206D03846DB
:1035900015F016FC012323740025BCE6204618F024
:1035A00007FD0546384615F00BFC002DF2D0B2E6BB
:1035B0000000FFFF014B0360002070478C0A0200EF
:1035C00070B5104B1C680D46B4B10F4B1968002341
:1035D0008B4202DB6FF0010070BD224612F8106BC7
:1035E000864202D001331446F2E7E0681BF047FF41
:1035F00028B12C600020EFE76FF00C00ECE76FF0D3
:103600001200E9E7A40200208C0A020010B588B07D
:10361000436802938368C068CDE903320A680023D7
:10362000CDE906230C4601AA044905931BF058FC7A
:10363000079808B9059B236008B010BDEDC30100D1
:1036400010B5084C86B024788DF8174001240294F8
:103650000DF117040194BDF8204000941BF0BFF851
:1036600006B010BDFB05002000B589B064288DF8B8
:10367000070019D80E4B18221870002102A81CF060
:1036800003FC0C4B03930DF10703049302A90123E0
:103690000020ADF8143004F059FD10F1800F08BF80
:1036A000002009B05DF804FB6FF01500F9E700BFDA
:1036B000FB050020E40A02002DE9F0410F4B1C68D5
:1036C00005460E461746ACB14FF0FF324FF0FF33C0
:1036D0000B4815F0FDFA63683246D3F80880294696
:1036E0003B462046C0470446054815F069FB204686
:1036F000BDE8F0816FF00104F9E700BF4812002037
:103700009C06002000230360044B5A6812B9C3E9E9
:103710000000704710605860704700BF4C120020D6
:10372000014B1860704700BF4812002030B585B0CB
:1037300000230546CDE9023301904FF0FF330C48DA
:103740004FF0FF3215F0C4FA0A4B1C684CB92846FA
:1037500000F06EF80446064815F032FB204605B02E
:1037600030BD636820461B6801A998472468EDE7CF
:103770009C0600204C120020024B0022C3E90022CC
:10378000704700BF4C120020024B0022C3E9002208
:10379000FFF7F2BF541200202DE9F74307460C460D
:1037A00009B100230B601F4DDFF8809000264D45C6
:1037B0000FD31D4B1D6885B355F8188C01AA4146DF
:1037C0003846183D18F050FE10B3D6B914BB2E463B
:1037D0001EE0D5F8008001AA4146384618F044FEA4
:1037E00050B116B954B92E4606E031680022404661
:1037F00018F03AFE0028F5D11835D8E7019B236070
:10380000F1E731680022404618F02EFE0028DDD195
:10381000AD69D0E7019B2360D9E7304603B0BDE82E
:10382000F08300BF48060200541200207806020010
:103830002DE9F047DFF8B090DFF8B0A080464FF0F8
:1038400000470026274C3D464C450DD3DAF8004092
:10385000002C42D0183CB8F1000F25D122695ABB88
:10386000A469F5E72F46EDE7B8F1000F03D122690F
:103870004AB91834E8E720680022414618F0F4FD00
:103880000028F4D1F5E76368BB4205DDAF4209D0FB
:103890009D42A8BF1D46ECE7EBD19047002E08BF24
:1038A0000646E6E71D46E4E720680022414618F098
:1038B000DBFD0028D2D1D3E76368BB4205DDBD4202
:1038C00009D09D42A8BF1D46CAE7C9D19047002E26
:1038D00008BF0646C4E71D46C2E7AF42C2D1304624
:1038E000BDE8F08748060200780602005412002066
:1038F00038B50C4D0C484FF0FF334FF0FF3215F048
:10390000E7F92B783BB9FFF73FFF00F06DF804466D
:1039100010B901232B700024034815F051FA2046FA
:1039200038BD00BFBD3800209C0600202DE9F047BF
:10393000048FDFF8B0A0013498B006468946A4B2DF
:1039400000F10807651EADB2B5F5004F47D04A2318
:1039500005AA2946384618F041FD04F57F543F3446
:10396000A4B28046214601230DF10B02384618F01F
:1039700035FDB8F1000F014610DC002810DC338F54
:10398000AB4209D132466B1E22F8383F4FF400415A
:103990000223384618F0F0FB2C46D3E7002808DC59
:1039A0002946384618F0B6FC2146384618F0B2FCD5
:1039B000E5E708F160030DEB0308002308F84C3C31
:1039C0005246CDF8009003AB05A80397ADF8104020
:1039D00018F06EFD0028DFD018B0BDE8F087002099
:1039E000FAE700BF1FC501007FB501236946032028
:1039F0000193FFF7E5FD044660BB02AA01A903207D
:103A000018F016FD044610B110F10C0F22D10399E5
:103A1000B1F5803F23D2009A0023946818460844E9
:103A200084421AD30133082BF9D10E4DA982EB82BF
:103A30005368AB602846D368EB6318F008FE044671
:103A400040B9094E6E602846FFF75CFE28466E605E
:103A5000FFF766FE204604B070BD9BB2E5E76FF04D
:103A60002004F7E75C120020C802002030BFFFF7F7
:103A7000FDBF00BF2DE9F0410B4EDFF8348006EBAF
:103A80000807CC1B05463246084920461CF0D4F9ED
:103A9000A01942460021083C1CF0F6F96C6707F1BA
:103AA0000800BDE8F08100BF0000000078060200B9
:103AB00004000000054B9A699B689A421FBF044AA4
:103AC000536843F080535360704700BF582B002069
:103AD00000ED00E070B5264B15469A6A12F0100F03
:103AE0009A6A14BF1124102412F0080F9A6A18BFA2
:103AF0001224920706460AD5586B9A6A140634D5E2
:103B000019B19A6A22F080029A62132401E06FF0E0
:103B10001500174B9A6A12F0010F9A6A18BF142405
:103B200012F0200F9A6A18BF1524D20602D49B6A9D
:103B30009B070AD50E4B5B68190506D5314600F088
:103B40006BFA10B180F309880224094B9A6A920635
:103B500042BF5A6A22F400525A629A6A42F0FF0245
:103B60009A6200232B70204670BD6FF01500CCE7E1
:103B700000ED00E0134B9A6A12F0007F9A6A14BFBE
:103B80001E201D2012F0807F9A6A18BF1F2012F499
:103B9000002F9A6A18BF212012F4802F9A6A18BF4A
:103BA000222012F4003F9A6A18BF232012F4803FAB
:103BB0009A6A6FEA02426FEA12429A6218BF2420A0
:103BC000704700BF00ED00E010B5194B0246986A3F
:103BD0009C6A10F4805F14BF1720162014F4006F45
:103BE0009C6A18BF1820A40509D5986B986A000430
:103BF00004D51AB19A6A22F400429A6219200C4B39
:103C00009A6A12F4806F9A6A18BF1A20D2050CD4EF
:103C10009B6A13F4005F18BF1C20054A936A43F4A3
:103C20007F43936200230B7010BD1B20F5E700BF9C
:103C300000ED00E070B5454B5B689CB00546C3F3F2
:103C40000803002686F31188BFF36F8F02F07F40D0
:103C5000B0F17F4F11D102F00C0008280DD01007F1
:103C60004CBF0D4601260022033B8DF80720032B95
:103C700005D8DFE803F01E5D615A3546F3E70024FE
:103C80009DF807309BB96822294602A81CF0D4F899
:103C9000099B002E54D0C3F3080222B96FEA5323C4
:103CA0006FEA4323099302A9204618F005FD1CB0D2
:103CB00070BD264BDA6A9107E1D4DA6A002ADEDBAE
:103CC000DA6A5200DBD55A69A96942F480725A61F6
:103CD000BFF34F8FBFF36F8F5A6931F8021C22F484
:103CE00080725A61BFF34F8FBFF36F8F4DF6027230
:103CF00091420AD09A6AD2B24AB10DF1070201216B
:103D00002846FFF7E7FE0446BAE72C68B8E79A6A48
:103D100012F47F4F05D00DF107010120FFF754FF8A
:103D2000F1E79B6AB3F5803FA9D3FFF723FFEAE7EA
:103D30000DF107020021E3E70DF107010020EDE797
:103D400023F4FF7323F00103ACE700BF00ED00E0B4
:103D5000044B5A6942F010025A615A6922F0080273
:103D60005A61704700ED00E0EFF30880EFF309813E
:103D700001B57246FFF75EFF01BD00BF13F0B2FB55
:103D8000202080F3118808484FF40861401880F320
:103D90000988EFF314800221084380F31488BFF3ED
:103DA0006F8F00F0C1F8000000450020084B9B68B1
:103DB00083420BD1EFF3058343B1064B5A6842F0BF
:103DC00080525A605A6A22F400425A6215F008BEC4
:103DD000582B002000ED00E023498A6882F8C1E0FA
:103DE0004FF030001044EFF3098C80E8F01F1EF014
:103DF000100F03D102F1800080EC108A202080F3A4
:103E00001288BFF36F8F194F4FF000668A698A607E
:103E10003E60506F164C206092F9C1E0906F002315
:103E2000936780F311881EF0100F03D00023E1EE9A
:103E3000103A03E002F1800090EC108AEFF3148353
:103E400023F0040383F31488BFF36F8F04B5104687
:103E500000F078F9BDE8044002F1300090E8F01F6E
:103E60008CF3098870470000582B002004ED00E017
:103E70009C1200201EF0040F0CBFEFF30880EFF33C
:103E80000980816911F8021C0229FFD001B5724630
:103E900018F018FC01BD00BF40B2002807DB044A3F
:103EA0004109012300F01F00834042F82130704790
:103EB00000E100E040B200280CDB4309064900F0B5
:103EC0001F0020330122824041F82320BFF34F8F8F
:103ED000BFF36F8F704700BF00E100E0054B420960
:103EE00000F01F0053F82220012303FA00F01040D5
:103EF000704700BF00E100E040B20028A8BF00F119
:103F0000604001F10101B8BF064B4FEA4111ACBF5F
:103F100000F5614000F00F00C9B2B4BF195480F839
:103F20000013704714ED00E0144A08B5144B22F05A
:103F30007F029A60BFF34F8FBFF36F8FD3F8882053
:103F400022F47002C3F88820D3F8882042F4A0023B
:103F5000C3F888204FF04042C3F83422BFF34F8F9C
:103F6000BFF36F8F0023E1EE103A14F0F5FC15F06B
:103F70006FFE00F0BDF814F031FD00BF000000003E
:103F800000ED00E042F8203C009B42F81C3C019B05
:103F900042F8183C0A49029B42F8143C4FF08073E7
:103FA00042F8043C21F00101002342F8081C203AA9
:103FB00083674FF47D430265C0F8C030704700BF8F
:103FC000E92F0000037B13F0020F124B03D190F88E
:103FD000C120D20611D45A6B42F080425A63D0F805
:103FE000C03019075CBF43F00803C0F8C030037B42
:103FF00043F002030373802070475A6B22F0804223
:104000005A63D0F8C0301A0744BF23F00803C0F841
:10401000C030F0E700EF00E0094A0346906870B155
:1040200013F1160F406E05D0A0F180029A4205D818
:10403000834203D2814228BF00207047002070478E
:10404000582B0020104B9B6883421AD1EFF3058058
:10405000B8B9EFF31181202282F31288BFF36F8F7A
:104060001A7B22F002021A73EFF3148323F0040385
:1040700083F31488BFF36F8F81F31188BFF36F8FC1
:1040800070476FF015007047582B002008B5154693
:104090000E460022E1EE102AEFF3148222F0040211
:1040A00082F31488BFF36F8FBFF36F8F094A0A4BF7
:1040B0009060426F1A6000F045F82C4686F309883C
:1040C0000020064B98472046002100220023044C84
:1040D000204700BF582B00209C120020E3C601009F
:1040E000E92F0000014B10221A61704700ED00E03B
:1040F000044800232021C2180133302B82F800131A
:10410000F9D1704700E100E008B5EFF30583064AF6
:10411000103B02EBC30152F8330049688847BDE801
:104120000840FFF7C7BC00BFB8030200024B034AB8
:104130000348012100F07CB80000022000000020AC
:10414000340B020010B50446FFF73CFF626E0346D5
:104150000548D21AC0E90023044B8360BDE8104033
:10416000012100F06FB800BFA012002000000B1565
:10417000084AC2F898000B6823F01F03034343F07A
:104180001003C2F89C308B6843F00103C2F8A030E2
:10419000704700BF00ED00E02DE9F043DFF86080DC
:1041A00085B00E461F4604464FF00009B14523DA9C
:1041B0006068D8B13FB1411E08421BD17F2819D990
:1041C0002368194216D12368019318F0ADFAA36849
:1041D00003430393D8F89050C5F30725D0B2013DAF
:1041E000A84207D801A9FFF7C3FF421C09F1010942
:1041F0000C34DBE76FF01502104605B0BDE8F08324
:1042000000ED00E0044B0522C3F89420BFF34F8F6C
:10421000BFF36F8F704700BF00ED00E0BFF35F8F0B
:10422000024B0022C3F89420704700BF00ED00E06D
:1042300010B5034C01232278FFF7AEFF207010BDAC
:10424000BE38002008B50B4A00231278FFF7A4FF00
:1042500010F1160F07D0084A0021D2F89030C3F3AE
:104260000723984200DB08BDC2F89800C2F8A010EE
:104270000130F2E7BE38002000ED00E02DE9F04308
:10428000534B544CD3F890302568C3F307239D4219
:1042900085B000F29A80FFF7C1FF00200C2685420E
:1042A0001AD14D4C4D4F25706846FFF783F9DFF862
:1042B0002081DFF82C9106460025AE4213D12378E9
:1042C00043490020D1F89020C2F30722934276DBC5
:1042D000FFF798FF002042E0616806FB0011FFF73E
:1042E00047FF0130DBE7009800EB05114FEA051CA2
:1042F000CB683B40B3F5000F48D00AD8B3F5001F98
:1043000030D0B3F5800F36D0B3F5801F10D0013513
:10431000D3E7B3F1807F42D0B3F1007FF7D150F8FB
:104320000C3088684A6818F0FFF940F4802009E0F2
:1043300050F80C3088684A6818F0F6F940F0885058
:1043400040F43020CDE901230390D8F89030207854
:10435000C3F30723013B98422AD96FF0150005B03B
:10436000BDE8F08350F80C3088684A6818F0DCF932
:1043700040EA0900E6E750F80C3088684A6818F00F
:10438000D3F940F0007040F40030DBE750F80C3017
:1043900088684A6818F0C8F940F08270D2E750F88F
:1043A0000C3088684A6818F0BFF940F08870C9E797
:1043B00001A9FFF7DDFE237801332370A7E7C1F8D9
:1043C0009830C1F8A00001337CE74FF0FF30C6E71A
:1043D00000ED00E0400B0200BE3800200000F0FFBE
:1043E0000000081108B50649064821F00701C1F18F
:1043F000005202F5003217F0F3FA002008BD00BFAA
:10440000D76C0020AC12002070B54169867A0B4D44
:10441000044659B1437ADB0706D42C2303FB065329
:104420005B6A1B689B689847002363612C202146C8
:1044300006FB0050BDE870401BF006BA28070020BC
:10444000024B2C2202FB0030704700BF28070020DF
:10445000827A064B2C2101FB02339A6A1B7F1B33A5
:10446000801A23F00303B0FBF3F070472807002005
:1044700038B5074B827A2C2404FB02335B6AD3E9FC
:1044800001240C601568FFF7E3FF04FB005038BD02
:10449000280700202DE9F04385B0054668460391C2
:1044A00090461C461BF0FEFBDDE90067EFF3118927
:1044B000202383F31288BFF36F8F6B8B002B41D0C7
:1044C0002A8B9A4225D900220023284614F0C8FCE2
:1044D0000446F0B189F31188BFF36F8F039B002B63
:1044E00041D032463B4668461BF000FCA27A264B80
:1044F0002C2101FB023320465B6A1B6803A91D685F
:10450000DDE90023A847606170BB2046FFF77CFF10
:1045100024E0698B4B1E6B8389F31188BFF36F8F87
:104520002B7F2A8BAC6A1B3323F00303521A02FB46
:104530000344154B154AEB1A9B105343A3722B7F70
:10454000E372CBE789F31188BFF36F8F23464246AE
:10455000284614F085FC04460028BFD100242046DC
:1045600005B0BDE8F0836361012300252381039B2F
:104570006382E27A6560294604F118001BF084FC2E
:1045800063692582E360EAE728070020A38B2EBA3F
:1045900070B50C4C2C2500B970BD037A4668013B00
:1045A000DBB20372002BF7D1C3604360837A05FB53
:1045B00003431B6A13B198473046ECE7FFF724FF2B
:1045C000FAE700BF28070020024B0122C3F840256C
:1045D0000020704700E0014020B1034B800143F010
:1045E00001031847704700BFA006020008B5044841
:1045F0001AF045FF00280CBF6FF01200002008BD24
:104600002C0302000378012B30B513D0022B27D0E6
:104610007BB9194B0A4603F1100453F8045B42F8C6
:10462000045BA342F9D11B78137043884B731B0AB8
:104630008B7330BD104B0A4603F1100453F8045B32
:1046400042F8045BA342F9D11B78137043684B73A3
:10465000C3F307221B0CCB731B0A8A730B74E8E7A6
:1046600000F1100350F8042B41F8042B9842F9D1C3
:1046700003780B70DDE700BFFC21020008B518F0DD
:10468000A4F915F0AFF8044B1B680BB10A2098474A
:10469000BDE8084015F0BAB8B812002038B5054694
:1046A000054818F057F8044620B101210C3018F0E5
:1046B000B8F82576204638BD040800200F2810B52C
:1046C0000ED80D280ED90B4818F044F8044628B12E
:1046D00001210C3018F0A5F802232376204610BDE6
:1046E0001328F0D009B10448EEE7BDE810400220DD
:1046F000FFF7D4BF300800208007002070B5C668DF
:104700003378B6F8014083B90F21204601F03CFE12
:10471000F378054650B90A4A118831B96FEA045056
:104720006FEA10501080074A137070BD4372012168
:1047300001F0A0FD2846BDE8704001F071BD00BF4A
:10474000622C0020BF38002010B5084C014606221C
:1047500094F86F0002F038F838B994F86F00044903
:10476000BDE81040052202F02FB810BD0000002067
:10477000E221020010B5012104460C3018F08DF83A
:104780002146034A0078BDE81040002318F0EAB93A
:104790001C0C020010B5012104460C3018F07DF805
:1047A0002146034A0078BDE81040072318F0DAB923
:1047B000E40B020070B52F4817F0E5FF044600280F
:1047C00057D0017E022932D0082902D1038A032B57
:1047D00002D8FFF7DDFE20E004210C3018F05DF870
:1047E000FF22438806886276228AC6F30B009A422B
:1047F000A08301D02046ECE70F2101F0C5FD05465E
:104800000028F7D001F0F4FD320B607621462846EF
:1048100018F0C3FD284601F003FD174BD3F84C31C7
:104820003BB3BDE87040154915481BF0BAB8038A80
:10483000012BCED90C3018F030F80546007818F06E
:1048400021F910F002060DD10E4A0F490F4840F62B
:10485000D33317F011F986F31188BFF36F8F032359
:10486000184602DF0A4A28780423214618F07AF90C
:10487000C0E770BD4C01002000000020EC020020C9
:10488000680800200D220200412202006F2202006F
:10489000C40B02002DE9F0478846164682460028E0
:1048A00079D0BFF35B8FDFF8F890002359E8004F11
:1048B00049E80032002AF9D1BFF35B8F002C6AD09F
:1048C0002046FFF7C5FD354D0C2303FB005027465E
:1048D0004388534511D0BFF35B8F59E8003F49E847
:1048E0000072002AF9D1BFF35B8F002B53D01F4613
:1048F0003846BDE8F047FFF74BBEA6420FD0204632
:1049000017F023FF04F10C09022301214846237606
:1049100017F087FF328AF168484617F093FF204668
:10492000FFF796FD0C2606FB00504368ABB1B8F1CB
:10493000000F12D12046FFF78BFD06FB005001212E
:104940004268D2E90003127A03F01F06B1405B0906
:10495000DAB100EB830018F0A7F82046FFF778FDE6
:104960000C2606FB00508368002BC1D02046FFF7C1
:104970006FFD704305F800802046FFF769FD06FBD8
:104980000055A86814F09EFAB2E7C94300EB830013
:1049900018F0FFF8E1E7BDE8F08700BFBC12002087
:1049A0004801002010B5C1E900239DF808300B72C2
:1049B0000C46FFF74DFD034B0C2202FB00335C60FD
:1049C00010BD00BFBC1200202DE9F0474FF0FF32B0
:1049D00006464FF0FF331848884617F0BBFE0446E2
:1049E00038B300F10C070121384617F01AFF0123F4
:1049F00023762046FFF72CFD104D4FF00C0909FBE4
:104A000000504FF0000A46802046FFF721FD09FBC9
:104A10000050C0F808A02046FFF71AFD09FB00551A
:104A200003213846C5F804A017F006FF068080F879
:104A300002802046BDE8F087D8070020BC12002085
:104A4000034B0146D3F86C0182689268104700BF9F
:104A5000000000202DE9F843044600F10C06304622
:104A600017F02BFFB4F81080B8F1010F054604D8F9
:104A70002046BDE8F843FFF78BBD3046022117F012
:104A80000CFF0746007817F0FDFF10F001090646FD
:104A90000DD10F4A0F49104840F6F27316F0ECFFA3
:104AA00089F31188BFF36F8F0323184602DF0523B4
:104AB0000A4A3878214618F055F8B307D8D5636903
:104AC000A4F8108013FA85F5E560BDE8F88300BF0F
:104AD0000D2202008C2202006F2202009C0B0200B9
:104AE00038B50C4614F07EFE237E022B0AD0082B2C
:104AF00019D121460F4817F031FE0F490F481AF01F
:104B000050FF0BE0E368187817F0BCFFC2070546BA
:104B100002D52046FFF79EFFAB07EAD4002414F02D
:104B200075FE204638BD2046FFF732FD6FF01504B4
:104B3000F5E700BF4C010020EC02002068080020CF
:104B40000148042117F0B0BFD4000020004870478E
:104B5000BA210200014814F0ABBB00BFDC02002008
:104B600038B505460C4619B9FFF72EFF0446A8B123
:104B700040F635439D4209D12046FFF761FF0546C7
:104B800050B12046FFF704FD284638BD05482146B0
:104B90001AF04FFEFFF7DEFF0025F5E76FF068051E
:104BA000F2E700BF5401002038B502460B46244D01
:104BB000D5F8541109B9002038BD05F5987014F0E6
:104BC000BBF90028F7D10022002305F5AA7014F0E4
:104BD00047F9044668B91B4A1B491C4840F6E233B2
:104BE00016F04AFF84F31188BFF36F8F0323184632
:104BF00002DFD5F8480120B1FFF7CAFC0023C5F851
:104C00004831204617F0D5FDC5F848012046FFF78A
:104C100017FF98B10E4814F055F92046FFF718FC1D
:104C20000C4B0C2202FB00301F2140882246FFF76C
:104C300031FE2046FFF7ACFCFFF78CFF0120BBE7FD
:104C4000000000200D220200A52202006F220200B7
:104C500030010020BC1200202DE9F04F064687B03D
:104C600015460C4631B9FFF7AFFE044648B96FF060
:104C700068007BE0887AFFF7E3FB484B834240F013
:104C800086800122002168461AF0ECFD2046FFF7DD
:104C9000DFFBDFF82C910C2303FB0090C0F808D059
:104CA000204617F086FD01463D481AF0C2FDFFF789
:104CB00051FF1BF0CBFA3B4B1A583B4B9A4222D187
:104CC000DFF8F0A0DFF8FCB035481AF0C7FD00218E
:104CD00080464FF4A020FFF767FF074688B94FF4DE
:104CE000D77352465946314816F0C6FE3048314611
:104CF00016F0C2FE87F31188BFF36F8F03231846A7
:104D000002DF4445E0D14FF4A0220023684614F0AE
:104D100013F9074698B14FF4DA73264A2649234817
:104D200016F0AAFE25483A46314616F0A5FE0023A5
:104D300083F31188BFF36F8F0323184602DF2046E9
:104D4000FFF786FB0C23584319F80060BEB12046DC
:104D5000093EFFF71DFC092E0ED8DFE806F01B0DFB
:104D60000D0A050D0D0D0D186FF00B0007B0BDE815
:104D7000F08F6FF00C00F9E76FF00400F6E715B163
:104D80002C600020F2E72046FFF702FCF9E76FF005
:104D90001500EBE76FF06E00E8E700BFD8070020D2
:104DA0005401002008000000700F00206F22020054
:104DB000B12202000D220200D1220200DA220200FA
:104DC000BC120020A9220200F7B5144B93F99B30C6
:104DD000002B05460C461DDA14B9204603B0F0BD81
:104DE000082C01AA4FF0000142F21800264628BF05
:104DF0000826FFF731FF0028F0D1019FF9683246FD
:104E0000013128461BF018F83846FFF7C1FB35443E
:104E1000A41BE1E76FF08500E0E700BF0000002081
:104E2000F7B5002101AA40F60340FFF715FF04463D
:104E3000002869D10198C3681B788BB9BFF35B8FD9
:104E4000AC4B1A68BFF35B8F02F00902BFF35B8FB4
:104E500053E8001F43E80024002CF9D1BFF35B8F17
:104E6000FFF796FB01AA002141F20300FFF7F4FED1
:104E70000446002848D1019A9F4DD168D1F801001D
:104E8000D1F8051005F1780303C31046FFF780FB46
:104E9000214601AA41F20100FFF7DEFE044698BB5D
:104EA0000198C3685A7885F870205A88A5F872204E
:104EB0001A7985F87120B3F80720A5F87420B3F8A3
:104EC0000530A5F87630FFF763FB214601AA41F2D1
:104ED0000200FFF7C1FE0446B0B9019FFA6805F170
:104EE0008006531C413218685968344603C408339D
:104EF00093422646F7D13846FFF74AFB95F87C30B7
:104F00005E0604D46FF01204204603B0F0BD01AA7F
:104F1000002142F20300FFF79FFE04460028F3D170
:104F2000019B764EDA68D2F80100D2F8051003C66C
:104F30001846FFF72DFB214601AA42F20200FFF7B7
:104F40008BFE04460028DFD1019CE368B3F8012002
:104F500091B249B1D97839B1A5F80421DA7811466E
:104F600006F128001AF07EFC2046FFF711FB95F8A9
:104F70007C601F2316F02006A5F8203118D10221ED
:104F800040F66D40FFF720FD0446002800F0A980A0
:104F900002210C3017F050FC0123037046702146AB
:104FA000324640F66D40FFF757FE04460028ABD16D
:104FB00095F89C301C0712D501AA002142F21C0072
:104FC000FFF74AFE044600289ED10198C368D3F833
:104FD0000120D3F80530C5E93823FFF7D9FA95F851
:104FE000D830980623D50DF10201684617F035FF39
:104FF0000446002888D1042142F22400FFF7E4FC93
:10500000064600286DD004210C3017F015FCBDF8C1
:1050100000300380BDF8023043802246314642F220
:105020002400FFF719FE044600287FF46DAF082125
:1050300042F20100FFF7C8FC0446002851D00821C5
:105040000C3017F0F9FB95F8D82012F0020F14BFBE
:105050002F230F23910695F8D92048BF43F0400332
:1050600012F0090F18BF43F4006300220370C3F36A
:10507000072343708270C270027142718271C271E3
:10508000214642F20100FFF7E7FD044600287FF4C5
:105090003BAF95F87C30B5F804119A0624D4C9B911
:1050A00001AA41F20500FFF7D7FD044600287FF46E
:1050B0002BAFB5F80431019C4BB9E368B3F801207C
:1050C000A5F804219A880E4811461AF0CBFB204619
:1050D000FFF75EFA082140F60140FFF775FC044631
:1050E00080B96FF068040FE70029F3D16FF0040472
:1050F0000AE700BFD400002000000020D8000020F4
:105100000801002008210C3017F096FB10230370D3
:105110008823437002230022C3702023827002710F
:1051200042718271C371214640F60140FFF794FD40
:10513000044600287FF4E8AE014601AA4FF601407C
:10514000FFF78AFD044620BB0198FFF721FA2146AC
:1051500001AA4FF60240FFF77FFD0446C8B9019847
:10516000C368B3F80130A5F8C130FFF711FA95F81C
:10517000C1305B070DD501AA21464FF60340FFF76A
:105180006BFD30B90198C3685B7885F8C030FFF7D4
:10519000FFF900F093FB044600287FF4B5AE01F060
:1051A000E7FB044600287FF4AFAEFFF7C9FCABE68F
:1051B00010B5FFF735FE034B1B6813B1BDE8104077
:1051C000184710BDE012002073B5254D0646D5F8EE
:1051D0006C011AF054F900283BD06FF0020105F180
:1051E000D40017F0D6FC012117F05EFC10EA010490
:1051F00032D11C4B1E600A4605F598701AF032FB3E
:1052000005F5AA701AF0D7FA17481AF0F5FB1749F6
:10521000154800946FF007034FF4966214F04EF8AF
:10522000134911481AF013FCD5F86C011149836831
:105230001B689847044648B926B902B0BDE87040DB
:10524000FFF7EEBD05F1C40014F032F8204602B0BD
:1052500070BD6FF01204F9E76FF07704F6E700BF56
:1052600000000020E0120020680800200039002023
:105270001F230200E14A00002DE9F0435A4BB0F829
:105280000180198848F4704291424FF0000602BF35
:105290001E80564B1E78C378012B08BF544B00F17B
:1052A000040485B0054620460CBF93F86F700027B4
:1052B00017F087FB2146B0B102A817F077FBD5F8AD
:1052C0001130CDF80130B5F81530ADF805304FF09C
:1052D0000109EB78012B1DD01321404617F0D5FDB5
:1052E00005B0BDE8F083384617F08EFE034600682F
:1052F00002909A889B796868ADF80C208DF80E3082
:10530000A288A37995F804900090ADF804208DF858
:105310000630DEE702A8FFF717FAEB78012B044608
:105320000AD100F061FB6FF080010746103017F0E2
:1053300030FC384617F0D8FF002CCDD02346B5F806
:10534000012023F8702B02989DF80E20BDF80C1058
:1053500020679A719980B5F81730A4F88630B5F8AF
:105360001930A4F88C30B5F81B30A4F88E30EB78E7
:10537000E3700022012B627224D18DF80090BDF8F9
:1053800004209DF806300098A4F87B2084F87D3036
:10539000C4F8770000F028FB237A154AC3EBC30357
:1053A0009918D358C4F87E308B88A4F882308B7952
:1053B00084F88430D2E9381303F03F03194301D055
:1053C00000F0B6FC0721204600F054FF26B16672BB
:1053D0000121204600F04EFF204601F039F820461A
:1053E00000F01EFF7CE700BF622C0020BF380020C9
:1053F0000000002000B5C3681A7889B032B13C2A99
:1054000032D109B05DF804EB17F0CFBB8DF8002066
:10541000B3F80120ADF80120DA788DF80320B3F855
:105420000B20ADF81720B3F80D20ADF81920B3F814
:105430000F20ADF81B205A7C8DF81D205868019074
:105440001A899B7A8DF80A30094BADF80820684616
:105450001A689B88CDF80B20ADF80F30CDF81120DD
:10546000ADF81530FFF708FF09B05DF804FB00BF89
:10547000F621020038B5032104460C3017F00DFA6E
:10548000E3680578B0F80100197840F63543984292
:105490000AD02246FFF7FEF935B1044813F012FD99
:1054A000BDE83840FFF756BB38BD00BF30010020D3
:1054B00038B5042104460C3017F0EFF9457801782F
:1054C00040882246FFF7E6F935B1044813F0FAFCAC
:1054D000BDE83840FFF73EBB38BD00BF30010020BB
:1054E00070B54FF0FF320D464FF0FF3300210646F6
:1054F000FFF7E4F8044660B90A4A0B490B48132346
:1055000016F0BAFA84F31188BFF36F8F032318469D
:1055100002DF022104F10C0017F08EF906704570CD
:10552000204670BD28230200A52202006F2202003F
:10553000F8B50A4DEF7906460024E3B29F4202D83F
:105540006FF0010007E02946304617F055FD07359A
:10555000631C08B12046F8BD1C46EEE700000020A1
:1055600070B5144E0622314604461AF095FCD8B1A7
:10557000062142F20500FFF727FA0546B0B10622E0
:1055800021460C3017F05EF90022294642F2050050
:10559000FFF762FB48B93346226843F86929A288BD
:1055A000B280012283F86820002070BD6FF068008F
:1055B000FBE700BF6900002037B504460D4689B1FE
:1055C0001849284617F018FD60B9174A2968C4EB36
:1055D000C404A3181151AA889A80AA799A7100204C
:1055E00003B030BD684617F0D3F90028F8D16846FB
:1055F000FFF79EFF0028F5DA0B4A00989DF8061089
:10560000C4EBC404A3181051BDF80400988099712C
:10561000002DE4D012592A609A88AA809B79AB7138
:10562000DDE700BFE92102000000002070B504465C
:1056300011B16FF0150070BD80B11C4917F0DCFC92
:1056400060B92046FFF774FF002829DA2378012B80
:10565000EFD1A37903F0C003C02BEAD1144DEB794D
:10566000012B20D0BFF35B8FD5F8D430BFF35B8F15
:10567000DB0707D4002CDCD00C49204617F0BCFC1B
:105680000028D6D1EE792146731C3046EB71FFF726
:1056900093FF08B93046CEE7EB79013BEB71CAE7DF
:1056A0006FF07700C7E76FF00B00C4E7E921020055
:1056B000000000202DE9F3410446D8B101AA0021E1
:1056C00041F20900FFF7C8FA054698B9019E124950
:1056D000D6F80C8008F10107062238461AF0DCFBE8
:1056E00028B10E49062238461AF0D6FB30B93046AA
:1056F000FEF74EFF002002B0BDE8F081D8F801307F
:10570000C4F80130BB88A4F8053030462570FEF798
:105710003FFF0120EFE700BFF6210200F021020069
:1057200007B56846FFF7C6FF044BD87118B1694644
:105730000020FFF741FF03B05DF804FB00000020EC
:10574000F0B5294DEE7989B0002E46D195F8C230DA
:10575000DB0722D56A4631464FF60940FFF77CFA4F
:10576000D8B9DDF800C0DCF80C406378012B1E4688
:1057700028BF012673B1A31C02AA12341868596805
:10578000174603C70833A3423A46F7D11868386072
:105790009B88BB806046FEF7FBFEEE710024162658
:1057A0000127EB79E0B2834202D8B3B1002012E0C6
:1057B00008AB06FB0033694653F8182C33F8143C49
:1057C000CDF80120ADF805308DF80070FFF7F4FE3C
:1057D00001340028E5D009B0F0BD0021084609B029
:1057E000BDE8F040FFF722BF000000202DE9F041A6
:1057F0000D4617461C460646002856D0002B54D0AE
:105800000A03037808D56D074FD417F00AFC002867
:1058100049D1012323700CE0E9072CD526480FB1AC
:10582000AA0608D4C3EBC302825C012A12D002B9D3
:105830002270002037E090F8D820510638D5C3EB0D
:10584000C302825C012A05D002B92270237843F09A
:105850000203DFE74FF00108072111FB0381014438
:10586000304617F0D6FBF0B984F80080002FE0D066
:10587000AB06DED5EAE76A0711D50F49C3EBC302D1
:105880008E5C012E08D1072212FB0363194417F026
:10589000C0FB40B92670EBE7002EE9D1FAE717F01C
:1058A000C0FB01232370BDE8F0816FF01500FAE71B
:1058B0006FF08500F7E700BF0000002010B50A4C2C
:1058C000E3790BB1002010BDFFF72AFF0028FAD1C1
:1058D000E379002BF6D1FFF733FF0028F3D1601CEA
:1058E000BDE81040FFF73CBE00000020F8B5456859
:1058F0006905064635D4046914B115F0010330D0AA
:10590000194F3078FB7983422BD9C0EBC00017497F
:10591000072238441AF0C0FAA8B115F0010306D1E5
:1059200097F87020082A02D8B2689F2A19D915F072
:10593000300F09D0ACB1EA060AD405F46035B5F5EC
:10594000603018BF0120F8BDEB0601D4002CF4D163
:10595000D6E902239A4204D81F2A02D9B3F5804F10
:10596000EBD90020EFE700BF00000020E921020092
:1059700008B50449072209301AF08EFA003818BF1A
:10598000012008BDE9210200F8B5154B067883F81F
:105990006F6004460D46FFF7EBFF70B911493046C2
:1059A00000F0CEFE044610B96FF00B00F8BD0521E3
:1059B00000F060FC2C600020F8E704F1090739468C
:1059C000304617F0C6FD40B92078394600F0B8FEE1
:1059D00004460028E8D00621EAE76FF01500E5E765
:1059E00000000020E221020000487047180000205B
:1059F0002DE9F04FD1F810908DB09A460023B9EB05
:105A0000030605469048059218BF0126079317F034
:105A100032FB0C46410740F10C812046FFF766FF40
:105A200028B96FF0150B58460DB0BDE8F08F204631
:105A300017F00EFB80460028F3D005F1100738461A
:105A400017F019FB0206C0F3C01300F1F580CDE991
:105A50000933CDF82B30A3686068ADF82030E368D7
:105A6000ADF8223017F0F8FA6FF480718DF82D0040
:105A7000754817F006FB754A23782B7082F86F3053
:105A800061680DF1250332462846FFF7AFFE8346D5
:105A90000028C8D105F10903B9F1000F18D0216918
:105AA0000868C5F809008888988089799971204626
:105AB00017F0E5FB63680646D8071BD49A0503D4A4
:105AC000169B0BB9022E56D102238DF8243023E009
:105AD0005F4A1168C5F809109188927999809A7186
