:10000000802D0120F14F0000E1370200DD4F00009C
:10001000DD4F0000DD4F0000DD4F0000000000005C
:10002000000000000000000000000000E950000097
:10003000DD4F0000000000004D500000DD4F0000CB
:100040007D530000197A01007D5300007D530000AC
:100050007D5300007D5300007D5300007D53000060
:100060007D5300007D5300007D5300007D53000050
:100070007D5300007D5300007D5300007D53000040
:100080007D5300007D5300007D5300007D53000030
:100090007D5300007D5300007D5300007D53000020
:1000A0007D5300007D5300007D5300007D53000010
:1000B0007D5300007D5300007D5300007D53000000
:1000C0007D5300007D5300007D5300007D530000F0
:1000D0007D5300007D5300007D5300007D530000E0
:1000E0007D5300007D5300007D5300007D530000D0
:1000F0007D5300007D5300007D5300007D530000C0
:1001000053B94AB9002908BF00281CBF4FF0FF317E
:100110004FF0FF3000F00CB8ADF1080C6DE904CEE3
:1001200000F022F8DDF804E0DDE9022304B07047B6
:10013000704700BF10F8012B11F8013B012A28BFBE
:100140009A42F7D0D01A7047034611F8012B03F8F2
:10015000012B002AF9D17047034613F8012B002A1E
:10016000FBD1181A013870472DE9F04786468C46B6
:100170000846089E154674461946002B40F0C2807A
:100180008542B2FA82F245D94AB1C2F1200300FA9F
:1001900002FC2EFA03F3954043EA0C0C94404FEA1C
:1001A000154EA8B2BCFBFEF8230C0EFB18CC08FBC6
:1001B00000F943EA0C43994528D9EB1808F1FF37B9
:1001C00004D2994502D9A8F102072B44A3EB0903F5
:1001D000A4B2B3FBFEFC0EFB1C330CFB00F044EAA4
:1001E0000344A04214D92C190CF1FF3304D2A042CD
:1001F00002D9ACF102032C44241A43EA07401EB191
:10020000D440002334607360BDE8F0874746DDE7E3
:100210006346F1E792BB431B01214FEA154EAFB293
:10022000B3FBFEFC200C0EFB1C330CFB07F840EA72
:100230000343984562D9EB180CF1FF3004D298457E
:1002400002D9ACF102002B44A3EB0803A4B2B3FB28
:10025000FEFC0EFB1C330CFB07F744EA0344A742E9
:100260004ED92C190CF1FF3304D2A74202D9ACF1BC
:1002700002032C44E41B43EA0040C0E7C2F1200320
:1002800020FA03F1954090402EFA03F303434FEA1E
:10029000154EAFB2B1FBFEFC0EFB1C10190C0CFB93
:1002A00007F841EA0041884504FA02F422D96918A6
:1002B0000CF1FF3004D2884502D9ACF10200294488
:1002C000A1EB08019BB2B1FBFEFC0EFB1C110CFB69
:1002D00007F743EA01439F420ED9EB180CF1FF31B7
:1002E00004D29F4202D9ACF102012B44DB1B41EA4C
:1002F000004192E76046E3E76146F7E76046A3E71F
:100300006346B7E7834206D916B9002108467BE762
:10031000C6E900E0F9E7B3FA83F78FB9834201D366
:10032000724508D8BEEB020460EB030301209C4633
:100330001EB9002168E73846FAE7C6E9004CF8E73D
:10034000C7F1200CBB4022FA0CF41C432EFA0CF12E
:1003500020FA0CF3B84001434FEA14490EFA07F5AE
:10036000B3FBF9F81FFA84FE09FB18300B0C08FBED
:100370000EFA43EA00439A4502FA07F240D9E3181D
:1003800008F1FF3004D29A4502D9A8F102002344B3
:10039000A3EB0A0389B2B3FBF9F809FB183308FB96
:1003A0000EFE41EA03418E452CD9611808F1FF3356
:1003B00004D28E4502D9A8F10203214443EA004049
:1003C000A0FB0298A1EB0E014145CE46434602D365
:1003D00006D14D4504D2B9EB020E68EB0403013897
:1003E000002EA6D0B5EB0E0261EB030101FA0CFC66
:1003F00022FA07F34CEA0303F940C6E9003198E713
:100400004046C5E74346D9E7F7B5002101AA40F6C3
:10041000034006F019F80446002869D10198C36822
:100420001B788BB9BFF35B8FB94B1A68BFF35B8F37
:1004300002F00902BFF35B8F53E8001F43E800247A
:10044000002CF9D1BFF35B8F05F02EFA01AA002131
:1004500041F2030005F0F8FF0446002848D1019A54
:10046000AC4DD168D1F80100D1F8051005F1780341
:1004700003C3104605F018FA214601AA41F2010013
:1004800005F0E2FF044698BB0198C3685A7885F8E6
:1004900070205A88A5F872201A7985F87120B3F86F
:1004A0000720A5F87420B3F80530A5F8763005F0DC
:1004B000FBF9214601AA41F2020005F0C5FF0446FE
:1004C000B0B9019FFA6805F18006531C41321868E3
:1004D0005968344603C4083393422646F7D1384658
:1004E00005F0E2F995F87C305B0604D46FF0120455
:1004F000204603B0F0BD01AA002142F2030005F03E
:10050000A3FF04460028F3D1019B834EDA68D2F89A
:100510000100D2F8051003C6184605F0C5F92146BA
:1005200001AA42F2020005F08FFF04460028DFD145
:10053000019CE368B3F8012091B249B1D97839B18F
:10054000A5F80421DA78114606F1280028F0F6FD16
:10055000204605F0A9F995F87C601F2316F02006C7
:10056000A5F8203118D1022140F66D4005F0D6FDE6
:100570000446002800F0C48002210C3023F0E6F984
:100580000123037046702146324640F66D4005F067
:100590005BFF04460028ABD195F89C301F0712D5AD
:1005A00001AA002142F21C0005F04EFF044600287B
:1005B0009ED10198C368D3F80120D3F80530C5E96E
:1005C000382305F071F995F8D8309E0624D50DF141
:1005D0000201684623F025FE0446002888D1042144
:1005E00042F2240005F09AFD0646002800F08880BB
:1005F00004210C3023F0AAF9BDF800300380BDF8C7
:10060000023043802246314642F2240005F01CFFAE
:10061000044600287FF46CAF95F8D8305C0610D5FE
:1006200001AA002142F22A0005F00EFF044600282C
:100630007FF45EAF0198C3685B7885F8223105F0DE
:1006400033F9082142F2010005F068FD0446002854
:1006500056D008210C3023F079F995F8D81011F014
:10066000400F024640F2022308BF032388074CBF15
:1006700043F02C0043F00C0095F8D9308F0648BFAA
:1006800040F0400013F0090F18BF40F40060CE079F
:1006900048BF40F01000002123F0B6FB21460022A5
:1006A00042F2010005F0D0FE044600287FF420AF9E
:1006B00095F87C30B5F80411980624D4C9B901AA7C
:1006C00041F2050005F0C0FE044600287FF410AF9B
:1006D000B5F80431019C4BB9E368B3F80120A5F8E3
:1006E00004219A880D48114628F028FD204605F07F
:1006F000DBF8082140F6014005F010FD044678B90A
:100700006FF06804F4E60029F3D16FF00404EFE61B
:10071000D400002000000020D800002008010020A4
:1007200008210C3023F012F995F8D830D907024689
:1007300053BF4FF000512CA1D1E90001284823F00C
:1007400063FB2146002240F6014005F07DFE044691
:1007500000287FF4CDAE014601AA4FF6014005F016
:1007600073FE044620BB019805F09EF8214601AABD
:100770004FF6024005F068FE0446C8B90198C36808
:10078000B3F80130A5F8C13005F08EF895F8C13006
:100790005B070DD501AA21464FF6034005F054FE34
:1007A00030B90198C3685B7885F8C03005F07CF8F3
:1007B00023F00EFF044600287FF49AAE07F0C0FE37
:1007C000044600287FF494AEEB79002B3FF490AE02
:1007D0000821044823F07AFA05F086FD88E600BF78
:1007E00010880002D40000209088000200800020C1
:1007F0002DE9F843D0E90738856903EB08042F3465
:10080000A5420F46164619D8DFF87080A3FB0801F1
:1008100017A3D3E90023FFF773FC0346601BA0FB7B
:10082000080123F07F4412A3D3E90023FFF768FCFB
:1008300020F07F403C603060BDE8F883DFF83C90FA
:100840000BA3D3E90023A5FB0901FFF759FC20F016
:100850007F4409480A2106A3D3E90023E8FB0901E4
:10086000FFF74EFC20F07F403C603060BDE8F8832D
:100870008D49FD1A0700000000166BF100CA9A3B73
:100880009FED097B0E4B0F4A0F4983ED007B9FEDD7
:10089000087B82ED007B9FED087B0C4B002281EDF5
:1008A000007B1A600EF006BCFFFFFFFFFF1F000079
:1008B00000000000000000001F0000000000000019
:1008C00098010020E010002090010020F8D70020BF
:1008D000002800F046812DE9F04FC94C94F86A20B9
:1008E00012F001058DB040F0788194F82500FF23C7
:1008F00000F0030084F8263016F068FC94F86A00D3
:10090000420727D494F8292094F8353004EB82026A
:1009100004EB8303D66AD3F8388086B1B8483146F1
:1009200010F0A4F933785B0605D506210BF058FBCF
:10093000002800F05481B248414610F097F933780E
:1009400013F00E0F40F09E80236A93B10C200DB07F
:10095000BDE8F08F2A4604F16B01C0F3C00016F029
:10096000ADFDFF2884F82600CCD0284616F048FCC0
:10097000C8E70DF077FE8146002800F054810DF0A5
:100980007DFE8246002800F04B8110F06DFC05468C
:10099000002800F04A81D0F894004FF6FF732B86B0
:1009A00005F11C0B002800F0208105F1880205F1FB
:1009B00084010BF021FBB5F8823023F4EF6323F0C0
:1009C000070343F48C7343F00103A5F8823095F8D4
:1009D000433003F03F0363F07F0385F8433095F81D
:1009E0009A3023F0070385F89A3095F8483023F0C1
:1009F0000F03002785F848304FF4C023C5F898311D
:100A00002846C5E91577C5F89470A5F8987085F85B
:100A10004570EF86C5F83A70EF65A5F89E71A5F8A8
:100A2000947112F08BFD85F86071C5F8649110F037
:100A3000CFFE95F8A43160F3020385F8A43110F0DD
:100A4000CDFE95F8A43160F3C50385F8A43195F87F
:100A5000903167F3410385F890310121284611F068
:100A6000D9FA05F1E00012F041FBC4E9189AC4F884
:100A700020B0C5E905772F70ED6117F001FE002861
:100A800040F0AF8094F824300121C3F342030DF10C
:100A90002B008DF82B300BF04DFC0246002862D065
:100AA00098F8011030460FF09BFE31235549A360A2
:100AB000554BB4F86870A0FB01010025C01841F146
:100AC00007014DA3D3E90023C4E9055525706560EE
:100AD000E560FFF715FB20610CF0ECFE00F1090862
:100AE0003FB9357805F00F05A5F10105B5FA85F593
:100AF0006D0994F82400236965F3000010F00105E6
:100B000084F8240036D0414A099200201060022562
:100B10003F4A404F04930BAE019305920321CDE968
:100B20000200069443460090089607972A460B95C4
:100B30000CF0C2FD31460DF051FEA0B936490591C9
:100B40004AF2D8330093CDE90300CDE901000797BD
:100B5000089606944346012203210B950CF090FD64
:100B60002EE00FF08DBD236A002B3FF4EFAE0FF0A7
:100B700043FDEBE6254A2948049303F24713069404
:100B8000029591211360A7FB000301FB0731214B64
:100B900007931F4B05934FF6FF73099202270393A8
:100BA0000BAE15A3D3E900230B970896FFF7A8FA1D
:100BB0004346CDE900503A46284603210CF07CFD1F
:100BC00031460DF00BFE0028CDD194F86A3001209B
:100BD000034384F86A3016F0DBFA0020B7E61220EF
:100BE000B5E60FF009FD0320B1E605F18C00C5F86C
:100BF0009400DAE6AFF300808D49FD1A070000008B
:100C000030D8002000CA9A3B8C49FD1A24D8002015
:100C10005D08010015DA000041030100002AE784A5
:100C200048460DF025FD072091E650460DF02CFDBD
:100C300048460DF01DFDF6E770B590F824308AB0F7
:100C4000C3F342030D46044601210DF1230016466D
:100C50008DF823300BF06EFB7178024628460FF0BA
:100C6000BFFD1F491F4AA0FB0131981841F1070140
:100C700019A3D3E90023FFF743FA236998420546F5
:100C800021D21B1A00220192174A0293174BA21A73
:100C9000A3FB02320221920900230A4409AE099102
:100CA00013490591CDE903330321D2B2069600938F
:100CB00018460CF061FD31460DF090FD38B9256104
:100CC00000200AB070BDFBD9C21A0023DBE70C205C
:100CD0000AB070BDAFF300808D49FD1A0700000017
:100CE00000CA9A3B8C49FD1A30D8002009CB3D8DB3
:100CF00015DA0000000000002DE9F04F06468DB027
:100D00008A46012002219946154619F05BFC002213
:100D10000B90022101200BF0BFF93B494FF4D87230
:100D200030460BF049F9C71C384B0093FFB20196CF
:100D30004B463A46012100200CF078FD10F0FD0FE3
:100D40000ED0334A3349344840F68F0321F0E7FD93
:100D5000002383F31188BFF36F8F0323184602DF4C
:100D60002E4CA5FB044526A3D3E9002320462946A3
:100D7000FFF7C6F90896069633690493284B20F0CE
:100D80007F48A8FB0331E01A264B07934FF0070278
:100D9000254B059302FB08114FF6FE7365EB01012D
:100DA00003934FF47A720023FFF7AAF94FF0000B78
:100DB000CDE90180CDF800A04B463A4601215846C6
:100DC0000CF05EFC10F0FD0F0DD0114A11491248D5
:100DD00040F6A40321F0A3FD8BF31188BFF36F8FBE
:100DE0000323184602DF0B9B13B90DB0BDE8F08F4B
:100DF0000122022110460DB0BDE8F04F0BF04CB9B6
:100E00008D49FD1A07000000E810002009120100BA
:100E100010B00200D4B00200F0AA020000CA9A3B4F
:100E20008D49FD1AA9110100C166010000000000F2
:100E30002DE9F0418468228E4FF6FF739A428CB000
:100E400045D00546204612F017FE2B7D012B00F001
:100E50002281022B00F01581002B00F0F48094F821
:100E60006061002E40F010812B8A678F94F9432037
:100E7000CDE90A6673B3002AC0F25A810023A4F8B0
:100E80009A31AA7C238FFD1802F003030135012B50
:100E9000ADB23BD0B4F89E31002B00F005819D42ED
:100EA00080F059815B1B9BB20022062BA4F89E3177
:100EB000628740F2F68094F943309342C0F2508149
:100EC000002326E09DF82710204610F065FD0CB0A9
:100ED000BDE8F081002AB8BF84F88561238FAA7C21
:100EE000FD1802F003030135012BADB20ED0B4F8AA
:100EF0009A31002BCED0AB4240F23C815B1BA4F870
:100F00009A31B4F89E31002BC9D102E00023A4F835
:100F10009E3194F8482063F3820284F848202946E1
:100F20000DF12702204612F045FB7430CAD0B4F808
:100F300098312BB1AB4240F2EC805B1BA4F89831A6
:100F4000B4F894312BB1AB4240F2DA805B1BA4F8C9
:100F50009431658F16B9AF4200F0C9800135ADB24A
:100F600094F8DD3013F0010731D1DDE90A130A46A8
:100F7000002B40F0CC80002900F0BB801F461846B3
:100F8000228EE4690694CDE9035603329A4D02900D
:100F9000CDE90017D2B20121002005950CF0ECFB41
:100FA00010F0FD0F93D00DF043FC84428FD0934A94
:100FB000934994484FF4AE6321F0B1FC002383F3CE
:100FC0001188BFF36F8F0323184602DF7FE794F980
:100FD00043206FF30003002A84F8DD307FDB94F8B0
:100FE0008200C0F3C00100F0070017F061F9B4F807
:100FF0007A20B4F878301344628D03F23F1313441F
:101000000344814A81480721E3FB0021104678A36D
:10101000D3E90023FFF774F8DDE90A1320F07F42DB
:1010200020692261904235BF171A801A00200027DC
:101030000A46002BA4D157EA010CA1D1002858D0B0
:1010400019461F469CE794F89A3003F01803182BB2
:101050007FF405AFA18EB4F896218B1D9A42C4BFD0
:10106000931F5B1AB4F89211CCBF9BB213469942FE
:1010700000F09C80A4F89231A4F89431A4F898214F
:10108000EDE63D2684F86061314620460CB0BDE8AF
:10109000F04110F081BC0023A4F89831A4F89431F9
:1010A000DDE60126334634E7628E052A97BF01321A
:1010B00040F2E2434FF4FA7392B203FB02F2B4F847
:1010C0009C3142F2107101FB0323013BB3FBF2F3AD
:1010D0009BB2A4F89E31002B7FF4E1AE19E794F89F
:1010E0008300012100F0070017F0E4F87FE73546A0
:1010F00036E7002D43D00027114638463B463FE7F0
:101100000023A4F89431204612F0F6FA21E738467D
:1011100036E70DF0F9FA0146A0B30023A4F89831A0
:10112000238EC3801B23037100680DF0BFFA07E70D
:1011300094F885316BB3013B84F8853104F1E00804
:10114000404612F015F8B8B3404612F011F8B8B3A3
:101150000023638792E60821204610F01DFCB6E6C6
:10116000A7B9D4F888315A0813F0010336D1C4F86E
:101170008821A5E63E21204610F00EFCA7E6002EB1
:10118000B9D1A4E60123A4F89831D9E61346012683
:10119000BFE60AAA0BA92846FFF72AFBDDE90A23C6
:1011A0001343CBD0237884F88531C7E7B4F898117E
:1011B00000297FF454AE5FE7FF2010F0AFFBC3E7D8
:1011C0000246D4E921010AF02FFF0028C0D194F88B
:1011D00048301B0744BFA38E63874FE642F00042AE
:1011E0001E46C4F888213B4693E600BFAFF300805B
:1011F0008D49FD1A070000006511010010B00200C2
:1012000050B10200F0AA02008C49FD1A00CA9A3BB4
:101210002DE9F04F87B0CDE90423BDF844200378D1
:101220000292BDF84820BDF840A0BDF84C90878FD1
:10123000019104460392002B00F0D980013FBFB218
:10124000A368D4F81CB1A7EB090292B2002B00925C
:101250000ADAE168626823F0004391422CBF8B44B4
:101260009344A360ABEB030B94F88200C0F3C0017E
:1012700000F0070017F01CF8B4F83280B8F1050F41
:1012800040F2AB80009B18FB03F81FFA88F840F28D
:10129000E246BAF1050F40F29480B4F87A20B4F82F
:1012A0007830134403F2D51318447D4A7D4B07214F
:1012B000E0FB023118464FF09613A3629623A385F4
:1012C00075A3D3E90023FEF71BFF554620F07F40AE
:1012D00040F2E24303FB05F516FB08F6B3B22061CA
:1012E000B3FBF5F815FB08F080B283421FFA88F6CD
:1012F00059D26B49C01A80FB010167A3D3E90023CF
:10130000FEF7FEFE20F07F408344E38EB4F82421F4
:101310001344994494F84330A9EB07094E44DB0980
:10132000E6866BD1604A6149614840F6671321F057
:10133000F6FA002787F31188BFF36F8F032318464F
:1013400002DF2E46029BA386039BA4F89C3129460C
:101350002046A4F832A012F069F9564BA18E2B4416
:10136000881DB3FBF5F39AB29042A4F8962104D2FB
:10137000C1F57F41FA310A4492B2019BA4F892214F
:1013800013B10023A4F89E315B463246394620460D
:10139000FFF7B2FC94F8903143F0010384F89031E8
:1013A00007B0BDE8F08F1B1A3D4883FB00013AA34C
:1013B000D3E90023FEF7A4FE20F07F40ABEB000B47
:1013C000A3E74FF096130AF10105A3629623A385C4
:1013D000ADB20A204FF4FA737CE7009B08F10108D4
:1013E00018FB03F81FFA88F84FF4FA7651E7C38E1A
:1013F0001F44B0F824311F44BFB221E7E26C0099CA
:10140000636D274F02FB1133636517F089F90646B8
:1014100094F88401C0F3420017F086F9064405FBF6
:1014200006F6254B06F5742606F23F26A3FB063684
:10143000B60C636DE66406FB08F06A080344963A4E
:10144000934228BF1346C4E91423049B40F2E249A7
:1014500009FB03F3E3650023A0FB0701C4F88C310B
:101460000DA3D3E90023FEF74BFE144B059AABEB1B
:10147000000BA3FB0230800A09FB00F0A0FB070170
:1014800005A3D3E90023FEF73BFEAE1B20F07F4708
:1014900058E700BFAFF300808D49FD1A0700000038
:1014A00000CA9A3B8C49FD1A10B00200C8AB02007A
:1014B000F0AA02007FC3C90183DE1B435917B7D1CD
:1014C0002DE9F04F0B6891F81180D3F80090037F5D
:1014D000176895B00446C3F38013D0F81E008DF84A
:1014E0003F30B8F1FF0F638C12900E461546ADF8F1
:1014F0004C300DF1480A4DD19AE803001090ADF838
:1015000044102346E28D53F82EBB9B78AB722A81A0
:10151000D4F82A306B60D4F83A30C5F8223005F19F
:10152000220094F83E30037105210AF003FF95F87C
:10153000273000F03F0060F3050385F8273094F86A
:101540003F30C3F3040285F82820A28EEA820128E6
:1015500003F01F0392B205D91B3303F01F030B2BBB
:1015600000D81ABB0022C9F8142095F82C3062F379
:10157000000385F82C30E56801265846214626717F
:101580000DF088F828682E7129460DF08FF815B0F7
:10159000BDE8F08F10AA0DF13F01404615F09EFB0B
:1015A0009DF83F3002338DF83F30AAE733680021C1
:1015B0005960E38EEA8A2B8340F2E24303FB02F296
:1015C0000B92628E0D92384612F044F894F83F2048
:1015D00097F88411520962F3430187F8841117F0D8
:1015E0009FF80C9097F88401C0F3420017F09CF824
:1015F0000C9A0B99104401FB00F0BF4A00F57420CF
:1016000000F23F20A2FB00204A08800C963A286393
:101610006A6394F8312040F2E24302FB03F36B6407
:10162000238FA7F89C31384612F000F80B99B34B82
:10163000B34AC7F8A0210B44B3FBF1F39AB2A7F861
:101640009621298B881D824204DDC1F57F41FA3144
:101650000A4492B2A7F892216B68C7F888312346F2
:1016600013F81C2FC2F340120C92DA0700F101812B
:101670004FF48073A38399F8260016F033F804F131
:101680002B03002800F0F180626AC4F82B20228D21
:101690009A80B8F1FF0F00F00F81BAF80430129869
:1016A000A4F82930C4F825009DF83F30A37710989E
:1016B000BDF84430C4F81F00A4F82330EB8A6386D9
:1016C0002B8BA386B7F89C31E38697F88431C3F35C
:1016D000420384F8383038460FF0D2FDA882E0800B
:1016E0002146584674680CF0D5FFAB8AE3801C2372
:1016F00023710C9BD4F80080002B40F0D1800C9B10
:101700002377214640460CF0D1FF95F86700B5F8E5
:101710005C80B5F85E40012100F0070016F0CAFDBC
:10172000444404F2D514DFF8E48104448246754849
:101730004FF096130721C5E90333E4FB0801312379
:101740000024BB607C606AA3D3E90023FC60FEF741
:10175000D7FC20F07F4038610B9B2D6B0D995D1BF2
:10176000F36840F2E24202FB013303F2B341A1EB22
:101770000A0A2246022101200AF08EFC48460FF098
:1017800031FA0246AAFB0801924659A3D3E9002385
:10179000FEF7B6FCCDF80490B3685B49009120F0E9
:1017A0007F480AF102023A3BD2B24344012120466B
:1017B0000CF03CF8012800F0858099F82430DB0714
:1017C00066D438460FF05CFD504BA5FB03A90446D8
:1017D00047A3D3E9002350464946FEF791FC4C4B02
:1017E000B6684C4A079220F07F45A5FB0331BAEB5F
:1017F0000300494B05934FF4F573069708933B6933
:101800004FF0000BCDE903B34FF0070303FB0511C5
:1018100069EB01014FF47A720023FEF771FC033487
:101820003A3EE4B2CDE90150CDF80080334622467D
:10183000012158460BF024FF10F0FD0F0DD0374A60
:101840003749384840F2EB1321F069F88BF31188DF
:10185000BFF36F8F0323184602DF012202211046D7
:101860000AF01AFC15B0BDE8F08FC4F82B00988080
:101870000FE72A4A2C492B48FD2321F050F800237A
:1018800083F31188BFF36F8F0323184602DFEFE65F
:10189000002301220093184611460BF085FF90E7C4
:1018A00095F8273043F0400385F82730281D15F0C0
:1018B0001FF80123288523E70022C4F82520A4F877
:1018C0002920F1E60CF0B4FF81453FF476AF134ACE
:1018D0001649144840F2922321F021F884F311882C
:1018E000BFF36F8F0323184602DF66E7AFF3008074
:1018F0008D49FD1A0700000083DE1B437FC3C90129
:10190000404B4C008C49FD1A8166010000CA9A3B8D
:101910008D49FD1A4D660100C166010030B6020016
:10192000D4B00200F0AA0200E4AD02008CB60200BE
:1019300010B5334C3349002304F1FF3C14F8332035
:10194000072A02EB820E05D811F83E206FF34512EC
:1019500001F83E201CF833206FF300020CF833200E
:101960000133082BEAD1284A284C002313700A7847
:1019700063F300020A7091F8282063F3000281F8F3
:10198000282091F8502063F3000281F8502091F84C
:10199000782063F3000281F8782091F8A02063F3A7
:1019A000000281F8A02091F8C82063F3000281F8BA
:1019B000C82091F8F02063F3000281F8F02091F83C
:1019C000182163F3000281F81821114A9FED0A7B68
:1019D0001370104B83ED007B0F4B236028B1BDE8E3
:1019E00010400E490E4827F079BCBDE810400C4865
:1019F00027F080BCAFF30080FFFFFFFFFFFFFFFF7A
:101A0000B1E1002070E00020C100012080DF002053
:101A1000C0000120C8120020A0BB0D00F57301001A
:101A200098120020000000002DE9F04F8FB00DF15A
:101A300037010446DFF8E0A0DFF8E0800DF1360062
:101A40000CF0A4FE9DF836309DF837B00B930BF0E8
:101A500031FFDAF80060A6FB085629A3D3E900237A
:101A60000027814631462846FEF74AFBCDE9077735
:101A7000069420F07F44DAF80400234B0593A0FB82
:101A800008011FA3D3E90023FEF73AFB1F4B20F008
:101A90007F40A4FB0331072202FB0411CDE9037050
:101AA000E81A66EB01014FF47A720023FEF728FB77
:101AB0000097CDE901404B460B985A4603210BF0A5
:101AC000DFFD10F0FD0404D06FF08B000FB0BDE817
:101AD000F08F0F480F4A00231DF098FF20B9DAF865
:101AE0000C000FB0BDE8F08F9DF837209DF8360050
:101AF0000094234603210BF057FE6FF07300E5E7D7
:101B00008D49FD1A07000000A17901008D49FD1AD9
:101B100024E20020447B0B003CE2002000CA9A3BF8
:101B200038B50F4D04460BF0C5FEA9680BF0C4FE96
:101B3000696803460B48B3FBF4F4A1FB00011C44A5
:101B400005A3D3E90023FEF7DBFA20F07F408442AF
:101B500094BF0020012038BD8D49FD1A0700000008
:101B60003CE2002000CA9A3BF0B5C468636883B0C9
:101B70000546002B64D118F0A3F8002018F0C6F831
:101B80000021084618F0B4F800222521082018F09A
:101B9000F1F8474B019301A818F0D8F8454940F2F5
:101BA0005B6018F095F9237AC3F3420262F30613DF
:101BB0002046237216F0D4FF15F070FE58BB637AEE
:101BC0009B071FD127682E68384616F00DFB064488
:101BD0006A6806F10901012018F0C2FA18F080FBCA
:101BE00020460FF00BF8811C3246C9B2384616F079
:101BF00009FB054678BB204616F09EFA88B90020FE
:101C000003B0F0BD012015F0B7FA4178821C0078CE
:101C100018F046FAD6E7607A10F0030018BF0120EA
:101C2000F1E7254A2549264840F2294320F077FE6E
:101C300085F31188BFF36F8F0323184602DFDEE7B9
:101C400093F82C309A0796D01E48214617F0F6FFDD
:101C500018F0DCF8D3E7184A1B49194840F2114341
:101C600020F05DFE194B0721A5FB030301FB0531A5
:101C70000DA3D3E90023FEF743FA154902461548A0
:101C800020F04DFE002585F31188BFF36F8F0323ED
:101C9000184602DF1048214617F0D0FF18F0B6F8BA
:101CA0006FF08B00ACE700BF00CA9A3B0000000059
:101CB000D6BE898E5555550088BA0200C4AC0200C4
:101CC000F0AA020095830100C8AB02008D49FD1AFD
:101CD00038BB02000CBB0200358701000000000089
:101CE0002DE9F041C468A28A4FF6FF739A4282B090
:101CF00000F0DF80054617F077FA2B89628B208C85
:101D0000A3831A4492B2104494F82730E28380B23D
:101D1000411C21845E064FF00001618304F1220121
:101D200000F1A18003F03F000B4694F828100090CA
:101D300004F1290014F094FD0646D4E90C31A28B7D
:101D400002FB0333A26B1344E26B8B4294BFD218A5
:101D500052188A4228BF0A46E263616C226C94F8EA
:101D600067301144616494F87E2094F82C10C3F31A
:101D7000020363F3061112F004024FF0000384F82B
:101D80002C10A363236478D017F09AFF002017F07B
:101D9000BDFF201D17F0DAFF2389A17A40F25B60B6
:101DA00043EA014118F094F8304616F03DFA214616
:101DB000594817F043FFA08918F0C6F994F8662037
:101DC00094F86700C2F3C003002102F0070200F09C
:101DD000070018F0E3F8204617F0B0FA27682E68DD
:101DE000384616F001FA06446A6806F10901002037
:101DF00018F0B6F9804618F047FA002018F05EFA9D
:101E0000E36B94F8670003F12F02636C00F00700A6
:101E1000012103EB420517F0EBFF4544054494F81C
:101E2000670000F00700022825D004280CBF4FF4FB
:101E3000BC73282301211D4417F0DCFF284418F04F
:101E400015FAA18A03313246C9B2384616F0DAF9DA
:101E50000546002834D1204616F06EF9D0B900208E
:101E600002B0BDE8F0810A4603F03F03218D14F073
:101E700043FD064661E71823DCE7D4E91A010AF0BE
:101E8000D3F8002880D194F87E3043F0040384F81E
:101E90007E3079E7214A224922484FF4B07320F07E
:101EA0003EFD85F31188BFF36F8F0323184602DFD1
:101EB000D5E71D48214617F0C1FE17F0A7FFCEE772
:101EC000164A1A4917484FF4AB7320F028FD184BF7
:101ED0000721A5FB030301FB05310DA3D3E9002373
:101EE000FEF70EF913490246134820F018FD0025AD
:101EF00085F31188BFF36F8F0323184602DF0F4865
:101F0000214617F09BFE17F081FF6FF08B00A7E7CB
:101F100000CA9A3B00000000B5950100C4BB020056
:101F2000C4AC0200F0AA020095830100C8AB020015
:101F30008D49FD1A18BC02000CBB02007183010020
:101F400007B5054B68461A685B680092019301F07B
:101F5000FDFF03B05DF804FB34C2002007B501F0BB
:101F60009FFD83788DF800300388ADF8013090F93B
:101F700003308DF80330104B93F88420531E5A42DF
:101F80005A410E4B1B781B0143EAC20302791343EB
:101F9000427943EA4203827943EA82038DF80430AE
:101FA00000238DF80530684602238DF8063001F0D5
:101FB000F3FF03B05DF804FB6416002008F1002075
:101FC00030B587B00C460546102200210DF1050002
:101FD00027F003FC102C2246294628BF10220DF1C1
:101FE00005008DF8042027F0D0FB064800220023CE
:101FF00001A91DF017FB10B903481DF0CDFC07B077
:1020000030BD00BF400800208808002010B500F057
:1020100051FF20F0C3F8084C084B2060002208480C
:102020001A6020F025F92168064820F0C4F8BDE8C0
:10203000104001F045BF00BF5C160020581600207C
:10204000FC1600206416002038B5084D0446012215
:102050000D21284620F082F8204620F08FF82846EF
:102060000022BDE838400D2120F078B8A09C020085
:10207000074BBFF35B8F012253E8001F43E80020AA
:102080000028F9D1BFF35B8F02481DF085BC00BF6B
:1020900064C2002088080020074BBFF35B8F012239
:1020A00053E8001F43E800200028F9D1BFF35B8FFD
:1020B00002481DF071BC00BF60C2002088080020EB
:1020C00008B5B0F80130A3F57A739BB247F2481215
:1020D000934251D8B0F80330323B9BB240F29E722B
:1020E000934249D8B0F8052042F210739A4243D87F
:1020F000B0F80930B0F807209A423DD240F2DC52E5
:10210000934239D8B0F80B2041F288339A4233D841
:10211000B0F80D30C83B9BB242F2486293422BD8D4
:10212000B0F80F30103BB3F5F86F25D8B0F8113088
:10213000053B9BB240F60B6293421DD8104B00F159
:10214000100250F8041B43F8041B9042F9D1028896
:102150001A8082789A700B4BBFF35B8F012253E891
:10216000001F43E800200028F9D1BFF35B8F064829
:102170001DF012FC002008BD6FF01500FBE700BF4A
:1021800009F10020601600208808002001481DF099
:1021900003BC00BF880800202DE9F04F9DB001F07E
:1021A00069FB414802698168136823F40053136096
:1021B0000B684FF4C0220D21984701F09BFB30B90A
:1021C00001F0C6FB01F070FC08B101F07FFC374C58
:1021D000374800F06FFB204601F0EEFC01F0FCF800
:1021E0002146344B41F8083F334800F085FB334823
:1021F00020F039F8314800F037FF314801F010FF86
:10220000D4ED037AFCEEE77A02238DF8443017EE22
:10221000903AD4ED047AADF84530FCEEE77A11A897
:1022200017EE903AD4ED077AADF84730A38AADF8AF
:102230004930FCEEE77AE38AADF84B30238BADF8FA
:102240004D3017EE903AD4ED097AADF84F30FCEEF0
:10225000E77A238CADF8513017EE903A4FF47A724A
:10226000ADF85330A36AB3FBF2F3ADF8553001F08B
:10227000C7FE144A1449154801F006FE08B901F0DA
:102280003FFAFFF75DFEFFF769FE114800F05EFDC3
:1022900000B301F015FE3220FFF7D6FE4FF47A703E
:1022A0001FF06CFFF7E700BFA09C020034C20020C3
:1022B0003CC200200000D04364160020FC16002021
:1022C0008D21000099200000C1200000C11F0000E6
:1022D00071200000C820FFF7B7FEFFF797FE1FF040
:1022E0005DFF8B4E0090DFF84CA29AF88430012BF2
:1022F0000CBF012500254EF6602242F210732846DD
:1023000018BF134601931FF012FF002800F0FA8057
:1023100028461FF00CFF014640F2E7304FF47A7276
:10232000002300EBC130490CFDF7EAFE02460B46E4
:1023300078481DF06BFBBFF35B8F774A002352E8B0
:10234000001F012903D142E800300028F7D1BFF374
:102350005B8F10D10B93714B099320230A9300F0EC
:1023600013FE012840F0EC801FF053FF002840F3DB
:10237000CC80FFF74BFE6A4D6A4FA5F1080800229A
:1023800000230CA938461DF0ABF9002800F08D8120
:1023900020F0E3F801F0C4F91FF000FF054601F05A
:1023A0000BFA58B13C20FFF74FFE3C201FF0E6FE31
:1023B0003C20FFF749FE3C201FF0E0FE01F0F0F961
:1023C00048B1594A1368EB1AB3F57A7F03D31E203C
:1023D0001560FFF739FE01F085F808B101F08EF8BD
:1023E00000F06EFE08B100F07BFEBFF35B8F4F4B39
:1023F000002253E8001F012903D143E800200028F0
:10240000F7D1BFF35B8F46D1494B454FB3F801205D
:10241000484D07EE902AF8EE677AC4ED037AB3F8D8
:10242000032007EE902AF8EE677AC4ED047A9979D2
:102430005A7942EA0122A282197ADA7942EA012221
:10244000E282997A5A7A42EA01222283B3F80B2077
:1024500007EE902AF8EE677AC4ED077A997B5A7BEB
:1024600042EA01222284B3F80F2007EE902AF8EE08
:10247000677A4FF47A72C4ED097AB3F81130534396
:10248000A3620FCF0FC50FCF0FC5384650F82839BC
:102490002B6001F0ABFB1FF081FE9AF88430264DD3
:1024A000012B074640F0B481BFF35B8F002355E852
:1024B000002F012A03D145E800310029F7D1BFF3ED
:1024C0005B8F02D001F03CFD20B901F031FD08B96D
:1024D00001F0F6FC009B019AFB1A9A423FF603AF0B
:1024E00001F036FA01F0E0FA40B1144801F050FB77
:1024F00000F02AFD01F010FD01F0E8FAFFF72EFDD3
:102500000097F0E60022134612E71FF07EFE32E746
:102510005C1600208808002064C2002088EF00209C
:102520003CC2002040080020501600206016002009
:1025300009F100206416002060C2002034C200208F
:1025400000F022FD02287FF416AFBB4F4FF0040BC2
:1025500009A800F01FFD051E40F385800B9B63B1A9
:102560001FF01CFE002380463060B4483B601FF023
:102570007FFEB34841461FF01EFE1FF00FFE029083
:102580003868013828441FF026FF3368C3180393C6
:102590004FF000080999A9484FF00C0909FB08F908
:1025A00049441FF07BFE431C09D0A44A41F64C531A
:1025B00003FB002043F20863C05800F063FD099854
:1025C00005A948441FF036FE3868431C3B601FF0E5
:1025D00002FF32680CAB024405A9994800F0BEF92D
:1025E000002836D0029B0C9A1A44039BD21A6368C7
:1025F000013363601693934B1B78002B53D09249A1
:10260000D1E90031D31841F10001CDE917310D9B1B
:102610001A9316A80E9B1B93199200F0F9FE9DF8D1
:102620003A30B3B1236889480133236001F0B0FA2E
:10263000FFF786FC169B0C9807933368C01A1FF0AF
:10264000D5FE07A908907D481FF086FE1420FFF7ED
:10265000FBFC08F1010845459CD1192D03DDBBF1B8
:10266000010B7FF475AF744B18681FF0B4FE31682E
:10267000014473481FF0AAFD00283FF446AFD4ED93
:10268000097AFCEEE77A17EE903A98B200F0B6FBC2
:1026900000238AF884301FF081FD6D4B18606B4871
:1026A00001F076FA67E61946AFE79DF83130013B55
:1026B000062B3FF664AEDFE803F0042C34409F9015
:1026C0009C009DF83030082B7FF659AE0DF1360096
:1026D0001FF02BFD83460DF132001FF026FD8146D1
:1026E00026F087FF4FF47A720346A3FB023C02FBFD
:1026F00001CCDB0B43EA4C43B9EB030352486BEBD1
:10270000DC32C0E900324F4B01221A70FFF726FC81
:1027100035E600234046236001F03AFAFFF710FC4B
:102720002DE69DF83030042B7FF629AE0DF13200F6
:102730001FF0FBFC00F0B6FE21E6284600F0BAF8D8
:10274000DFF814E1DFF8F8C0BEE80F00ACE80F00D6
:10275000BEE80F00ACE80F00704650F82839CCF8FE
:10276000003001F043FAD4ED037AFCEEE77A02235D
:102770008DF8583017EE903AD4ED047AADF8593010
:10278000FCEEE77A16A817EE903AD4ED077AADF88A
:102790005B30A38AADF85D30FCEEE77AE38AADF8F2
:1027A0005F30238BADF8613017EE903AD4ED097AA3
:1027B000ADF86330FCEEE77A238CADF8653017EEA8
:1027C000903A4FF47A72ADF86730A36AB3FBF2F334
:1027D000ADF8693001F014FCD1E59DF83030042BE0
:1027E0007FF6CDAD0DF132001FF09FFC00F04AFCEA
:1027F000C5E500F0F5FFC2E54FF005095020FFF7F1
:1028000023FC78201FF0BAFCB9F10109F6D1B6E536
:102810000F4B104A1B68C31A93422DD8BFF35B8F2E
:10282000002355E8002F012A7FF449AE45E8003126
:1028300000293FF444AEF4E758160020FC160020AF
:102840006416002008F10020F009002034C20020A6
:1028500054160020BFD401003CC200200023BFF367
:102860005B8F55E8002F012A7FF429AE45E800313F
:1028700000293FF424AEF4E700F092FF0028EDD1E8
:10288000BFF35B8F55E8003F012B03D145E8000201
:10289000002AF7D1BFF35B8F02D001F051FB08B9DA
:1028A00001F046FB01F04CFB00283FF413AE01F0B1
:1028B00033FB0FE60A4B03600A4B43600A4B83600D
:1028C0000A4BC3604FF416730382094B436140F215
:1028D000DC530383074BC36147F2305303627047F5
:1028E0000000D0430080BB4500009643F401640023
:1028F00000007A4300001643F8B50F462DED028B19
:10290000982200213D46064626F067FF0FCD34464B
:102910000FC40FCD0FC42B68236097ED007AB7EE7C
:10292000008AC8EE077AB1EE000A27EEC00AF1EE7F
:10293000678A1FF00BFB38EE400A86ED090A9FED0F
:10294000060A88EE800A1FF001FB38EE408A86ED09
:102950000A8ABDEC028BF8BD8FC2F53CF0B5044687
:10296000B1F9000006EE100AB1F90200B1F9041045
:1029700007EE100A06EE901AB8EEC66AB8EEC77AED
:10298000F8EEE66A94F8501085B08DED016A8DED91
:10299000027ACDED036A04F1380604F14405B1B9B9
:1029A00001AB03CBE06221631868606301AA03CA2C
:1029B000A06371601868B06001AA03CA60646960AE
:1029C0001868A860012384F850300020EFE0D4EDAF
:1029D000127A94ED115AD4ED135A77EE677A36EEE7
:1029E000455A67EEA77A45EE057A76EEE55A45EE4A
:1029F000A57AF1EEE77A01AF03CFD4ED0A4A60641D
:102A000069603868A86001A930460F46D0ED005AC9
:102A1000B7EC015A35EE655A45EE245AE0EC015AFE
:102A20008542F3D194ED0C5AD4ED0B4AD4ED0D5AF6
:102A300037EE457A36EE646A27EE077A06EE067AB6
:102A400076EEE56A06EEA67AB1EEC77A606D050607
:102A50000BD594ED006A9FED874AC4EE066AFCEE42
:102A6000E66A16EE905A551BA565D4ED026AF4EE9F
:102A7000C76AF1EE10FA4FEA400048BF40F001008B
:102A8000606594F86100002800F09E80616E521A23
:102A9000142A1DD8F5EEC07AF1EE10FA18D49FED85
:102AA000767AB4F86800F4EEC77AF1EE10FADBBF7C
:102AB000B6EE007A77EE877A4FF6FF71FCEEE77A92
:102AC000DCBF17EE901A89B2884238BFA4F86810AC
:102AD000E089218A904227D88A4228D8D4ED1C7AEE
:102AE000D4ED0E6A94ED1D7A94ED1E6AD4F8803010
:102AF00076EEE76AD4ED0F7A77EEC77A94ED107A26
:102B000067EEA77A46EEA67A37EE467A47EE077A60
:102B1000F1EEE77A013394ED1F7A77EE277AC4ED70
:102B20001F7AC4F8803050E78A427FF64EAFD4F85F
:102B30008020002A3DD007EE902AD4ED1F6AF8EEDF
:102B4000677A86EEA77AB5EEC07AF1EE10FA33D442
:102B5000DFED497AB4EEE77AF1EE10FA2EDCF6EE0C
:102B6000007A77EE277AFCEEE77A17EE902A92B297
:102B7000B4F86A10A4F86C20A289914221D3D4ED54
:102B8000057AF4EEC77AF1EE10FACBBF00210121ED
:102B90000222002284F86F2084F86E1004F164028F
:102BA00007CA83E80700002384F86130012005B0DC
:102BB000F0BD9FED327AD2E70022D9E74FF6FF72DF
:102BC000D6E700210122E5E794ED017AB4EEE77A39
:102BD000F1EE10FA3DD894F8603023B1E36D208B0C
:102BE000D31A834235D3A36DE265D11AF5EEC07ACC
:102BF00040F20113A4F86030F1EE10FA4FF0000338
:102C0000E366626612D49FED1C7AF4EEC77AF1EEA9
:102C100010FADBBFB6EE007A77EE877A4FF6FF73D5
:102C2000FCEEE77ADCBF17EE903A9BB2A4F868306E
:102C30004FF6FF738B4228BF0B46A4F86A3000237F
:102C4000E367C4ED1C4A84ED1D5AC4ED1E5A0023EF
:102C500067E7D4ED096A2C34D4ED007AB1EC017A3F
:102C600037EE677A47EE267AE4EC017AA642F3D192
:102C7000ABE600BF0000FA4500FF7F470000000000
:102C800010B586B00123019300238DF80830072387
:102C9000CDE9031200908DF8143007489DF81430E8
:102CA000826843F002038DF8143094686A2302228C
:102CB0006946A04706B010BD189D020010B40C4B29
:102CC0001A699B689C6984B1010204D51368DB050D
:102CD00048BF80F0C060074B00F0B0720340A446CC
:102CE00003485DF8044B082160475DF8044B7047CA
:102CF000A09C02004000000610B54FF40010FFF742
:102D0000DDFF034B1B6813B1BDE81040184710BD31
:102D100068C200201FB502238DF800008DF8011055
:102D2000CDF804D002938DF80C3007489DF80C3094
:102D3000826843F002038DF80C3094686A23012204
:102D400001A9A04704B010BD189D020073B500236F
:102D500006468DF80730244825F0FDFF20B96FF0B6
:102D60001204204602B070BD204D284625F0F3FF26
:102D70000028F4D00DF107010F201FF03BFA0446A4
:102D80000028ECD19DF807306C2BE8D101211220EE
:102D9000FFF7C0FF0021A42026F0B2FB442112203F
:102DA000FFF7B8FFE2211820FFF7B4FF104B1E60B9
:102DB0002A69AE68136823F48073136033680821AE
:102DC0004FF48032284698470A490B4B4B604FF42A
:102DD00080738B60F36913B10122284698474FF046
:102DE0009860FFF76BFFBCE7189D0200A09C0200F3
:102DF00068C200206CC20020F92C000013B5044604
:102E00004FF40010FFF75AFF00215E20FFF782FF0A
:102E100000210D20FFF77EFF00210A20FFF77AFF37
:102E200000211120FFF776FF10211520FFF772FF18
:102E300018211020FFF76EFF41215620FFF76AFF8F
:102E400080215820FFF766FF10215C20FFF762FF0A
:102E5000642303FB04F101F6344141F6690399420E
:102E600020D9124B99421FD840F63543B1FBF3F1FC
:102E7000C9B25B20FFF74EFF002141F69A1026F001
:102E80003FFB0DF107011B201FF0B4F920215E204C
:102E9000FFF740FF064B01221A701FF0B6F9002021
:102EA00002B010BD0121E4E73F21E2E70A0103007F
:102EB0001CF1002013B54FF40010FFF7FFFE0021B6
:102EC0005E20FFF727FF0DF107011B201FF092F98D
:102ED00000215820FFF71EFF00211520FFF71AFFE1
:102EE00000211620FFF716FF00210A20FFF712FF2E
:102EF00034210720FFF70EFF00210820FFF70AFF0B
:102F000066210920FFF706FF64211020FFF702FF6A
:102F10006C211120FFF7FEFE06210A20FFF7FAFEC2
:102F200008210D20FFF7F6FE054B00241C609C8055
:102F3000044B02221A701FF068F9204602B010BD3F
:102F400028EF00201CF1002008B54FF40010FFF717
:102F5000B5FE00215E20FFF7DDFE00210D20FFF70A
:102F6000D9FE00210A20FFF7D5FE00211020FFF72F
:102F7000D1FE00211120FFF7CDFE024B002018707A
:102F800008BD00BF1CF10020014B1878704700BF3E
:102F90001CF100202DE9F04F85B006463A230222AD
:102FA00002A968468DF80030FFF76AFEA8B99DF8BF
:102FB0000940C4F38013B36024029DF8083004F480
:102FC00040741C430027DFF89C803D464FF0780991
:102FD000A74235DB002C3FDB40E06FF00404F1E753
:102FE0009DF80830DB08012B06D141460DF10900A0
:102FF0001FF0F9F80137EBE7022BFBD10C23D6F8D1
:1030000000B005F1010A69465D430DF109001FF0AA
:10301000EAF8BDF800302BF805300BEB0502B8F8E4
:103020000030D380BDF802305380B8F802301381ED
:10303000BDF804309380B8F8043053815546D9E781
:103040007368AB420ADD072202A968468DF800903A
:10305000FFF716FE0028C3D06FF00405284605B020
:10306000BDE8F08F28EF0020034B044A18600023CE
:103070001360034A13707047B4C200208CC2002052
:1030800012F2002010B50B4A0B4C1368082B06D126
:103090002368013303F007032360072313601168DB
:1030A0002368064C0B4403F00703013144F8230066
:1030B000116010BD8CC2002090C2002094C200207C
:1030C000054B1B782BB9054B1868003818BF012039
:1030D00070470120704700BF12F200208CC2002010
:1030E0002DE9F0412C4D2D4E86B02F78D7B932689E
:1030F00002B32B482B4903682B4C51F82310616015
:10310000013303F007030360284B013A186832606B
:103110001FF04DF9264BE360264B20601F70012302
:1031200027812B7000F082FF044630B91B4A002330
:103130002B70136006B0BDE8F081DFF86CC0DFF8DB
:103140007480BCE80F0001AF0FC7184BF42C18684F
:1031500098F8003028BFF424A4B2059401A923B143
:103160001FF086F920B92870BFE71FF04EF9F9E784
:1031700081B20F4800F0A0FF00F10C03012BD9D958
:103180000028D3D101AC0FCC074F0FC723683B6099
:10319000012388F80030A8E712F200208CC200203A
:1031A00090C2002094C2002078C20020B4C2002047
:1031B0001DF1002011F2002030B50A4D421E00F131
:1031C0001B034FF0FF3012F8011F4840082140F365
:1031D00000042C40013984EA5000F8D19342F2D126
:1031E000C04330BD2083B8ED2DE9F0430160CB68CA
:1031F0005A0942601F2B4FF0000289B004468260DA
:1032000059D90B69DA0656D1CD68B5FBF3F203FB49
:103210001255002D4FD1DFF8A8902F46A8462E4614
:103220006268954224D326B17B1CB3FBF2F602FB05
:103230001636A660002563689D423FD22168A668C5
:103240000A695209B6FBF2F302FB136068B10B681E
:1032500070016946984740B96A46034612F8011B57
:10326000FF291ED10133202BF8D109B0BDE8F0832E
:10327000236869461B68680198470028F5D1069BBA
:103280004B450CD16846FFF797FF079B834206D159
:10329000009B0EB1984502D298462F460126013573
:1032A000BEE7A36862680133B3FBF2F102FB11339E
:1032B000A3600135BFE74FF0FF30D6E70020D4E729
:1032C00056455053F0B589B000236A46079304462B
:1032D0000B4601F11807164618685968154603C5CC
:1032E0000833BB422A46F7D1A568114B06933046F6
:1032F000FFF762FF626807906B1CB3FBF2F102FB01
:1033000011332268A36013695B096F01B5FBF3F108
:1033100003FB115535B1236831465B683846984741
:1033200009B0F0BD9368384698470028F3D0F7E716
:103330005645505370B5184D88B006460C46A068E7
:1033400038B36068336869461B6840019847636812
:1033500072680133B3FBF2F102FB11336360A368BF
:10336000013BA360A8B9069BAB42E8D16846FFF7D2
:1033700023FF079B8342E2D12368009A9A42DED35F
:103380006D460FCD0C340FC495E8030084E80300AC
:10339000012008B070BD00BF56455053034B014695
:1033A0004FF48052186820F04FB800BFFCC20020D4
:1033B0000A46014602482023006820F030B800BFCA
:1033C000FCC200200A46014602482023006820F083
:1033D00011B800BFFCC2002010B5094C03202146E3
:1033E00001F0ACF958B9236806499B680648CB60E0
:1033F000FFF7FAFE054AB0FA80F35B09137010BDBF
:10340000FCC2002050020020F0C20020C3FF0020B8
:10341000F8B5837D044600F118056BBB1B481C4AB8
:103420000368182703F07F06214607FB062251F8A0
:10343000046B42F8046BA942F9D101330360154BC8
:103440005A68082A06D11A68013202F007021A6087
:1034500007225A60D3E900210F480A4402F007020C
:10346000182606FB020254F8040B42F8040BAC4287
:10347000F9D101315960F8BD084B1B78002BDED023
:1034800001460748FFF71EFFD9E700BFECC2002046
:10349000C3F30020B8C2002003F30020C3FF0020C4
:1034A000F0C2002010B50B4C012323720A4B2146B9
:1034B0001B7841F80C0F83F00103084863721FF07A
:1034C00018F8074B1B68802B38BF8023803B236391
:1034D00010BD00BFB8C20020C3FF0020F0C2002012
:1034E000ECC20020044B5A681AB9187A00F00100A7
:1034F00070470120FAE700BFB8C200202DE9F04F65
:103500006A4F95B0FFF7EEFF40B100F0A1FD17281C
:10351000674E844605D800237360337215B0BDE84A
:10352000F08F35460FCD07AC0FC40FCD0FC40FCDB4
:103530000FC4BCF1EF0F2B68DFF8849123608CBFC0
:103540000A25182307AC98BFBCFBF3F54FF0000821
:1035500098BFADB2DDF820C0BCF1000F39D0079A9A
:10356000544B182101FB02330DF1040A03EB010B4C
:1035700018685968D646AEE8030008335B45F24642
:10358000F6D1013202F007020CF1FF3307920893E3
:10359000494B18220DF1040C02FB0833624603CAA2
:1035A000A24218605960944603F10803F6D108F16D
:1035B0000108A845CED11821434659435ED10FCC0E
:1035C0003B4D0FC50FCC0FC50FCC0FC523682B602B
:1035D000A4E79DF824A0BAF1000FECD09DF82530A7
:1035E000ABB936480AA9FFF7A5FE01280CD10DF1A9
:1035F000340EBEE80F000DF1040CACE80F009EE89D
:1036000003008CE80300C3E701238DF82530D9F8C7
:10361000002013990A98802A134638BF8023803BE4
:103620008B4238BF0B4613934FF0000E4FF0180C2F
:103630009A4207D8BEF1000F00D0139300238DF8F3
:103640002430B8E7591C03F07F030CFB03F307EBAE
:10365000030EFB5883420ED3734613910DF1040CF5
:103660000EF1180E18685968624603C20833734594
:103670009446F7D18CE7D6460B46D9E70E4889B277
:1036800000F0F8FC00F10C03012B84467FF646AFF6
:103690000FCC074D0FC50FCC0FC50FCC0FC523683E
:1036A0002B60BCF1000F3FF42DAF34E7C3F30020D3
:1036B000B8C2002003F3002013F20020F0C2002063
:1036C000ECC2002059B1BFF35B8F054B012253E8D8
:1036D000001F43E800200028F9D1BFF35B8F70473B
:1036E00004C30020054BBFF35B8F1B68BFF35B8FE8
:1036F000002B0CBF06200020704700BF08C300202D
:1037000008B5054804F0EAFE20B9BDE808400348C2
:1037100004F0FEBE08BD00BF740200206402002059
:1037200070B5044625F065FF4FF47A75A0FB0532AD
:1037300005FB0122DB0B43EA4241164A164B74B1EA
:10374000107860B9154801600120BFF35B8F53E822
:10375000005F43E80006002EF9D1BFF35B8F1470C1
:10376000BFF35B8F1A68BFF35B8F8AB10B4A126895
:10377000891A4EF65F2291420AD9BFF35B8F00226D
:1037800053E8001F43E800200028F9D1BFF35B8F06
:1037900070BD00BFC4FF002008C3002000C300208C
:1037A000044BBFF35B8F1868BFF35B8F003818BF03
:1037B0000120704708C30020084BBFF35B8F002235
:1037C00053E8001F012903D143E800200028F7D166
:1037D000BFF35B8F0CBF01201046704704C300206D
:1037E0000149002002F0D6BC2CCA020010B500230B
:1037F0008AB0CDE9023308210DEB010023F049FF27
:10380000002822DB0821164A11230DEB01001FF0CE
:10381000ECF8134A12F8013BCBB90423114C009386
:10382000114A124B0194182104A81DF0FBF904A8B9
:1038300002F060FD48B9A4F10C00FCF78DFCA4F186
:103840000C0102460A4801F093F90AB010BDA3F139
:10385000610105299CBF203B02F8013CDAE700BF6B
:10386000C5FF0020D1FF0020B7C90200AEC9020089
:10387000BFC902004FF08043D3F84036DB0732D592
:103880004FF01023D3F8043303F00703042B2AD09E
:10389000154B0122C3F80425D3F80024002AFBD0DD
:1038A0004FF01022D2F8043323F0070343F004034F
:1038B000C2F804330C4BD3F80024002AFBD00022BA
:1038C000C3F80425D3F80024002AFBD0BFF34F8FA0
:1038D0000649074BCA6802F4E0621343CB60BFF3AA
:1038E0004F8F00BFFDE7704700E0014000ED00E0B2
:1038F0000400FA0510B5104C204625F02CFAC0B192
:103900000E4825F028FAA0B10D4825F024FA80B120
:103910000C484FF480311EF001FE0B484FF4B011FB
:103920001EF0FCFDA36809491B682046BDE8104055
:1039300018476FF0120010BDF09C02008C9C020032
:10394000A09C0200A0A3020098A30200C4C8020029
:10395000F0B587B01422002101A825F03EFF022314
:10396000454E0493012440F20C4302940396ADF8B3
:1039700014304248424D836801A95B68984738BBC0
:10398000B6F9003041F2707223EAE37313FB02F3DD
:1039900040F6E442C3F30F36B2EB233F4FEA233144
:1039A0002E8014DA37482346074630F8022F964215
:1039B00051D85C1E344E305DF35C37F814401B1A4E
:1039C000091B4B43121B93FBF2F31844C0B2A870BF
:1039D0002E4C204625F0BFF970B1A6684021F3684F
:1039E0002046984740B90C21336901AA20469847E0
:1039F00010B99DF90430EB704FF08043D3F8384490
:103A000004F001042C715CB3214922481EF086FDAC
:103A1000322025F09BF920480469836801A95B687E
:103A2000984720B92368019C5C40C4F34020431EA2
:103A30005C425C41AA79EB786C71BAB9013B2B2BE3
:103A400001D90123AB71AA7914481B211EF056FD40
:103A50000B4807B0F0BD01330C2BA6D16420B6E7AC
:103A60000C484FF480311EF059FDE3E7043B252B51
:103A7000E9D80023E6E700BF2EEF0020F09C02000B
:103A800030EF0020ACC80200CDC902002C9D02001E
:103A900010000100A0A302008C9C0200A09C020068
:103AA0000048704730EF0020074B1A794AB9188850
:103AB000013880B240F6E24398428CBF00200120DA
:103AC00070470020704700BF30EF002008B506485F
:103AD0004FF480311EF022FD044800221B211EF00D
:103AE0000DFD1EF029FF00BFA0A30200A09C020054
:103AF000F0B50C468BB02149064615461F46FCF72B
:103B000019FB78B9042C19D11D4B19682246384687
:103B1000A847002802DA6FF0040600E000263046CD
:103B20000BB0F0BD17493046FCF704FB30B9042C4C
:103B300004D1134B196822460431E8E73046124994
:103B4000FCF7F8FA0646B0B9282C14D1224669468B
:103B50003846A8470028DEDB0C4B009A9A42DED19B
:103B6000074B01AD1C680FCD08340FC40FCD0FC437
:103B70002B682360D3E76FF00106D0E7DCC90200B1
:103B80000CC30020E5C90200EFC9020031435053C5
:103B900010B5014604460422054800F08FFE30B9F6
:103BA0000422A1180348BDE8104000F087BE10BDF4
:103BB000D9C90200E2C9020038B50A4B05461860AF
:103BC00000F0B8FF044650B9074800F0B1FE6B683A
:103BD00003F5806304466B602846FFF7D9FF204653
:103BE00038BD00BF0CC30020E9C9020030B58BB05E
:103BF000084B009300F108040FCC01AD0FC50FCCAA
:103C00000FC5236804482B602822694600F056FE41
:103C10000BB030BD31435053ECC9020010B51C4607
:103C2000BDF8083010464BB9631E0F2B06D8054B64
:103C30001B680BB121469847204610BD6FF00C0061
:103C4000FBE700BF28C3002070B586B0BDF8281080
:103C5000002933D1132B31D101AB02F110061C46E0
:103C6000106851681D4603C50832B2422B46F7D191
:103C700011889278AA7029809DF80430022B03D015
:103C80006FF0120006B070BD0E4B1B68002BF7D012
:103C9000204698470028F3D10B4A234605AD1C4621
:103CA00003CCAC4210605160234602F10802F6D109
:103CB0002188A378937011801320E3E76FF00C0044
:103CC000E0E700BF24C30020DBFF00204B1E594269
:103CD0005941014B19707047D9FF00204B1E5942C2
:103CE0005941014B19707047D8FF00204B1E5942B3
:103CF0005941014B19707047D7FF00204B1E5942A4
:103D00005941014B19707047D6FF002030B5CD687E
:103D1000094CA54285B00DD0084CA5420CBF072424
:103D20001324CDE90154BDF82040009422F0F7FAA5
:103D300005B030BD0824F4E7F5FF0020EEFF0020B9
:103D400010B50C4C2368834203D103F0ADFF002370
:103D50002360094B00201870084B1870084B18702E
:103D6000084B1870084B1B6813B1BDE8104018478A
:103D700010BD00BF14C30020D6FF0020D7FF0020D5
:103D8000D8FF0020D9FF002020C3002010B5154C1B
:103D9000BFF35B8F2368BFF35B8F012B01461DDCF4
:103DA000114B0361BFF35B8F54E8003F013344E8DC
:103DB0000032002AF8D1BFF35B8F0C4B186806F075
:103DC0006DFB50B1BFF35B8F54E8003F013B44E80B
:103DD0000032002AF8D1BFF35B8F10BD6FF00A00EC
:103DE000FBE700BF18C30020513E000014C30020B1
:103DF00070B505460C46E9B90F4B197020F01CFE52
:103E00000E4B18600E4BBFF35B8F53E8002F43E857
:103E100000410029F9D1BFF35B8F0A490A4B0B60BF
:103E2000284606F03DFC094B1B681BB1BDE87040FD
:103E30000120184770BD00BFDAFF002014C3002026
:103E400018C3002010C300206925020020C30020F1
:103E50000B4BBFF35B8F1A68BFF35B8F002A0ADD41
:103E6000BFF35B8F53E8001F013943E80012002ABB
:103E7000F8D1BFF35B8F034B1B6803B11847704742
:103E800018C300201CC3002008B5094B1860094B5B
:103E90001960094B00201A6002F0C6FB30B90748D0
:103EA00000F046FDBDE80840FFF7A0BC08BD00BF1C
:103EB00028C3002024C3002020C30020F3C902002F
:103EC00030B5114D2B7885B0D3B9104B1B68BBB9F9
:103ED00002F034FA092304468DF80830FCF73CF967
:103EE000039401248DF8090009490A48009402ABA3
:103EF000022203F017FA10B110F1780F01D12C70E3
:103F0000002005B030BD00BFDAFF002014C3002040
:103F1000BCA30200A8A3020010B5044C23781BB177
:103F200003F032FA0023237010BD00BFDAFF002037
:103F3000024B1868003818BF0120704714C30020D6
:103F4000014B1878704700BFDAFF002030B50E4CE7
:103F500003682360436863600C4B1D6887B08DB1B4
:103F60000B4B1B7873B100211822684625F035FCF5
:103F7000084B6946CDE9013428460823ADF80C30DA
:103F800006F08CFA07B030BDF5FF002014C3002006
:103F9000D9FF0020E0A3020070B5154D044686B09D
:103FA00001460722284625F020FC23682B60A388C1
:103FB000AB80A379AB710646207800F057FCA6B120
:103FC0000C4B1C688CB10C4B1B7873B10021182270
:103FD000684625F002FC094B6946CDE901352046CB
:103FE0000723ADF80C3006F059FA06B070BD00BFDB
:103FF000EEFF002014C30020D7FF0020A8A4020079
:10400000064B00F1100250F8041B43F8041B9042C9
:10401000F9D102881A8082789A707047DBFF0020FD
:10402000014B1860704700BF1CC3002008B5064B49
:10403000186830B1054B1B7823B122F0FFF9033823
:1040400080B208BD1846FCE714C30020D6FF00204C
:1040500008B5064B186830B1054B1B7823B122F028
:10406000EDF9033880B208BD1846FCE714C3002000
:10407000D8FF002030B587B005460C461822002135
:10408000684625F0AAFB094BADF80C40CDE9013597
:10409000074B1B683BB1074B1B7823B16846FFF702
:1040A00075FE07B030BD6FF07F00FAE71CA4020078
:1040B00014C30020D8FF002030B587B005460C4659
:1040C00018220021684625F088FB094BADF80C400A
:1040D000CDE90135074B1B683BB1074B1B7823B17A
:1040E0006846FFF753FE07B030BD6FF07F00FAE778
:1040F000E4A4020014C30020D6FF002010B5094C30
:104100000A44914200D110BD11F8013B5840030907
:104110000001E35CC0B2434018091B01205CDBB224
:104120005840EEE7F6C90200014B1B68184700BF74
:104130002003002030B585B004460D461022002132
:10414000684625F04AFB02238DF802302A46044BCC
:104150000193214668461CF093FE05B030BD00BFB8
:104160002941000080B505460E46174698461CF0CA
:10417000F3F9034625F026FDDFF81890044649F8C8
:104180000030424630463946A84754F8090000F04E
:1041900047FF00BF080000002DE9F047058B0446EB
:1041A0002807904611D4022905F0070540F0CC807D
:1041B00020461EF097FC78B10138218B042811D8D5
:1041C000DFE800F0C2106D85950001290CBF45F0B5
:1041D000100545F02005258388F31188BFF36F8F04
:1041E000BDE8F08701F0070AAA4500F0A580002786
:1041F000B9463E46A368002B00F0BC8041F00801A0
:10420000218388F31188BFF36F8FA168002900F024
:10421000BA800D68002900F0B680D1F804803346DA
:1042200052462046C047002D76D02B6829461D46B1
:10423000F0E701F007035A1F012A1BD8002221F0E2
:104240000701062B276889B2C4E9002209D13B4641
:1042500003E0628B013262831B68002BF9D141F0CD
:104260000201218320461EF03DFC00287AD041F057
:10427000200176E0042B0AD121F0070189B22183C5
:1042800020461EF02FFC10B141F020012183218B2C
:1042900001F0070AAA454FD00027B946AAE72369CB
:1042A00021F0070141F00601062DD3F8009021838B
:1042B0002DD1B9F1000F3FD041F00801218388F3DF
:1042C0001188BFF36F8F3A492046C84729E021F093
:1042D0000701236941F0040189B2042DD3F8049049
:1042E0002183E6D000273E464FF0040A82E721F002
:1042F0000701236941F0050189B2052DD3F8089023
:104300002183D6D000273E464FF0050A72E70027EA
:104310003E464FF0060A6DE72B4687E7B9F1000FDE
:10432000D1D1EFF31188202383F31288BFF36F8F6D
:10433000238B23F008032383258BEA062ED525F053
:104340001003238305F007056669218B002EBFF655
:1043500070AF00232768C4E9003321F0070141F062
:1043600001012183218B01F0070AAA454FF00009C2
:104370007FF440AF002F9CD041F00801218388F3E7
:104380001188BFF36F8F002FC8D03D683946334680
:10439000524620461EF0D2FB2F46F4E7AB067FF5CF
:1043A0001BAF25F02003238305F0070500E700BFBE
:1043B000692B02002DE9F7430F4606460821C06A23
:1043C000DFF850901EF01DFD3C68241A80463C60CA
:1043D00004EA0905AC4203D8002003B0BDE8F0832D
:1043E00008236A46214630461EF0A3FC0028F4D17B
:1043F000694630461EF00FFD40B1BDF80230BDF8F1
:1044000004203C6005EA090513441D44A4EB08049C
:10441000E0E700BF0000FFFF73B504460821C06A53
:10442000124E1EF0EEFC4FF6FF726368ADF80020EE
:104430008DF80620A289191833401344181A002554
:1044400060606846ADF80210ADF804501EF0D0FC74
:10445000694620461EF09FFD2046211D1EF0A2FC4D
:10446000636828463340A36002B070BD0000FFFFC0
:104470002DE9F047044688B000F11407384624F0CF
:1044800074FDA06A8368DB689847E06228B96FF022
:104490001505284608B0BDE8F087A06A8368DB6888
:1044A00098470368013B1F2BF1D8A06A216805AA31
:1044B00023F018F80028EAD1A589002DE7D0069B43
:1044C000B5FBF3F203FB1255002DE0D1E389012B7C
:1044D000DDD9E36A009593F805904FF0FF334FF074
:1044E000FF3238461BF05EF9E06A08211EF089FCB5
:1044F000A8460646E3891FFA85FA534508D8E3899A
:10450000434523D138461BF0C5F96FF02C05C0E7B1
:10451000A1892B04891B13FA81F14A4608232046FE
:1045200000911EF014FC78B1694620461EF03AFC5A
:1045300008F10108009908234A4620461FFA88F826
:104540001EF005FC0028DAD00135D3E753450BD126
:10455000009908234A46891B20461EF0F8FB18B92B
:10456000694620461EF01EFC69462046FFF722FFE2
:10457000054618B138461BF08DF98AE7009B636049
:104580004FEA13484FEA0848C4F80880D4E90113F9
:1045900099420FD3082301AA20461EF0CAFB054604
:1045A0000028E7D101AB13F8012B914533D1013538
:1045B000082DF8D163681B0C1B0469462046009344
:1045C0001EF0F0FBA38900994A4620461EF0BFFB6F
:1045D000051ECFDB636876D006EB03084FF6FF7944
:1045E000A389CDF800801FFA88F29B1B9A422ED334
:1045F00000236168002B43D0090C09040091204678
:1046000069461EF0CFFB009920461EF0D8FB0546F8
:10461000002D74D0AEE701A920461EF0FCFB6268B5
:1046200010B9921B6260B1E7BDF80850BDF80610E2
:10463000E06AC4F8088029441EF0E3FB404490423D
:10464000A060EED1002DECD06FF01C0568E00823CF
:1046500003AA414620461EF06CFB0546002889D17E
:1046600003A920461EF0D7FB30B1BDF80C304B45F6
:1046700002D1BDF810300BB1B044B1E70123B8E767
:1046800020461EF09CFB054600287FF473AF63684C
:10469000264AA18913400B44A3EB460363601340F1
:1046A000A36020461EF09FFCB1E75B1A4A462046F5
:1046B0001EF04DFB051EFFF65DAF08D0E26AA36851
:1046C00012681344A360D4E901318B42EDD86168CC
:1046D000A38901EB46029A429AD1DFF85080A26882
:1046E00001EA08039A4293D020461EF068FB054673
:1046F00000287FF43FAF636803EA0803A360A3893F
:10470000A288A3EB46039A4206D038461BF0C2F8B3
:10471000012323740025BCE620461EF04DFC05460F
:1047200038461BF0B7F8002DF2D0B2E60000FFFFCC
:10473000014B03600020704720A5020070B5104BAC
:104740001C680D46B4B10F4B196800238B4202DB85
:104750006FF0010070BD224612F8106B864202D045
:1047600001331446F2E7E06824F0F5FA28B12C6032
:104770000020EFE76FF00C00ECE76FF01200E9E7C4
:104780002403002020A5020010B588B043680293DE
:104790008368C068CDE903320A680023CDE90623A7
:1047A0000C4601AA0449059322F0A0FE079808B917
:1047B000059B236008B010BD7D3402002DE9F34154
:1047C00001A9064614461D461EF0D8FE17490246AA
:1047D0000746304625F019F8804660B9144E152278
:1047E00031462846A047031E01DB06F8038000205F
:1047F00002B0BDE8F0810F493A46304625F005F891
:10480000804608B90C4EEAE730460C493A4624F097
:10481000FCFF06460028EAD1094F152239462846F2
:10482000A047031EA8BFFE54E1E700BF06CA02006E
:1048300072070020C6C90200FDFF00200CCA02005A
:104840005C07002010B5084C86B024788DF817401E
:10485000012402940DF117040194BDF82040009446
:1048600021F05DFD06B010BD8807002000B589B0BD
:1048700064288DF8070019D80E4B182218700021F3
:1048800002A824F0AAFF0C4B03930DF10703049335
:1048900002A901230020ADF8143005F0FFFD10F14E
:1048A000800F08BF002009B05DF804FB6FF0150011
:1048B000F9E700BF8807002014A602002DE9F041A7
:1048C0000F4B1C6805460E461746ACB14FF0FF3241
:1048D0004FF0FF330B481AF065FF63683246D3F898
:1048E000088029463B462046C047044605481AF042
:1048F000D1FF2046BDE8F0816FF00104F9E700BF69
:104900002CC300202C08002000230360044B5A68AD
:1049100012B9C3E90000704710605860704700BFCB
:1049200030C30020014B1860704700BF2CC300202B
:1049300030B585B000230546CDE9023301904FF034
:10494000FF330C484FF0FF321AF02CFF0A4B1C6863
:104950004CB9284600F08EF8044606481AF09AFF33
:10496000204605B030BD636820461B6801A9984702
:104970002468EDE72C08002030C300201FB5CDE9E6
:10498000010103924FF0FF330A484FF0FF321AF053
:1049900009FF094B1C682CB906481AF07BFF20461A
:1049A00004B010BD636820461B6801A998472468BD
:1049B000F1E700BF2C08002030C30020024B00228A
:1049C000C3E90022704700BF30C30020024B002221
:1049D000C3E90022FFF7F2BF38C300202DE9F743F7
:1049E00007460C4609B100230B601F4DDFF880908D
:1049F00000264D450FD31D4B1D6885B355F8188C07
:104A000001AA41463846183D1EF094FD10B3D6B9B0
:104A100014BB2E461EE0D5F8008001AA4146384658
:104A20001EF088FD50B116B954B92E4606E0316823
:104A3000002240461EF07EFD0028F5D11835D8E74B
:104A4000019B2360F1E73168002240461EF072FDB1
:104A50000028DDD1AD69D0E7019B2360D9E730465E
:104A600003B0BDE8F08300BFE09F020038C3002020
:104A7000A0A002002DE9F047DFF8B090DFF8B0A069
:104A800080464FF000470026274C3D464C450DD34D
:104A9000DAF80040002C42D0183CB8F1000F25D1C4
:104AA00022695ABBA469F5E72F46EDE7B8F1000F7C
:104AB00003D122694AB91834E8E720680022414648
:104AC0001EF038FD0028F4D1F5E76368BB4205DD30
:104AD000AF4209D09D42A8BF1D46ECE7EBD19047FD
:104AE000002E08BF0646E6E71D46E4E720680022E0
:104AF00041461EF01FFD0028D2D1D3E76368BB42B8
:104B000005DDBD4209D09D42A8BF1D46CAE7C9D1F7
:104B10009047002E08BF0646C4E71D46C2E7AF42D5
:104B2000C2D13046BDE8F087E09F0200A0A002009D
:104B300038C3002038B50C4D0C484FF0FF334FF010
:104B4000FF321AF02FFE2B783BB9FFF73FFF00F042
:104B500085F8044610B901232B70002403481AF08D
:104B600099FE204638BD00BF130001202C0800200C
:104B700030B585B00D4601A91446FFF72FFF48B1A7
:104B8000CDE90254054AC568019802AB2146A84701
:104B900005B030BD6FF01500FAE700BF0B3602001C
:104BA0002DE9F047048FDFF8B0A0013498B0064635
:104BB0008946A4B200F10807651EADB2B5F5004FF5
:104BC00047D04A2305AA294638461EF00BFC04F5B7
:104BD0007F543F34A4B28046214601230DF10B02DD
:104BE00038461EF0FFFBB8F1000F014610DC00282C
:104BF00010DC338FAB4209D132466B1E22F8383FAE
:104C00004FF40041022338461EF0BAFA2C46D3E78F
:104C1000002808DC294638461EF080FB214638462D
:104C20001EF07CFBE5E708F160030DEB03080023B1
:104C300008F84C3C5246CDF8009003AB05A803970A
:104C4000ADF810401EF0ACFC0028DFD018B0BDE875
:104C5000F0870020FAE700BF333602007FB501235A
:104C6000694604200193FFF769FD044660BB02AA70
:104C700001A904201EF024FC044610B110F10C0F11
:104C800022D10399B1F5803F23D2009A0023946882
:104C90001846084484421AD30133082BF9D10E4D2B
:104CA000A982EB825368AB602846D368EB631EF0A1
:104CB00058FD044640B9094E6E602846FFF724FEB1
:104CC00028466E60FFF72EFE204604B070BD9BB2F2
:104CD000E5E76FF02004F7E740C300206003002001
:104CE00030BFFFF7FDBF00BF2DE9F0410B4EDFF8ED
:104CF000348006EB0807CC1B05463246084920469F
:104D000024F043FDA01942460021083C24F065FD33
:104D10006C6707F10800BDE8F08100BF00000000EB
:104D2000A0A0020008000000054B9A699B689A4207
:104D30001FBF044A536843F080535360704700BF5D
:104D4000E8EE002000ED00E070B5264B15469A6AAB
:104D500012F0100F9A6A14BF1124102412F0080FD9
:104D60009A6A18BF1224920706460AD5586B9A6AA7
:104D7000140634D519B19A6A22F080029A6213247B
:104D800001E06FF01500174B9A6A12F0010F9A6A52
:104D900018BF142412F0200F9A6A18BF1524D206E7
:104DA00002D49B6A9B070AD50E4B5B68190506D592
:104DB000314600F06BFA10B180F309880224094BE8
:104DC0009A6A920642BF5A6A22F400525A629A6A5A
:104DD00042F0FF029A6200232B70204670BD6FF0F4
:104DE0001500CCE700ED00E0134B9A6A12F0007F4B
:104DF0009A6A14BF1E201D2012F0807F9A6A18BF85
:104E00001F2012F4002F9A6A18BF212012F4802F5D
:104E10009A6A18BF222012F4003F9A6A18BF232012
:104E200012F4803F9A6A6FEA02426FEA12429A6273
:104E300018BF2420704700BF00ED00E010B5194BEB
:104E40000246986A9C6A10F4805F14BF17201620EF
:104E500014F4006F9C6A18BF1820A40509D5986B3C
:104E6000986A000404D51AB19A6A22F400429A6240
:104E700019200C4B9A6A12F4806F9A6A18BF1A2094
:104E8000D2050CD49B6A13F4005F18BF1C20054A9E
:104E9000936A43F47F43936200230B7010BD1B2081
:104EA000F5E700BF00ED00E070B5454B5B689CB0D6
:104EB0000546C3F30803002686F31188BFF36F8FFE
:104EC00002F07F40B0F17F4F11D102F00C000828B2
:104ED0000DD010074CBF0D4601260022033B8DF874
:104EE0000720032B05D8DFE803F01E5D615A354625
:104EF000F3E700249DF807309BB96822294602A8F1
:104F000024F043FC099B002E54D0C3F3080222B9BD
:104F10006FEA53236FEA4323099302A920461EF048
:104F200055FC1CB070BD264BDA6A9107E1D4DA6AF1
:104F3000002ADEDBDA6A5200DBD55A69A96942F43D
:104F400080725A61BFF34F8FBFF36F8F5A6931F888
:104F5000021C22F480725A61BFF34F8FBFF36F8F30
:104F60004DF6027291420AD09A6AD2B24AB10DF15C
:104F7000070201212846FFF7E7FE0446BAE72C683E
:104F8000B8E79A6A12F47F4F05D00DF107010120AE
:104F9000FFF754FFF1E79B6AB3F5803FA9D3FFF712
:104FA00023FFEAE70DF107020021E3E70DF1070116
:104FB0000020EDE723F4FF7323F00103ACE700BF0B
:104FC00000ED00E0044B5A6942F010025A615A6940
:104FD00022F008025A61704700ED00E0EFF308800C
:104FE000EFF3098101B57246FFF75EFF01BD00BF17
:104FF00017F01EF9202080F3118808484FF408614B
:10500000401880F30988EFF314800221084380F3ED
:105010001488BFF36F8F00F0C1F800000017012063
:10502000084B9B6883420BD1EFF3058343B1064BDA
:105030005A6842F080525A605A6A22F400425A6218
:105040001BF090BAE8EE002000ED00E023498A68EA
:1050500082F8C1E04FF030001044EFF3098C80E893
:10506000F01F1EF0100F03D102F1800080EC108AB7
:10507000202080F31288BFF36F8F194F4FF0006626
:105080008A698A603E60506F164C206092F9C1E0D8
:10509000906F0023936780F311881EF0100F03D0E8
:1050A0000023E1EE103A03E002F1800090EC108A58
:1050B000EFF3148323F0040383F31488BFF36F8F9B
:1050C00004B5104600F078F9BDE8044002F1300064
:1050D00090E8F01F8CF3098870470000E8EE00208C
:1050E00004ED00E080C300201EF0040F0CBFEFF3BE
:1050F0000880EFF30980816911F8021C0229FFD0B2
:1051000001B572461EF068FB01BD00BF40B2002829
:1051100007DB044A4109012300F01F00834042F8E5
:105120002130704700E100E040B200280CDB430969
:10513000064900F01F0020330122824041F823205D
:10514000BFF34F8FBFF36F8F704700BF00E100E0E8
:10515000054B420900F01F0053F82220012303FAF7
:1051600000F01040704700BF00E100E040B20028AE
:10517000A8BF00F1604001F10101B8BF064B4FEA42
:105180004111ACBF00F5614000F00F00C9B2B4BFDF
:10519000195480F80013704714ED00E0144A08B564
:1051A000144B22F07F029A60BFF34F8FBFF36F8FD3
:1051B000D3F8882022F47002C3F88820D3F888201E
:1051C00042F4A002C3F888204FF04042C3F83422D2
:1051D000BFF34F8FBFF36F8F0023E1EE103A1AF049
:1051E00025F91BF0F7FA00F0BDF81AF061F900BFDD
:1051F0000000000000ED00E042F8203C009B42F877
:105200001C3C019B42F8183C0A49029B42F8143CA2
:105210004FF0807342F8043C21F00101002342F872
:10522000081C203A83674FF47D430265C0F8C03004
:10523000704700BF65410000037B13F0020F124B63
:1052400003D190F8C120D20611D45A6B42F08042AB
:105250005A63D0F8C03019075CBF43F00803C0F8A8
:10526000C030037B43F002030373802070475A6B06
:1052700022F080425A63D0F8C0301A0744BF23F0AE
:105280000803C0F8C030F0E700EF00E0094A034629
:10529000906870B113F1160F406E05D0A0F1800236
:1052A0009A4205D8834203D2814228BF002070472A
:1052B00000207047E8EE0020104B9B6883421AD113
:1052C000EFF30580B8B9EFF31181202282F3128841
:1052D000BFF36F8F1A7B22F002021A73EFF314836D
:1052E00023F0040383F31488BFF36F8F81F31188D5
:1052F000BFF36F8F70476FF015007047E8EE002026
:1053000008B515460E460022E1EE102AEFF314828E
:1053100022F0040282F31488BFF36F8FBFF36F8F04
:10532000094A0A4B9060426F1A6000F045F82C461B
:1053300086F309880020064B98472046002100226A
:105340000023044C204700BFE8EE002080C300206B
:10535000F737020065410000014B10221A617047C7
:1053600000ED00E0044800232021C2180133302B57
:1053700082F80013F9D1704700E100E008B5EFF3BF
:105380000583064A103B02EBC30152F8330049681B
:105390008847BDE80840FFF7C7BC00BF409D02003A
:1053A000024B034A0348012100F07CB800000220B0
:1053B0000000002064A6020010B50446FFF73CFF81
:1053C000626E03460548D21AC0E90023044B83608D
:1053D000BDE81040012100F06FB800BF84C3002079
:1053E00000000B15084AC2F898000B6823F01F0351
:1053F000034343F01003C2F89C308B6843F0010371
:10540000C2F8A030704700BF00ED00E02DE9F04386
:10541000DFF8608085B00E461F4604464FF0000955
:10542000B14523DA6068D8B13FB1411E08421BD1B3
:105430007F2819D92368194216D1236801931EF0D9
:10544000FDF9A36803430393D8F89050C5F30725EB
:10545000D0B2013DA84207D801A9FFF7C3FF421C03
:1054600009F101090C34DBE76FF01502104605B0B5
:10547000BDE8F08300ED00E0044B0522C3F8942062
:10548000BFF34F8FBFF36F8F704700BF00ED00E099
:10549000BFF35F8F024B0022C3F89420704700BF18
:1054A00000ED00E010B5034C01232278FFF7AEFFBA
:1054B000207010BD1400012008B50B4A002312789B
:1054C000FFF7A4FF10F1160F07D0084A0021D2F809
:1054D0009030C3F30723984200DB08BDC2F8980060
:1054E000C2F8A0100130F2E71400012000ED00E046
:1054F0002DE9F043534B544CD3F890302568C3F357
:1055000007239D4285B000F29A80FFF7C1FF00207B
:105510000C2685421AD14D4C4D4F25706846FFF739
:1055200007F9DFF82081DFF82C9106460025AE420E
:1055300013D1237843490020D1F89020C2F30722E9
:10554000934276DBFFF798FF002042E0616806FB9C
:105550000011FFF747FF0130DBE7009800EB051172
:105560004FEA051CCB683B40B3F5000F48D00AD882
:10557000B3F5001F30D0B3F5800F36D0B3F5801FE0
:1055800010D00135D3E7B3F1807F42D0B3F1007F73
:10559000F7D150F80C3088684A681EF04FF940F493
:1055A000802009E050F80C3088684A681EF046F9FF
:1055B00040F0885040F43020CDE901230390D8F822
:1055C00090302078C3F30723013B98422AD96FF02B
:1055D000150005B0BDE8F08350F80C3088684A68C3
:1055E0001EF02CF940EA0900E6E750F80C30886814
:1055F0004A681EF023F940F0007040F40030DBE709
:1056000050F80C3088684A681EF018F940F0827033
:10561000D2E750F80C3088684A681EF00FF940F065
:105620008870C9E701A9FFF7DDFE237801332370F5
:10563000A7E7C1F89830C1F8A00001337CE74FF02C
:10564000FF30C6E700ED00E070A602001400012064
:105650000000F0FF0000081108B50649064821F0D7
:105660000701C1F1005202F500321DF00CF90020D3
:1056700008BD00BFC74B012090C3002003484FF076
:10568000FF324FF0FF331AF08DB800BF74030020D3
:1056900001481AF0FFB800BF7403002038B5054672
:1056A000FFF7ECFF08482A4608211DF084F804465D
:1056B00028B925B124F086FA044B0C221A50FFF7C2
:1056C000E7FF204638BD00BF90C300200C0000005B
:1056D00010B50446FFF7D2FF214603481DF033F80A
:1056E000BDE81040FFF7D4BF90C3002070B5A0FB09
:1056F00001543CB92846FFF7D1FF064640B90026C1
:10570000304670BD24F05EFA044B0C221A50F6E7C6
:105710002A46214624F061F8F2E700BF0C000000A1
:1057200070B54169867A0B4D044659B1437ADB075F
:1057300006D42C2303FB06535B6A1B689B689847BF
:10574000002363612C20214606FB0050BDE8704019
:1057500023F0E6BCB8080020024B2C2202FB0030EC
:10576000704700BFB8080020827A064B2C2101FB4D
:1057700002339A6A1B7F1B33801A23F00303B0FBAA
:10578000F3F07047B808002038B5074B827A2C2414
:1057900004FB02335B6AD3E901240C601568FFF750
:1057A000E3FF04FB005038BDB80800202DE9F043AA
:1057B00085B005466846039190461C4623F01BFFC2
:1057C000DDE90067EFF31189202383F31288BFF32B
:1057D0006F8F6B8B002B41D02A8B9A4225D90022E8
:1057E000002328461AF0A6F80446F0B189F3118880
:1057F000BFF36F8F039B002B41D032463B46684678
:1058000023F01DFFA27A264B2C2101FB02332046F8
:105810005B6A1B6803A91D68DDE90023A847606176
:1058200070BB2046FFF77CFF24E0698B4B1E6B8327
:1058300089F31188BFF36F8F2B7F2A8BAC6A1B33E0
:1058400023F00303521A02FB0344154B154AEB1ACB
:105850009B105343A3722B7FE372CBE789F311882C
:10586000BFF36F8F2346424628461AF063F804467A
:105870000028BFD10024204605B0BDE8F083636155
:10588000012300252381039B6382E27A6560294618
:1058900004F1180023F0A1FF63692582E360EAE7C1
:1058A000B8080020A38B2EBA70B50C4C2C2500B97B
:1058B00070BD037A4668013BDBB20372002BF7D15F
:1058C000C3604360837A05FB03431B6A13B19847A7
:1058D0003046ECE7FFF724FFFAE700BFB8080020E6
:1058E000024B0122C3F840250020704700E0014030
:1058F00020B1034B800143F001031847704700BFFC
:1059000000A1020008B5044823F025FA00280CBFC6
:105910006FF01200002008BDB49C020010B50346D1
:105920000548826814688AB21946A0470028B4BFA7
:105930006FF00400002010BDB49C02002DE9F3417B
:10594000254CBFF35B8F1F462368BFF35B8F164662
:10595000DA0705462BD520B96FF0010002B0BDE88B
:10596000F08101A91DF00AFE1C4980460246284626
:1059700023F04BFFE8B9BFF35B8F2368BFF35B8F66
:10598000C3F3C0081B0712D4A4F1D405072229468B
:105990003846B047062895BF44F8D48C0723C5F88D
:1059A0000380B0FBF3F094BF85F80780E871002016
:1059B000D4E728460A49424623F027FF0546002837
:1059C000CAD11C2204F19C013846B0470028EEDB06
:1059D000044484F89C50EAE7D400002079CC02000B
:1059E0003FCA02002DE9F04188B09C79DDF838808B
:1059F0005D791E79DF7893F802C093F801E01B7897
:105A0000B8F1000F0ED0CDE90638CDE904CE13462B
:105A1000CDE90267CDE90045084A1BF003F908B05B
:105A2000BDE8F081CDE905E3CDE9037C1346CDE97E
:105A30000156034A00941BF0F5F8F0E744CA02004F
:105A400068CA020070B504468CB01E461546A2B165
:105A500029B10A4602A804211CF078FF02A900918E
:105A60002B462246242103A8FFF7BCFF109A31469B
:105A700003A8FEF723FF0CB070BD0346044A24219F
:105A800003A81BF0CFF80028F0DA6FF01500F2E75A
:105A900089CA020007B5064B0648DA79C2EBC20292
:105AA000009200221146FFF7CDFF03B05DF804FB22
:105AB0000000002079CC020030B504468DB01546B8
:105AC00092B129B10A4602A804211CF03FFF02A9A5
:105AD00000912B462246242103A8FFF783FF03A849
